{
  "_format": "hh-sol-artifact-1",
  "contractName": "BackerBadge",
  "sourceName": "contracts/BackerBadge.sol",
  "abi": [
    {
      "inputs": [
        {
          "internalType": "address",
          "name": "initialOwner",
          "type": "address"
        }
      ],
      "stateMutability": "nonpayable",
      "type": "constructor"
    },
    {
      "inputs": [
        {
          "internalType": "address",
          "name": "sender",
          "type": "address"
        },
        {
          "internalType": "uint256",
          "name": "tokenId",
          "type": "uint256"
        },
        {
          "internalType": "address",
          "name": "owner",
          "type": "address"
        }
      ],
      "name": "ERC721IncorrectOwner",
      "type": "error"
    },
    {
      "inputs": [
        {
          "internalType": "address",
          "name": "operator",
          "type": "address"
        },
        {
          "internalType": "uint256",
          "name": "tokenId",
          "type": "uint256"
        }
      ],
      "name": "ERC721InsufficientApproval",
      "type": "error"
    },
    {
      "inputs": [
        {
          "internalType": "address",
          "name": "approver",
          "type": "address"
        }
      ],
      "name": "ERC721InvalidApprover",
      "type": "error"
    },
    {
      "inputs": [
        {
          "internalType": "address",
          "name": "operator",
          "type": "address"
        }
      ],
      "name": "ERC721InvalidOperator",
      "type": "error"
    },
    {
      "inputs": [
        {
          "internalType": "address",
          "name": "owner",
          "type": "address"
        }
      ],
      "name": "ERC721InvalidOwner",
      "type": "error"
    },
    {
      "inputs": [
        {
          "internalType": "address",
          "name": "receiver",
          "type": "address"
        }
      ],
      "name": "ERC721InvalidReceiver",
      "type": "error"
    },
    {
      "inputs": [
        {
          "internalType": "address",
          "name": "sender",
          "type": "address"
        }
      ],
      "name": "ERC721InvalidSender",
      "type": "error"
    },
    {
      "inputs": [
        {
          "internalType": "uint256",
          "name": "tokenId",
          "type": "uint256"
        }
      ],
      "name": "ERC721NonexistentToken",
      "type": "error"
    },
    {
      "inputs": [],
      "name": "EscrowNotSet",
      "type": "error"
    },
    {
      "inputs": [],
      "name": "NotEscrowContract",
      "type": "error"
    },
    {
      "inputs": [
        {
          "internalType": "address",
          "name": "owner",
          "type": "address"
        }
      ],
      "name": "OwnableInvalidOwner",
      "type": "error"
    },
    {
      "inputs": [
        {
          "internalType": "address",
          "name": "account",
          "type": "address"
        }
      ],
      "name": "OwnableUnauthorizedAccount",
      "type": "error"
    },
    {
      "inputs": [],
      "name": "SoulboundToken",
      "type": "error"
    },
    {
      "anonymous": false,
      "inputs": [
        {
          "indexed": true,
          "internalType": "address",
          "name": "owner",
          "type": "address"
        },
        {
          "indexed": true,
          "internalType": "address",
          "name": "approved",
          "type": "address"
        },
        {
          "indexed": true,
          "internalType": "uint256",
          "name": "tokenId",
          "type": "uint256"
        }
      ],
      "name": "Approval",
      "type": "event"
    },
    {
      "anonymous": false,
      "inputs": [
        {
          "indexed": true,
          "internalType": "address",
          "name": "owner",
          "type": "address"
        },
        {
          "indexed": true,
          "internalType": "address",
          "name": "operator",
          "type": "address"
        },
        {
          "indexed": false,
          "internalType": "bool",
          "name": "approved",
          "type": "bool"
        }
      ],
      "name": "ApprovalForAll",
      "type": "event"
    },
    {
      "anonymous": false,
      "inputs": [
        {
          "indexed": true,
          "internalType": "uint256",
          "name": "tokenId",
          "type": "uint256"
        },
        {
          "indexed": true,
          "internalType": "address",
          "name": "to",
          "type": "address"
        },
        {
          "indexed": true,
          "internalType": "uint256",
          "name": "campaignId",
          "type": "uint256"
        },
        {
          "indexed": false,
          "internalType": "uint256",
          "name": "amount",
          "type": "uint256"
        }
      ],
      "name": "BadgeMinted",
      "type": "event"
    },
    {
      "anonymous": false,
      "inputs": [
        {
          "indexed": true,
          "internalType": "address",
          "name": "escrow",
          "type": "address"
        }
      ],
      "name": "EscrowSet",
      "type": "event"
    },
    {
      "anonymous": false,
      "inputs": [
        {
          "indexed": true,
          "internalType": "address",
          "name": "previousOwner",
          "type": "address"
        },
        {
          "indexed": true,
          "internalType": "address",
          "name": "newOwner",
          "type": "address"
        }
      ],
      "name": "OwnershipTransferred",
      "type": "event"
    },
    {
      "anonymous": false,
      "inputs": [
        {
          "indexed": true,
          "internalType": "address",
          "name": "from",
          "type": "address"
        },
        {
          "indexed": true,
          "internalType": "address",
          "name": "to",
          "type": "address"
        },
        {
          "indexed": true,
          "internalType": "uint256",
          "name": "tokenId",
          "type": "uint256"
        }
      ],
      "name": "Transfer",
      "type": "event"
    },
    {
      "inputs": [
        {
          "internalType": "address",
          "name": "to",
          "type": "address"
        },
        {
          "internalType": "uint256",
          "name": "tokenId",
          "type": "uint256"
        }
      ],
      "name": "approve",
      "outputs": [],
      "stateMutability": "nonpayable",
      "type": "function"
    },
    {
      "inputs": [
        {
          "internalType": "uint256",
          "name": "",
          "type": "uint256"
        }
      ],
      "name": "badgeData",
      "outputs": [
        {
          "internalType": "uint256",
          "name": "campaignId",
          "type": "uint256"
        },
        {
          "internalType": "string",
          "name": "campaignTitle",
          "type": "string"
        },
        {
          "internalType": "uint256",
          "name": "amount",
          "type": "uint256"
        },
        {
          "internalType": "uint256",
          "name": "mintedAt",
          "type": "uint256"
        }
      ],
      "stateMutability": "view",
      "type": "function"
    },
    {
      "inputs": [
        {
          "internalType": "address",
          "name": "owner",
          "type": "address"
        }
      ],
      "name": "balanceOf",
      "outputs": [
        {
          "internalType": "uint256",
          "name": "",
          "type": "uint256"
        }
      ],
      "stateMutability": "view",
      "type": "function"
    },
    {
      "inputs": [],
      "name": "escrowContract",
      "outputs": [
        {
          "internalType": "address",
          "name": "",
          "type": "address"
        }
      ],
      "stateMutability": "view",
      "type": "function"
    },
    {
      "inputs": [
        {
          "internalType": "uint256",
          "name": "tokenId",
          "type": "uint256"
        }
      ],
      "name": "getApproved",
      "outputs": [
        {
          "internalType": "address",
          "name": "",
          "type": "address"
        }
      ],
      "stateMutability": "view",
      "type": "function"
    },
    {
      "inputs": [
        {
          "internalType": "address",
          "name": "owner",
          "type": "address"
        }
      ],
      "name": "getBadgesByOwner",
      "outputs": [
        {
          "internalType": "uint256[]",
          "name": "",
          "type": "uint256[]"
        }
      ],
      "stateMutability": "view",
      "type": "function"
    },
    {
      "inputs": [
        {
          "internalType": "address",
          "name": "owner",
          "type": "address"
        },
        {
          "internalType": "address",
          "name": "operator",
          "type": "address"
        }
      ],
      "name": "isApprovedForAll",
      "outputs": [
        {
          "internalType": "bool",
          "name": "",
          "type": "bool"
        }
      ],
      "stateMutability": "view",
      "type": "function"
    },
    {
      "inputs": [
        {
          "internalType": "address",
          "name": "to",
          "type": "address"
        },
        {
          "internalType": "uint256",
          "name": "campaignId",
          "type": "uint256"
        },
        {
          "internalType": "string",
          "name": "campaignTitle",
          "type": "string"
        },
        {
          "internalType": "uint256",
          "name": "amount",
          "type": "uint256"
        }
      ],
      "name": "mintBadge",
      "outputs": [
        {
          "internalType": "uint256",
          "name": "tokenId",
          "type": "uint256"
        }
      ],
      "stateMutability": "nonpayable",
      "type": "function"
    },
    {
      "inputs": [],
      "name": "name",
      "outputs": [
        {
          "internalType": "string",
          "name": "",
          "type": "string"
        }
      ],
      "stateMutability": "view",
      "type": "function"
    },
    {
      "inputs": [],
      "name": "owner",
      "outputs": [
        {
          "internalType": "address",
          "name": "",
          "type": "address"
        }
      ],
      "stateMutability": "view",
      "type": "function"
    },
    {
      "inputs": [
        {
          "internalType": "uint256",
          "name": "tokenId",
          "type": "uint256"
        }
      ],
      "name": "ownerOf",
      "outputs": [
        {
          "internalType": "address",
          "name": "",
          "type": "address"
        }
      ],
      "stateMutability": "view",
      "type": "function"
    },
    {
      "inputs": [],
      "name": "renounceOwnership",
      "outputs": [],
      "stateMutability": "nonpayable",
      "type": "function"
    },
    {
      "inputs": [
        {
          "internalType": "address",
          "name": "from",
          "type": "address"
        },
        {
          "internalType": "address",
          "name": "to",
          "type": "address"
        },
        {
          "internalType": "uint256",
          "name": "tokenId",
          "type": "uint256"
        }
      ],
      "name": "safeTransferFrom",
      "outputs": [],
      "stateMutability": "nonpayable",
      "type": "function"
    },
    {
      "inputs": [
        {
          "internalType": "address",
          "name": "from",
          "type": "address"
        },
        {
          "internalType": "address",
          "name": "to",
          "type": "address"
        },
        {
          "internalType": "uint256",
          "name": "tokenId",
          "type": "uint256"
        },
        {
          "internalType": "bytes",
          "name": "data",
          "type": "bytes"
        }
      ],
      "name": "safeTransferFrom",
      "outputs": [],
      "stateMutability": "nonpayable",
      "type": "function"
    },
    {
      "inputs": [
        {
          "internalType": "address",
          "name": "operator",
          "type": "address"
        },
        {
          "internalType": "bool",
          "name": "approved",
          "type": "bool"
        }
      ],
      "name": "setApprovalForAll",
      "outputs": [],
      "stateMutability": "nonpayable",
      "type": "function"
    },
    {
      "inputs": [
        {
          "internalType": "address",
          "name": "_escrow",
          "type": "address"
        }
      ],
      "name": "setEscrowContract",
      "outputs": [],
      "stateMutability": "nonpayable",
      "type": "function"
    },
    {
      "inputs": [
        {
          "internalType": "bytes4",
          "name": "interfaceId",
          "type": "bytes4"
        }
      ],
      "name": "supportsInterface",
      "outputs": [
        {
          "internalType": "bool",
          "name": "",
          "type": "bool"
        }
      ],
      "stateMutability": "view",
      "type": "function"
    },
    {
      "inputs": [],
      "name": "symbol",
      "outputs": [
        {
          "internalType": "string",
          "name": "",
          "type": "string"
        }
      ],
      "stateMutability": "view",
      "type": "function"
    },
    {
      "inputs": [
        {
          "internalType": "uint256",
          "name": "tokenId",
          "type": "uint256"
        }
      ],
      "name": "tokenURI",
      "outputs": [
        {
          "internalType": "string",
          "name": "",
          "type": "string"
        }
      ],
      "stateMutability": "view",
      "type": "function"
    },
    {
      "inputs": [],
      "name": "totalSupply",
      "outputs": [
        {
          "internalType": "uint256",
          "name": "",
          "type": "uint256"
        }
      ],
      "stateMutability": "view",
      "type": "function"
    },
    {
      "inputs": [
        {
          "internalType": "address",
          "name": "",
          "type": "address"
        },
        {
          "internalType": "address",
          "name": "",
          "type": "address"
        },
        {
          "internalType": "uint256",
          "name": "",
          "type": "uint256"
        }
      ],
      "name": "transferFrom",
      "outputs": [],
      "stateMutability": "pure",
      "type": "function"
    },
    {
      "inputs": [
        {
          "internalType": "address",
          "name": "newOwner",
          "type": "address"
        }
      ],
      "name": "transferOwnership",
      "outputs": [],
      "stateMutability": "nonpayable",
      "type": "function"
    }
  ],
  "bytecode": "0x6080604052346103975761240a6020813803918261001c8161039b565b93849283398101031261039757516001600160a01b0381169081900361039757610046604061039b565b90601582527f46756e64466c6f77204261636b65722042616467650000000000000000000000602083015261007b604061039b565b60078152664646424144474560c81b602082015282519091906001600160401b0381116102ab575f54600181811c9116801561038d575b602082101461028d57601f811161032b575b506020601f82116001146102ca57819293945f926102bf575b50508160011b915f199060031b1c1916175f555b81516001600160401b0381116102ab57600154600181811c911680156102a1575b602082101461028d57601f811161022a575b50602092601f82116001146101c957928192935f926101be575b50508160011b915f199060031b1c1916176001555b80156101ab57600680546001600160a01b03198116831790915560405191906001600160a01b03167f8be0079c531659141344cd1fd0a4f28419497f9722a3daafe3b4186f6b6457e05f80a361204990816103c18239f35b631e4fbdf760e01b5f525f60045260245ffd5b015190505f8061013e565b601f1982169360015f52805f20915f5b86811061021257508360019596106101fa575b505050811b01600155610153565b01515f1960f88460031b161c191690555f80806101ec565b919260206001819286850151815501940192016101d9565b60015f527fb10e2d527612073b26eecdfd717e6a320cf44b4afac2b0732d9fcbe2b7fa0cf6601f830160051c81019160208410610283575b601f0160051c01905b8181106102785750610124565b5f815560010161026b565b9091508190610262565b634e487b7160e01b5f52602260045260245ffd5b90607f1690610112565b634e487b7160e01b5f52604160045260245ffd5b015190505f806100dd565b601f198216905f8052805f20915f5b818110610313575095836001959697106102fb575b505050811b015f556100f1565b01515f1960f88460031b161c191690555f80806102ee565b9192602060018192868b0151815501940192016102d9565b5f80527f290decd9548b62a8d60345a988386fc84ba6bc95484008f6362f93160ef3e563601f830160051c81019160208410610383575b601f0160051c01905b81811061037857506100c4565b5f815560010161036b565b9091508190610362565b90607f16906100b2565b5f80fd5b6040519190601f01601f191682016001600160401b038111838210176102ab5760405256fe6080806040526004361015610012575f80fd5b5f3560e01c90816301ffc9a7146118fa5750806306fdde0314611858578063081812fc1461181c578063095ea7b31461173257806318160ddd1461171557806323b872dd146116f557806342842e0e146116c55780636352211e1461169557806370a0823114611644578063715018a6146115e95780638ca0c06c146111015780638da5cb5b146110d957806395d89b4114610ffb5780639df8cbe514610f47578063a22cb46514610e93578063a683f32b14610e30578063b88d4fde14610dcc578063c87b56dd1461027d578063e42a96e714610255578063e985e9c5146101fe578063f2fde38b146101785763f42375b51461010e575f80fd5b3461017457602036600319011261017457610127611989565b61012f611b8b565b600880546001600160a01b0319166001600160a01b039290921691821790557fa585aec3a6cb0e1a084ed18c7638024e40cc3e3ea815166e2cb6fc17d7f1392b5f80a2005b5f80fd5b3461017457602036600319011261017457610191611989565b610199611b8b565b6001600160a01b031680156101eb57600680546001600160a01b0319811683179091556001600160a01b03167f8be0079c531659141344cd1fd0a4f28419497f9722a3daafe3b4186f6b6457e05f80a3005b631e4fbdf760e01b5f525f60045260245ffd5b3461017457604036600319011261017457610217611989565b61021f61199f565b9060018060a01b03165f52600560205260405f209060018060a01b03165f52602052602060ff60405f2054166040519015158152f35b34610174575f366003190112610174576008546040516001600160a01b039091168152602090f35b346101745760203660031901126101745760043561029a81611b57565b50805f52600960205260405f206040516102b381611a27565b815481526102c360018301611a65565b9160208201928352600281015490604083019182526003015490606083019182526102ed85611bb2565b9484516102f990611d30565b958251670de0b6b3a7640000810461031090611bb2565b90670de0b6b3a76400009006655af3107a4000900461032e90611f0e565b906040518092602082019280516020819201855e820160208101601760f91b905281516020819301602183015e01602001600181015f905203600101601f198101835261037b9083611a43565b865161038690611bb2565b604080517f3c73766720786d6c6e733d22687474703a2f2f7777772e77332e6f72672f32306020808301919091527f30302f737667222076696577426f783d223020302034303020343030223e000092820192909252651e3232b3399f60d11b605e8201527f3c6c696e6561724772616469656e742069643d226267222078313d223025222060648201527f79313d223025222078323d2231303025222079323d2231303025223e0000000060848201527f3c73746f70206f66667365743d223025222020207374796c653d2273746f702d60a082018190526f31b7b637b91d1198311899991b11179f60811b60c08301527f3c73746f70206f66667365743d223130302522207374796c653d2273746f702d60d083018190526f31b7b637b91d1198b098b319b091179f60811b60f0840152701e17b634b732b0b923b930b234b2b73a1f60791b61010084018190527f3c6c696e6561724772616469656e742069643d22616363222078313d223025226101118501527f2079313d223025222078323d2231303025222079323d223025223e000000000061013185015261014c8401929092526f31b7b637b91d119a31b21bb31b11179f60811b61016c84015261017c8301526f31b7b637b91d119a32b232b09991179f60811b61019c8301526101ac820152661e17b232b3399f60c91b6101bd8201527f3c726563742077696474683d2234303022206865696768743d223430302220726101c48201527f783d223234222066696c6c3d2275726c2823626729222f3e00000000000000006101e48201527f3c726563742077696474683d2233393822206865696768743d223339382220786101fc8201527f3d22312220793d2231222072783d223233222066696c6c3d226e6f6e6522207361021c8201527f74726f6b653d2272676261283235352c3235352c3235352c302e30382922207361023c820152703a3937b5b296bbb4b23a341e911891179f60791b61025c8201527f3c7465787420783d223230302220793d2237322220746578742d616e63686f7261026d8201527f3d226d6964646c652220666f6e742d66616d696c793d22496e7465722c73616e61028d8201527f732d73657269662220666f6e742d73697a653d223131222066696c6c3d2223636102ad8201527f376334643722206c65747465722d73706163696e673d2234223e46554e44464c6102cd8201527527ab902120a1a5a2a9102120a223a29e17ba32bc3a1f60511b6102ed8201527f3c636972636c652063783d22323030222063793d223136352220723d223532226103038201527f2066696c6c3d226e6f6e6522207374726f6b653d2275726c28236163632922206103238201527339ba3937b5b296bbb4b23a341e9118971a91179f60611b6103438201527f3c7465787420783d223230302220793d223135382220746578742d616e63686f6103578201525f516020611ff45f395f51905f5261037782018190527f6e732d73657269662220666f6e742d73697a653d223330222066696c6c3d22236103978301527531983198b333111f13119c9b1b981d9e17ba32bc3a1f60511b6103b78301527f3c7465787420783d223230302220793d223138302220746578742d616e63686f6103cd8301526103ed8201527f6e732d73657269662220666f6e742d73697a653d223130222066696c6c3d222361040d82015268346564656133223e2360b81b61042d8201528551909b8c96939593909282910161043688015e661e17ba32bc3a1f60c91b610436918701918201527f3c7465787420783d223230302220793d223235342220746578742d616e63686f61043d8201525f516020611ff45f395f51905f5261045d8201527f6e732d73657269662220666f6e742d73697a653d223137222066696c6c3d222361047d8201527f6461653266642220666f6e742d7765696768743d22363030223e00000000000061049d82015281519182906020016104b783015e01610436019060818201661e17ba32bc3a1f60c91b9052608882017f3c7465787420783d223230302220793d223238342220746578742d616e63686f905260a882015f516020611ff45f395f51905f52905260c882017f6e732d73657269662220666f6e742d73697a653d223133222066696c6c3d22239052730319bb19a321b911f21b7b73a3934b13aba32b2160651b60e883015251809260fc83015e01608101607b81016a1022aa241e17ba32bc3a1f60a91b9052608681017f3c7465787420783d223230302220793d223334382220746578742d616e63686f905260a681015f516020611ff45f395f51905f52905260c681017f6e732d73657269662220666f6e742d73697a653d223130222066696c6c3d2223905271343634353534223e43616d706169676e202360701b60e68201528151602081930160f883015e01607b01607d8101661e17ba32bc3a1f60c91b905260848101651e17b9bb339f60d11b905203607d0160121981018752600d01610aac9087611a43565b610ab590611bb2565b93805195610ac290611dd9565b9351610acd90611bb2565b90519151610ada90611bb2565b9251610ae590611bb2565b93604051968796602088017f7b226e616d65223a2246756e64466c6f77204261636b6572204261646765202390528051602081920160408a015e61088b60f21b6040918901918201527f226465736372697074696f6e223a2250726f6f66206f6620636f6e747269627560428201526703a34b7b7103a37960c51b60628201528151918290602001606a83015e016040016e081bdb88119d5b99119b1bddcb888b608a1b602a820152603981017f22696d616765223a22646174613a696d6167652f7376672b786d6c3b62617365905260598101620d8d0b60ea1b905281516020819301605c83015e01602a0161088b60f21b60328201526d2261747472696275746573223a5b60901b6034820152604281017f7b2274726169745f74797065223a2243616d706169676e204944222c2276616c9052643ab2911d1160d91b606282015281516020819301606783015e0160320162089f4b60ea1b6035820152603881017f7b2274726169745f74797065223a2243616d706169676e222c2276616c7565229052611d1160f11b605882015281516020819301605a83015e0160350162089f4b60ea1b6025820152602881017f7b2274726169745f74797065223a22416d6f756e74202877656929222c227661905265363ab2911d1160d11b604882015281516020819301604e83015e0160250162089f4b60ea1b6029820152602c81017f7b2274726169745f74797065223a224d696e746564204174222c2276616c7565905262111d1160e91b604c82015281516020819301604f83015e61227d60f01b9101604f810191909152615d7d60f01b605182015203603381018252610d539060530182611a43565b610d5c90611dd9565b6040518091602082017f646174613a6170706c69636174696f6e2f6a736f6e3b6261736536342c000000905280516020819201603d84015e8101603d81015f905203603d01601f1981018252610db29082611a43565b60405180916020825260208201610dc891611965565b0390f35b3461017457608036600319011261017457610de5611989565b50610dee61199f565b5060643567ffffffffffffffff8111610174573660238201121561017457610e20903690602481600401359101611b21565b50636e10574960e01b5f5260045ffd5b34610174576020366003190112610174576004355f52600960205260405f208054610e5d60018301611a65565b9160036002820154910154610e846040519485948552608060208601526080850190611965565b91604084015260608301520390f35b3461017457604036600319011261017457610eac611989565b60243590811515809203610174573315610f34576001600160a01b0316908115610f2157335f52600560205260405f20825f5260205260405f2060ff1981541660ff83161790556040519081527f17307eab39ab6107e8899845ad3d59bd9653f200f220920489ca2b5937696c3160203392a3005b50630b61174360e31b5f5260045260245ffd5b63a9fbf51f60e01b5f525f60045260245ffd5b34610174576020366003190112610174576001600160a01b03610f68611989565b165f52600a60205260405f20604051806020835491828152019081935f5260205f20905f5b818110610fe55750505081610fa3910382611a43565b604051918291602083019060208452518091526040830191905f5b818110610fcc575050500390f35b8251845285945060209384019390920191600101610fbe565b8254845260209093019260019283019201610f8d565b34610174575f366003190112610174576040515f60015461101b816119ef565b80845290600181169081156110b55750600114611057575b610dc88361104381850382611a43565b604051918291602083526020830190611965565b60015f9081527fb10e2d527612073b26eecdfd717e6a320cf44b4afac2b0732d9fcbe2b7fa0cf6939250905b80821061109b57509091508101602001611043611033565b919260018160209254838588010152019101909291611083565b60ff191660208086019190915291151560051b840190910191506110439050611033565b34610174575f366003190112610174576006546040516001600160a01b039091168152602090f35b346101745760803660031901126101745761111a611989565b60443560243567ffffffffffffffff8211610174573660238301121561017457816004013567ffffffffffffffff81116101745736602482850101116101745760085460643591906001600160a01b031680156115da5733036115cb576007545f1981146115b75760016111a8910194856007556040519261119b84611a27565b8584526024369201611b21565b60208201908152604082018381526060830191428352865f52600960205260405f209351845560018401905180519067ffffffffffffffff82116114ec576111f083546119ef565b601f8111611572575b50602090601f831160011461150b57600395949392915f9183611500575b50508160011b915f1990871b1c19161790555b516002840155519101556001600160a01b0384165f818152600a602052604090208054919291680100000000000000008110156114ec57600181018083558110156114d85785915f5260205f2001556020946040516112898782611a43565b5f815283156114c5575f8681526002885260409020546001600160a01b03169182151580611495575b855f526003895260405f2060018154019055875f526002895260405f20866bffffffffffffffffffffffff60a01b8254161790558786604051957fddf252ad1be2c89b69c2b068fc378daa952ba7f163c4a11628f55a4df523b3ef5f80a4611482573b61134f575b50507fc8f58e46e4bd0bf357a5b1f9591640389d323babc122183940fa10f1a31cf10d858592604051908152a4604051908152f35b9581806113878398979699630a85bd0160e11b83523360048401525f6024840152886044840152608060648401526084830190611965565b03815f8a5af15f9181611442575b506113ea5785853d156113e2573d906113ad82611b05565b916113bb6040519384611a43565b82523d5f8284013e5b815191826113df5783633250574960e11b5f5260045260245ffd5b01fd5b6060906113c4565b939492939192916001600160e01b03191663757a42ff60e11b0161142f577fc8f58e46e4bd0bf357a5b1f9591640389d323babc122183940fa10f1a31cf10d8561131a565b50633250574960e11b5f5260045260245ffd5b9091508581813d831161147b575b61145a8183611a43565b8101031261017457516001600160e01b031981168103610174579087611395565b503d611450565b6339e3563760e11b5f525f60045260245ffd5b5f88815260048a52604080822080546001600160a01b031916905585825260038b52902080545f190190556112b2565b633250574960e11b5f525f60045260245ffd5b634e487b7160e01b5f52603260045260245ffd5b634e487b7160e01b5f52604160045260245ffd5b015190508b80611217565b90601f19831691845f52815f20925f5b81811061155a57509160019391856003999897969410611543575b505050811b01905561122a565b01515f1983891b60f8161c191690558b8080611536565b9293602060018192878601518155019501930161151b565b835f5260205f20601f840160051c810191602085106115ad575b601f0160051c01905b8181106115a257506111f9565b5f8155600101611595565b909150819061158c565b634e487b7160e01b5f52601160045260245ffd5b630a06cf7960e01b5f5260045ffd5b634eca2d6760e01b5f5260045ffd5b34610174575f36600319011261017457611601611b8b565b600680546001600160a01b031981169091555f906001600160a01b03167f8be0079c531659141344cd1fd0a4f28419497f9722a3daafe3b4186f6b6457e08280a3005b34610174576020366003190112610174576001600160a01b03611665611989565b168015611682575f526003602052602060405f2054604051908152f35b6322718ad960e21b5f525f60045260245ffd5b346101745760203660031901126101745760206116b3600435611b57565b6040516001600160a01b039091168152f35b34610174576116d3366119b5565b5050505f6040516116e5602082611a43565b52636e10574960e01b5f5260045ffd5b3461017457611703366119b5565b505050636e10574960e01b5f5260045ffd5b34610174575f366003190112610174576020600754604051908152f35b346101745760403660031901126101745761174b611989565b60243561175781611b57565b33151580611809575b806117dc575b6117c95781906001600160a01b0384811691167f8c5be1e5ebec7d5bd14f71427d1e84f3dd0314c0f7b2291e5b200ac8c7c3b9255f80a45f90815260046020526040902080546001600160a01b0319166001600160a01b03909216919091179055005b63a9fbf51f60e01b5f523360045260245ffd5b506001600160a01b0381165f90815260056020908152604080832033845290915290205460ff1615611766565b506001600160a01b038116331415611760565b346101745760203660031901126101745760043561183981611b57565b505f526004602052602060018060a01b0360405f205416604051908152f35b34610174575f366003190112610174576040515f5f54611877816119ef565b80845290600181169081156110b5575060011461189e57610dc88361104381850382611a43565b5f8080527f290decd9548b62a8d60345a988386fc84ba6bc95484008f6362f93160ef3e563939250905b8082106118e057509091508101602001611043611033565b9192600181602092548385880101520191019092916118c8565b34610174576020366003190112610174576004359063ffffffff60e01b8216809203610174576020916380ac58cd60e01b8114908115611954575b8115611943575b5015158152f35b6301ffc9a760e01b1490508361193c565b635b5e139f60e01b81149150611935565b805180835260209291819084018484015e5f828201840152601f01601f1916010190565b600435906001600160a01b038216820361017457565b602435906001600160a01b038216820361017457565b6060906003190112610174576004356001600160a01b038116810361017457906024356001600160a01b0381168103610174579060443590565b90600182811c92168015611a1d575b6020831014611a0957565b634e487b7160e01b5f52602260045260245ffd5b91607f16916119fe565b6080810190811067ffffffffffffffff8211176114ec57604052565b90601f8019910116810190811067ffffffffffffffff8211176114ec57604052565b9060405191825f825492611a78846119ef565b8084529360018116908115611ae35750600114611a9f575b50611a9d92500383611a43565b565b90505f9291925260205f20905f915b818310611ac7575050906020611a9d928201015f611a90565b6020919350806001915483858901015201910190918492611aae565b905060209250611a9d94915060ff191682840152151560051b8201015f611a90565b67ffffffffffffffff81116114ec57601f01601f191660200190565b929192611b2d82611b05565b91611b3b6040519384611a43565b829481845281830111610174578281602093845f960137010152565b5f818152600260205260409020546001600160a01b0316908115611b79575090565b637e27328960e01b5f5260045260245ffd5b6006546001600160a01b03163303611b9f57565b63118cdaa760e01b5f523360045260245ffd5b805f9172184f03e93ff9f4daa797ed6e38ed64bf6a1f0160401b821015611cfc575b806d04ee2d6d415b85acef8100000000600a921015611ce1575b662386f26fc10000811015611ccd575b6305f5e100811015611cbc575b612710811015611cad575b6064811015611c9f575b1015611c94575b600a60216001840193611c3985611b05565b94611c476040519687611a43565b808652611c56601f1991611b05565b013660208701378401015b5f1901916f181899199a1a9b1b9c1cb0b131b232b360811b8282061a8353048015611c8f57600a9091611c61565b505090565b600190910190611c27565b606460029104930192611c20565b61271060049104930192611c16565b6305f5e10060089104930192611c0b565b662386f26fc1000060109104930192611bfe565b6d04ee2d6d415b85acef810000000060209104930192611bee565b506040915072184f03e93ff9f4daa797ed6e38ed64bf6a1f0160401b8104611bd4565b9081518110156114d8570160200190565b90601a82511115611a9d57611d45601a611b05565b611d526040519182611a43565b601a8152601f19611d63601a611b05565b013660208301375f5b60178110611dae57509091508051601710156114d857602e60378201538051601810156114d857602e60388201538051601910156114d857602e603982015390565b6001906001600160f81b0319611dc48287611d1f565b51165f1a611dd28285611d1f565b5301611d6c565b90815115611ef8578151600281018091116115b75760039004600281901b91906001600160fe1b038116036115b757604051917f4142434445464748494a4b4c4d4e4f505152535455565758595a616263646566601f527f6768696a6b6c6d6e6f707172737475767778797a303132333435363738392b2f603f52602083018480518101602081018051915f82525b808910611ebc5750602095969750906003929152510680600114611ea757600214611e9a575b50808452830101604052565b603d905f1901535f611e8e565b50603d90815f1982015360011901535f611e8e565b939760036004910198603f8a51818160121c165183538181600c1c16516001840153818160061c16516002840153165160038201530193611e68565b9050604051611f08602082611a43565b5f815290565b600a8110611fb25760648110611f72576103e88110611f3357611f3090611bb2565b90565b611f306021611f43602093611bb2565b604051938491600360fc1b828401528051918291018484015e81015f838201520301601f198101835282611a43565b611f306022611f82602093611bb2565b60405193849161030360f41b828401528051918291018484015e81015f838201520301601f198101835282611a43565b611f306023611fc2602093611bb2565b6040519384916203030360ec1b828401528051918291018484015e81015f838201520301601f198101835282611a4356fe723d226d6964646c652220666f6e742d66616d696c793d22496e7465722c7361a2646970667358221220b99368bb9e453bd88f06d15b896b920ee7b63c7da950979cee7f168a3e04202264736f6c634300081c0033",
  "linkReferences": {},
  "deployedLinkReferences": {}
}