{"contracts/FundFlow.sol":{"CrowdfundingEscrow":{"abi":[{"inputs":[{"internalType":"address","name":"initialOwner","type":"address"},{"internalType":"uint256","name":"_platformFeePercent","type":"uint256"}],"stateMutability":"nonpayable","type":"constructor"},{"inputs":[],"name":"AlreadyRefunded","type":"error"},{"inputs":[],"name":"AlreadyVoted","type":"error"},{"inputs":[],"name":"CampaignNotActive","type":"error"},{"inputs":[],"name":"CampaignNotFailed","type":"error"},{"inputs":[],"name":"CampaignNotFound","type":"error"},{"inputs":[],"name":"CampaignNotSuccessful","type":"error"},{"inputs":[],"name":"DeadlineNotPassed","type":"error"},{"inputs":[],"name":"DeadlinePassed","type":"error"},{"inputs":[],"name":"EmptyDescription","type":"error"},{"inputs":[],"name":"EmptyTitle","type":"error"},{"inputs":[],"name":"EnforcedPause","type":"error"},{"inputs":[],"name":"ExpectedPause","type":"error"},{"inputs":[],"name":"InvalidDuration","type":"error"},{"inputs":[],"name":"InvalidGoal","type":"error"},{"inputs":[],"name":"InvalidMilestoneAmount","type":"error"},{"inputs":[],"name":"MilestoneAlreadyCompleted","type":"error"},{"inputs":[],"name":"MilestoneAlreadyRequested","type":"error"},{"inputs":[],"name":"MilestoneAmountMismatch","type":"error"},{"inputs":[],"name":"MilestoneNotFound","type":"error"},{"inputs":[],"name":"MilestoneNotRequested","type":"error"},{"inputs":[],"name":"NoMilestonesProvided","type":"error"},{"inputs":[],"name":"NotContributor","type":"error"},{"inputs":[],"name":"NotCreator","type":"error"},{"inputs":[{"internalType":"address","name":"owner","type":"address"}],"name":"OwnableInvalidOwner","type":"error"},{"inputs":[{"internalType":"address","name":"account","type":"address"}],"name":"OwnableUnauthorizedAccount","type":"error"},{"inputs":[],"name":"ReentrancyGuardReentrantCall","type":"error"},{"inputs":[],"name":"TooManyMilestones","type":"error"},{"inputs":[],"name":"TransferFailed","type":"error"},{"inputs":[],"name":"VotingPeriodActive","type":"error"},{"inputs":[],"name":"VotingPeriodEnded","type":"error"},{"inputs":[],"name":"ZeroContribution","type":"error"},{"anonymous":false,"inputs":[{"indexed":true,"internalType":"address","name":"badgeContract","type":"address"}],"name":"BackerBadgeContractSet","type":"event"},{"anonymous":false,"inputs":[{"indexed":true,"internalType":"uint256","name":"campaignId","type":"uint256"}],"name":"CampaignCompleted","type":"event"},{"anonymous":false,"inputs":[{"indexed":true,"internalType":"uint256","name":"campaignId","type":"uint256"},{"indexed":true,"internalType":"address","name":"creator","type":"address"},{"indexed":false,"internalType":"string","name":"title","type":"string"},{"indexed":false,"internalType":"uint256","name":"goal","type":"uint256"},{"indexed":false,"internalType":"uint256","name":"deadline","type":"uint256"},{"indexed":false,"internalType":"uint256","name":"milestoneCount","type":"uint256"}],"name":"CampaignCreated","type":"event"},{"anonymous":false,"inputs":[{"indexed":true,"internalType":"uint256","name":"campaignId","type":"uint256"},{"indexed":false,"internalType":"enum CrowdfundingEscrow.CampaignStatus","name":"status","type":"uint8"}],"name":"CampaignStatusUpdated","type":"event"},{"anonymous":false,"inputs":[{"indexed":true,"internalType":"uint256","name":"campaignId","type":"uint256"},{"indexed":true,"internalType":"address","name":"contributor","type":"address"},{"indexed":false,"internalType":"uint256","name":"amount","type":"uint256"},{"indexed":false,"internalType":"uint256","name":"totalRaised","type":"uint256"},{"indexed":false,"internalType":"uint256","name":"badgeTokenId","type":"uint256"}],"name":"ContributionReceived","type":"event"},{"anonymous":false,"inputs":[{"indexed":true,"internalType":"uint256","name":"campaignId","type":"uint256"},{"indexed":true,"internalType":"address","name":"creator","type":"address"},{"indexed":false,"internalType":"uint256","name":"amount","type":"uint256"}],"name":"FundsReleased","type":"event"},{"anonymous":false,"inputs":[{"indexed":true,"internalType":"uint256","name":"campaignId","type":"uint256"},{"indexed":true,"internalType":"uint256","name":"milestoneIndex","type":"uint256"},{"indexed":false,"internalType":"string","name":"title","type":"string"},{"indexed":false,"internalType":"uint256","name":"amount","type":"uint256"}],"name":"MilestoneApproved","type":"event"},{"anonymous":false,"inputs":[{"indexed":true,"internalType":"uint256","name":"campaignId","type":"uint256"},{"indexed":true,"internalType":"uint256","name":"milestoneIndex","type":"uint256"},{"indexed":false,"internalType":"string","name":"title","type":"string"}],"name":"MilestoneRejected","type":"event"},{"anonymous":false,"inputs":[{"indexed":true,"internalType":"uint256","name":"campaignId","type":"uint256"},{"indexed":true,"internalType":"uint256","name":"milestoneIndex","type":"uint256"},{"indexed":false,"internalType":"string","name":"title","type":"string"},{"indexed":false,"internalType":"uint256","name":"amount","type":"uint256"},{"indexed":false,"internalType":"uint256","name":"votingDeadline","type":"uint256"}],"name":"MilestoneRequested","type":"event"},{"anonymous":false,"inputs":[{"indexed":true,"internalType":"address","name":"previousOwner","type":"address"},{"indexed":true,"internalType":"address","name":"newOwner","type":"address"}],"name":"OwnershipTransferred","type":"event"},{"anonymous":false,"inputs":[{"indexed":false,"internalType":"address","name":"account","type":"address"}],"name":"Paused","type":"event"},{"anonymous":false,"inputs":[{"indexed":true,"internalType":"address","name":"to","type":"address"},{"indexed":false,"internalType":"uint256","name":"amount","type":"uint256"}],"name":"PlatformFeesWithdrawn","type":"event"},{"anonymous":false,"inputs":[{"indexed":true,"internalType":"uint256","name":"campaignId","type":"uint256"},{"indexed":true,"internalType":"address","name":"contributor","type":"address"},{"indexed":false,"internalType":"uint256","name":"amount","type":"uint256"}],"name":"RefundClaimed","type":"event"},{"anonymous":false,"inputs":[{"indexed":false,"internalType":"address","name":"account","type":"address"}],"name":"Unpaused","type":"event"},{"anonymous":false,"inputs":[{"indexed":true,"internalType":"uint256","name":"campaignId","type":"uint256"},{"indexed":true,"internalType":"uint256","name":"milestoneIndex","type":"uint256"},{"indexed":true,"internalType":"address","name":"voter","type":"address"},{"indexed":false,"internalType":"enum CrowdfundingEscrow.VoteOption","name":"vote","type":"uint8"},{"indexed":false,"internalType":"uint256","name":"approvalVotes","type":"uint256"},{"indexed":false,"internalType":"uint256","name":"rejectionVotes","type":"uint256"}],"name":"VoteCast","type":"event"},{"inputs":[],"name":"MAX_DURATION","outputs":[{"internalType":"uint256","name":"","type":"uint256"}],"stateMutability":"view","type":"function"},{"inputs":[],"name":"MAX_MILESTONES","outputs":[{"internalType":"uint256","name":"","type":"uint256"}],"stateMutability":"view","type":"function"},{"inputs":[],"name":"MIN_DURATION","outputs":[{"internalType":"uint256","name":"","type":"uint256"}],"stateMutability":"view","type":"function"},{"inputs":[],"name":"VOTING_PERIOD","outputs":[{"internalType":"uint256","name":"","type":"uint256"}],"stateMutability":"view","type":"function"},{"inputs":[],"name":"backerBadgeContract","outputs":[{"internalType":"address","name":"","type":"address"}],"stateMutability":"view","type":"function"},{"inputs":[{"internalType":"uint256","name":"","type":"uint256"},{"internalType":"address","name":"","type":"address"}],"name":"campaignContributions","outputs":[{"internalType":"uint256","name":"","type":"uint256"}],"stateMutability":"view","type":"function"},{"inputs":[],"name":"campaignCount","outputs":[{"internalType":"uint256","name":"","type":"uint256"}],"stateMutability":"view","type":"function"},{"inputs":[{"internalType":"uint256","name":"","type":"uint256"},{"internalType":"uint256","name":"","type":"uint256"}],"name":"campaignMilestones","outputs":[{"internalType":"string","name":"title","type":"string"},{"internalType":"uint256","name":"amount","type":"uint256"},{"internalType":"bool","name":"completed","type":"bool"},{"internalType":"bool","name":"approved","type":"bool"},{"internalType":"bool","name":"requested","type":"bool"},{"internalType":"uint256","name":"votingDeadline","type":"uint256"},{"internalType":"uint256","name":"approvalVotes","type":"uint256"},{"internalType":"uint256","name":"rejectionVotes","type":"uint256"}],"stateMutability":"view","type":"function"},{"inputs":[{"internalType":"uint256","name":"","type":"uint256"}],"name":"campaigns","outputs":[{"internalType":"address","name":"creator","type":"address"},{"internalType":"string","name":"title","type":"string"},{"internalType":"string","name":"description","type":"string"},{"internalType":"uint256","name":"goal","type":"uint256"},{"internalType":"uint256","name":"raisedAmount","type":"uint256"},{"internalType":"uint256","name":"deadline","type":"uint256"},{"internalType":"enum CrowdfundingEscrow.CampaignStatus","name":"status","type":"uint8"},{"internalType":"uint256","name":"contributorCount","type":"uint256"},{"internalType":"uint256","name":"currentMilestoneIndex","type":"uint256"},{"internalType":"bool","name":"exists","type":"bool"}],"stateMutability":"view","type":"function"},{"inputs":[{"internalType":"uint256","name":"campaignId","type":"uint256"}],"name":"claimRefund","outputs":[],"stateMutability":"nonpayable","type":"function"},{"inputs":[{"internalType":"uint256","name":"campaignId","type":"uint256"}],"name":"contribute","outputs":[],"stateMutability":"payable","type":"function"},{"inputs":[{"internalType":"string","name":"title","type":"string"},{"internalType":"string","name":"description","type":"string"},{"internalType":"uint256","name":"goal","type":"uint256"},{"internalType":"uint256","name":"duration","type":"uint256"},{"internalType":"string[]","name":"milestoneTitles","type":"string[]"},{"internalType":"uint256[]","name":"milestoneAmounts","type":"uint256[]"}],"name":"createCampaign","outputs":[{"internalType":"uint256","name":"campaignId","type":"uint256"}],"stateMutability":"nonpayable","type":"function"},{"inputs":[{"internalType":"uint256","name":"campaignId","type":"uint256"},{"internalType":"uint256","name":"milestoneIndex","type":"uint256"}],"name":"finalizeMilestone","outputs":[],"stateMutability":"nonpayable","type":"function"},{"inputs":[{"internalType":"uint256","name":"campaignId","type":"uint256"}],"name":"getCampaign","outputs":[{"components":[{"internalType":"address","name":"creator","type":"address"},{"internalType":"string","name":"title","type":"string"},{"internalType":"string","name":"description","type":"string"},{"internalType":"uint256","name":"goal","type":"uint256"},{"internalType":"uint256","name":"raisedAmount","type":"uint256"},{"internalType":"uint256","name":"deadline","type":"uint256"},{"internalType":"enum CrowdfundingEscrow.CampaignStatus","name":"status","type":"uint8"},{"internalType":"uint256","name":"contributorCount","type":"uint256"},{"internalType":"uint256","name":"currentMilestoneIndex","type":"uint256"},{"internalType":"bool","name":"exists","type":"bool"}],"internalType":"struct CrowdfundingEscrow.Campaign","name":"","type":"tuple"}],"stateMutability":"view","type":"function"},{"inputs":[{"internalType":"uint256","name":"campaignId","type":"uint256"},{"internalType":"address","name":"contributor","type":"address"}],"name":"getContribution","outputs":[{"internalType":"uint256","name":"","type":"uint256"}],"stateMutability":"view","type":"function"},{"inputs":[{"internalType":"uint256","name":"campaignId","type":"uint256"}],"name":"getContributors","outputs":[{"internalType":"address[]","name":"","type":"address[]"}],"stateMutability":"view","type":"function"},{"inputs":[{"internalType":"uint256","name":"campaignId","type":"uint256"},{"internalType":"uint256","name":"milestoneIndex","type":"uint256"}],"name":"getMilestone","outputs":[{"components":[{"internalType":"string","name":"title","type":"string"},{"internalType":"uint256","name":"amount","type":"uint256"},{"internalType":"bool","name":"completed","type":"bool"},{"internalType":"bool","name":"approved","type":"bool"},{"internalType":"bool","name":"requested","type":"bool"},{"internalType":"uint256","name":"votingDeadline","type":"uint256"},{"internalType":"uint256","name":"approvalVotes","type":"uint256"},{"internalType":"uint256","name":"rejectionVotes","type":"uint256"}],"internalType":"struct CrowdfundingEscrow.Milestone","name":"","type":"tuple"}],"stateMutability":"view","type":"function"},{"inputs":[{"internalType":"uint256","name":"campaignId","type":"uint256"}],"name":"getMilestones","outputs":[{"components":[{"internalType":"string","name":"title","type":"string"},{"internalType":"uint256","name":"amount","type":"uint256"},{"internalType":"bool","name":"completed","type":"bool"},{"internalType":"bool","name":"approved","type":"bool"},{"internalType":"bool","name":"requested","type":"bool"},{"internalType":"uint256","name":"votingDeadline","type":"uint256"},{"internalType":"uint256","name":"approvalVotes","type":"uint256"},{"internalType":"uint256","name":"rejectionVotes","type":"uint256"}],"internalType":"struct CrowdfundingEscrow.Milestone[]","name":"","type":"tuple[]"}],"stateMutability":"view","type":"function"},{"inputs":[{"internalType":"uint256","name":"campaignId","type":"uint256"},{"internalType":"uint256","name":"milestoneIndex","type":"uint256"},{"internalType":"address","name":"user","type":"address"}],"name":"getVoteStatus","outputs":[{"internalType":"bool","name":"voted","type":"bool"},{"internalType":"uint256","name":"approvals","type":"uint256"},{"internalType":"uint256","name":"rejections","type":"uint256"}],"stateMutability":"view","type":"function"},{"inputs":[{"internalType":"uint256","name":"","type":"uint256"},{"internalType":"address","name":"","type":"address"}],"name":"hasRefunded","outputs":[{"internalType":"bool","name":"","type":"bool"}],"stateMutability":"view","type":"function"},{"inputs":[{"internalType":"uint256","name":"","type":"uint256"},{"internalType":"uint256","name":"","type":"uint256"},{"internalType":"address","name":"","type":"address"}],"name":"hasVoted","outputs":[{"internalType":"bool","name":"","type":"bool"}],"stateMutability":"view","type":"function"},{"inputs":[{"internalType":"uint256","name":"campaignId","type":"uint256"},{"internalType":"address","name":"user","type":"address"}],"name":"isEligibleForRefund","outputs":[{"internalType":"bool","name":"","type":"bool"}],"stateMutability":"view","type":"function"},{"inputs":[],"name":"owner","outputs":[{"internalType":"address","name":"","type":"address"}],"stateMutability":"view","type":"function"},{"inputs":[],"name":"pause","outputs":[],"stateMutability":"nonpayable","type":"function"},{"inputs":[],"name":"paused","outputs":[{"internalType":"bool","name":"","type":"bool"}],"stateMutability":"view","type":"function"},{"inputs":[],"name":"platformFeePercent","outputs":[{"internalType":"uint256","name":"","type":"uint256"}],"stateMutability":"view","type":"function"},{"inputs":[],"name":"renounceOwnership","outputs":[],"stateMutability":"nonpayable","type":"function"},{"inputs":[{"internalType":"uint256","name":"campaignId","type":"uint256"},{"internalType":"uint256","name":"milestoneIndex","type":"uint256"}],"name":"requestMilestoneRelease","outputs":[],"stateMutability":"nonpayable","type":"function"},{"inputs":[{"internalType":"address","name":"_badge","type":"address"}],"name":"setBackerBadgeContract","outputs":[],"stateMutability":"nonpayable","type":"function"},{"inputs":[],"name":"totalPlatformFees","outputs":[{"internalType":"uint256","name":"","type":"uint256"}],"stateMutability":"view","type":"function"},{"inputs":[{"internalType":"address","name":"newOwner","type":"address"}],"name":"transferOwnership","outputs":[],"stateMutability":"nonpayable","type":"function"},{"inputs":[],"name":"unpause","outputs":[],"stateMutability":"nonpayable","type":"function"},{"inputs":[{"internalType":"uint256","name":"campaignId","type":"uint256"}],"name":"updateCampaignStatus","outputs":[],"stateMutability":"nonpayable","type":"function"},{"inputs":[{"internalType":"uint256","name":"campaignId","type":"uint256"},{"internalType":"uint256","name":"milestoneIndex","type":"uint256"},{"internalType":"enum CrowdfundingEscrow.VoteOption","name":"voteOption","type":"uint8"}],"name":"vote","outputs":[],"stateMutability":"nonpayable","type":"function"},{"inputs":[{"internalType":"address","name":"to","type":"address"}],"name":"withdrawPlatformFees","outputs":[],"stateMutability":"nonpayable","type":"function"},{"stateMutability":"payable","type":"receive"}],"evm":{"bytecode":{"linkReferences":{},"object":"60a0346100f957601f61261338819003918201601f19168301916001600160401b038311848410176100fd5780849260409485528339810103126100f95780516001600160a01b03811691908290036100f9576020015160017f9b779b17422d0df92223018b32b4d1fa46e071723d6817e2486d003becc55f005581156100e6575f80546001600160a01b031981168417825560405193916001600160a01b03909116907f8be0079c531659141344cd1fd0a4f28419497f9722a3daafe3b4186f6b6457e09080a3608052612501908161011282396080518181816104220152610ed00152f35b631e4fbdf760e01b5f525f60045260245ffd5b5f80fd5b634e487b7160e01b5f52604160045260245ffdfe6080604052600436101561001a575b3615610018575f80fd5b005b5f3560e01c8063091e338514611ecf5780630d39a1d314611e89578063141961bc14611db357806322c59958146102c75780633178492a14611d0957806337c6bcaf146115655780633c1ab00f146114955780633f4ba83a1461142957806342c549c0146113305780634c05abeb146113155780635598f8cc1461116357806359b272d01461113b5780635b7baf6414610feb5780635c975abb14610fc7578063715018a614610f705780637274e30d14610f535780638456cb5914610ef35780638c639a8514610eb95780638da5cb5b14610e925780638ed9895c14610dfa578063afc1d28914610bd2578063b1610d7e14610bb5578063b1724b4614610b98578063b41d30f214610b25578063b6a6d17714610b08578063b808a84914610a29578063baa93e03146108e2578063bbb2eab914610708578063c1cbbca7146103b5578063c713b04c14610371578063c9de59ef14610328578063d3631fa51461030b578063e081dbf9146102c7578063ec3889b5146102285763f2fde38b0361000e5734610224576020366003190112610224576101b8611f35565b6101c0612430565b6001600160a01b03168015610211575f80546001600160a01b03198116831782556001600160a01b0316907f8be0079c531659141344cd1fd0a4f28419497f9722a3daafe3b4186f6b6457e09080a3005b631e4fbdf760e01b5f525f60045260245ffd5b5f80fd5b3461022457602036600319011261022457610241611f35565b610249612430565b610251612473565b600254905f6002555f80808085855af16102696122dd565b50156102b8576040519182526001600160a01b0316907ffc7ad544ff6a06d6499925723d25b6fe70457a42939995b1d3d6f560fe33633390602090a260015f5160206124ac5f395f51905f5255005b6312171d8360e31b5f5260045ffd5b34610224576040366003190112610224576102e0611f4b565b6004355f52600660205260405f209060018060a01b03165f52602052602060405f2054604051908152f35b34610224575f366003190112610224576020600254604051908152f35b3461022457604036600319011261022457610341611f4b565b6004355f52600760205260405f209060018060a01b03165f52602052602060ff60405f2054166040519015158152f35b3461022457602036600319011261022457600435805f52600460205260ff600960405f20015416156103a6576100189061238d565b6337f9b70b60e11b5f5260045ffd5b6020366003190112610224576004356103cc612456565b6103d4612473565b805f52600460205260ff600960405f20015416156103a657805f52600460205260405f20906006820160ff81541660048110156106f4576106e557600583015442116106d65734156106c7577f000000000000000000000000000000000000000000000000000000000000000080340290348204036106b357612710900490813403913483116106b35761046a906002546121ed565b6002555f838152600a6020908152604080832033845290915290205460ff161561060e575b825f52600660205260405f2060018060a01b0333165f5260205260405f206104b88382546121ed565b90556104c9600485019283546121ed565b808355600385015411156105d1575b506003545f93906001600160a01b03168061053c575b5050549160405192348452602084015260408301527ff0d39bba72b097aac68d326a113c14384101f3ccf433a038c5d3aead41befed360603393a360015f5160206124ac5f395f51905f5255005b6105776020915f93604051948580948193632328301b60e21b83523360048401528a602484015260806044840152600160848401910161230c565b34606483015203925af15f918161059d575b50610595575b806104ee565b92508361058f565b9091506020813d6020116105c9575b816105b960209383611ffb565b8101031261022457519085610589565b3d91506105ac565b600160ff19825416179055817f1289cf89aaaed53d6590c1b7996ba434edb31dcbd322d0b88ff0c02f64bbdeef602060405160018152a2836104d8565b5f838152600a602090815260408083203384528252808320805460ff1916600117905585835260099091529020805490600160401b82101561069f576001820180825582101561068b575f5260205f2001336bffffffffffffffffffffffff60a01b8254161790556007840161068481546121fa565b905561048f565b634e487b7160e01b5f52603260045260245ffd5b634e487b7160e01b5f52604160045260245ffd5b634e487b7160e01b5f52601160045260245ffd5b631570544960e31b5f5260045ffd5b63387b2e5560e11b5f5260045ffd5b63219a945b60e11b5f5260045ffd5b634e487b7160e01b5f52602160045260245ffd5b3461022457606036600319011261022457604435602435600435600283101561022457610733612456565b805f52600460205260ff600960405f20015416156103a6575f818152600a6020908152604080832033845290915290205460ff16156108d357805f52600460205260ff600660405f2001541660048110156106f4576001036108c457805f5260056020526107a48260405f20612103565b50600281015460ff8160101c16156108b65760ff166108a75760038101544211610898575f828152600860209081526040808320868452825280832033845290915290205460ff16610889575f82815260086020908152604080832086845282528083203384529091529020805460ff1916600117905583610874576004810161082e81546121fa565b90555b6005600482015491015490604051948552602085015260408401527f1e5c23060a7e1db9c7f7fac56330926c23b3568a45a2ccd2702b989afa0f8dd260603394a4005b6005810161088281546121fa565b9055610831565b637c9a1cf960e01b5f5260045ffd5b63370ec37160e21b5f5260045ffd5b634cf723ed60e01b5f5260045ffd5b62ec00a560e01b5f5260045ffd5b630f7fe27160e01b5f5260045ffd5b63d764187d60e01b5f5260045ffd5b34610224576108f0366120ed565b906108f9612456565b805f52600460205260ff600960405f20015416156103a6575f818152600460205260409020546001600160a01b03163303610a1a57805f52600460205260405f2060ff60068201541660048110156106f4576001036108c457600801548203610a0b57805f5260056020526109718260405f20612103565b5060028101805460ff8160101c166109fc5760ff81166108a757620100009062ff000019161790556203f48042018042116106b35781816109ec9260037fdb43cb42b160b2883ea1fd6c0e09292ae202bbb914108e4a6c1351926af60a7195015560018201549060405193849360608552606085019061230c565b91602084015260408301520390a3005b634c03c44360e11b5f5260045ffd5b630f10172360e11b5f5260045ffd5b6393687c0b60e01b5f5260045ffd5b3461022457604036600319011261022457600435610a45611f4b565b90805f52600460205260ff600660405f2001541660048110156106f4576002149081610adc575b81610aaf575b81610a85575b6020826040519015158152f35b90505f52600660205260405f209060018060a01b03165f52602052602060405f2054151582610a78565b5f8181526007602090815260408083206001600160a01b038716845290915290205460ff16159150610a72565b5f818152600a602090815260408083206001600160a01b038716845290915290205460ff169150610a6c565b34610224575f366003190112610224576020604051620151808152f35b34610224576060610b3536611f61565b90825f526005602052610b4b8160405f20612103565b50925f52600860205260405f20905f5260205260405f209060018060a01b03165f5260205260ff60405f205416906005600482015491015490604051921515835260208301526040820152f35b34610224575f3660031901126102245760206040516276a7008152f35b34610224575f3660031901126102245760206040516203f4808152f35b3461022457610be0366120ed565b90610be9612456565b610bf1612473565b805f52600460205260ff600960405f20015416156103a657805f52600460205260405f20600681019260ff84541660048110156106f4576001036108c457825f526005602052610c448160405f20612103565b5060028101805460ff8160101c16156108b65760ff81166108a7576003830154421115610deb57600785015460011c600160ff1983161783556004840154115f14610da45785927fffe56bf760f6d13072fce783b476e75aa4fec7f9319bd00fd896ad53bd32584892610101610cfb9361ffff191617905560018101549760088701610cd081546121fa565b809155855f52600560205260405f205414610d6e575b5060405191829160408352604083019061230c565b8860208301520390a35f8080808660018060a01b038654165af1610d1d6122dd565b50156102b857546040519283526001600160a01b0316917f6e3c6096795c8298a218b2cfb8bde42726ff7c9a3d27b4d3ba41ab7f74feb5fb90602090a35b60015f5160206124ac5f395f51905f5255005b805460ff19166003179055837fbdef6a2e3aa892961a2dab48272f72f2bc1c7121eb1c0ed7e4a58e081c1e4be05f80a288610ce6565b5050610de39194507f2632a738857d774f3179abee0fa205787aea133c8f6d4cbfe4e605028d3e8230925060405191829160208352602083019061230c565b0390a3610d5b565b6339b1d76f60e01b5f5260045ffd5b3461022457610e08366120ed565b5f60e0604051610e1781611fdf565b606081528260208201528260408201528260608201528260808201528260a08201528260c08201520152815f52600460205260ff600960405f20015416156103a657610e74610e7a91610e8e935f52600560205260405f20612103565b50612271565b604051918291602083526020830190612179565b0390f35b34610224575f366003190112610224575f546040516001600160a01b039091168152602090f35b34610224575f3660031901126102245760206040517f00000000000000000000000000000000000000000000000000000000000000008152f35b34610224575f36600319011261022457610f0b612430565b610f13612456565b5f805460ff60a01b1916600160a01b1790556040513381527f62e78cea01bee320cd4e420270b5ea74000d11b0c9f74754ebdbfc544b05a25890602090a1005b34610224575f366003190112610224576020600154604051908152f35b34610224575f36600319011261022457610f88612430565b5f80546001600160a01b0319811682556001600160a01b03167f8be0079c531659141344cd1fd0a4f28419497f9722a3daafe3b4186f6b6457e08280a3005b34610224575f36600319011261022457602060ff5f5460a01c166040519015158152f35b3461022457602036600319011261022457600435611007612473565b805f52600460205260ff600960405f20015416156103a6575f818152600a6020908152604080832033845290915290205460ff16156108d357805f52600460205260ff600660405f2001541660048110156106f45760020361112c575f81815260076020908152604080832033845290915290205460ff1661111d575f818152600660209081526040808320338085528184528285208054878752600786528487208388528652938620805460ff191660011790559190935283905592919081908190819086905af16110d86122dd565b50156102b8576040519182527ff3f402280ef0a7905e124aa621b65eaeb2725c343e8b36d398ed78c29daf285c60203393a360015f5160206124ac5f395f51905f5255005b63542f378d60e11b5f5260045ffd5b630eeb982f60e01b5f5260045ffd5b34610224575f366003190112610224576003546040516001600160a01b039091168152602090f35b34610224576020366003190112610224576004355f61012060405161118781611fc3565b82815260606020820152606060408201528260608201528260808201528260a08201528260c08201528260e0820152826101008201520152805f52600460205260ff600960405f20015416156103a6575f52600460205260405f20604051906111ef82611fc3565b80546001600160a01b031682526112086001820161201c565b906020830191825261121c6002820161201c565b92604081019384526003820154916060820192835260048101549460808301958652600582015460a0840190815260ff6006840154169060c085019060048310156106f4576040986112fa9383526112dc60078701549560e089019687526112c960ff600960088b01549a6101008d019b8c520154169961012081019a15158b526101408e519e8f9e8f936020855260018060a01b039051166020850152519201526101608d01906120bc565b90518b8203601f190160608d01526120bc565b975160808a01525160a08901525160c08801525160e08701906120e0565b51610100850152516101208401525115156101408301520390f35b34610224575f366003190112610224576020604051600a8152f35b3461022457602036600319011261022457600435805f52600460205260ff600960405f20015416156103a6575f52600560205260405f208054906001600160401b03821161069f576040519161138c60208260051b0184611ffb565b8083526020830180925f5260205f205f915b83831061140b57848660405191829160208301906020845251809152604083019060408160051b85010192915f905b8282106113dc57505050500390f35b919360019193955060206113fb8192603f198a82030186528851612179565b96019201920185949391926113cd565b6006602060019261141b85612271565b81520192019201919061139e565b34610224575f36600319011261022457611441612430565b5f5460ff8160a01c16156114865760ff60a01b19165f556040513381527f5db9ee0a495bf2e6ff9c91a7834c1ba4fdd244a5e8aa4e537bd38aeae4b073aa90602090a1005b638dfc202b60e01b5f5260045ffd5b3461022457602036600319011261022457600435805f52600460205260ff600960405f20015416156103a6575f52600960205260405f20604051806020835491828152019081935f5260205f20905f5b81811061154657505050816114fb910382611ffb565b604051918291602083019060208452518091526040830191905f5b818110611524575050500390f35b82516001600160a01b0316845285945060209384019390920191600101611516565b82546001600160a01b03168452602090930192600192830192016114e5565b346102245760c0366003190112610224576004356001600160401b0381116102245761159590369060040161211c565b906024356001600160401b038111610224576115b590369060040161211c565b90916044356064356084356001600160401b038111610224576115dc903690600401612149565b96909360a4356001600160401b038111610224576115fe903690600401612149565b989096611609612456565b8315611cfa578015611ceb578515611cdc576201518085108015611cd0575b611cc1578115611cb257600a8211611ca357898203611c5057855f5f5b8c8110611c5f575003611c505761166b6116606001546121fa565b9586600155426121ed565b986116996040519161167c83611fc3565b33835261168a368888612223565b93602084019485523691612223565b604082019081526060820192888452608083015f815260a084018d815260c08501915f835260e08601965f88526101008701955f8752610120880195600187528d5f52600460205260405f209860018060a01b039051166bffffffffffffffffffffffff60a01b8a54161789556001890190518051906001600160401b03821161069f5781906117298454611f8b565b601f8111611c00575b50602090601f8311600114611b9d575f92611b92575b50508160011b915f199060031b1c19161790555b51805160028901916001600160401b03821161069f57819061177e8454611f8b565b601f8111611b42575b50602090601f8311600114611adf575f92611ad4575b50508160011b915f199060031b1c19161790555b516003870155516004860155516005850155519160048310156106f457611806946117e46009949b9e9b60068701612259565b51600785015551600884015551151591019060ff801983541691151516179055565b36869003601e1901945f5b82811015611a6557855f52600560205260405f208160051b89013588811215610224578901908135916001600160401b038311610224576020018236038113610224576118796118638f86908f6121dd565b35916040519461187286611fdf565b3691612223565b835260208301908152604083015f815260608401905f8252608085015f815260a08601925f845260c08701945f865260e08801965f88528054600160401b81101561069f576118cd91600182018155612103565b989098611a5257518051906001600160401b03821161069f576118f08a54611f8b565b601f8111611a0d575b50602090601f831160011461199c57918060019c9b9a9896949260059a9896945f92611991575b50505f19600383901b1c1916908c1b1789555b518a8901556119556002890193511515849060ff801983541691151516179055565b518254915162ffff001990921690151560081b61ff00161790151560101b62ff0000161790555160038501555160048401555191015501611811565b015190505f80611920565b90601f198316918b5f52815f20925f5b8181106119f557509260019d9c9b999795939285928f949660059d9b9997106119dd575b505050811b018955611933565b01515f1960f88460031b161c191690555f80806119d0565b929360206001819287860151815501950193016119ac565b8a5f5260205f20601f840160051c81019160208510611a48575b601f0160051c01905b818110611a3d57506118f9565b5f8155600101611a30565b9091508190611a27565b634e487b7160e01b5f525f60045260245ffd5b5060209550917f9a6f279818b6c3ecad22dd882c63460a80cee0df2841c888adb08588aff26c229185938a86604051946080865281608087015260a08601375f60a08886010152888401526040830152606082015260a0813395601f80199101168101030190a3604051908152f35b015190505f8061179d565b5f8581528281209350601f198516905b818110611b2a5750908460019594939210611b12575b505050811b0190556117b1565b01515f1960f88460031b161c191690555f8080611b05565b92936020600181928786015181550195019301611aef565b909150835f5260205f20601f840160051c81019160208510611b88575b90601f859493920160051c01905b818110611b7a5750611787565b5f8155849350600101611b6d565b9091508190611b5f565b015190505f80611748565b5f8581528281209350601f198516905b818110611be85750908460019594939210611bd0575b505050811b01905561175c565b01515f1960f88460031b161c191690555f8080611bc3565b92936020600181928786015181550195019301611bad565b909150835f5260205f20601f840160051c81019160208510611c46575b90601f859493920160051c01905b818110611c385750611732565b5f8155849350600101611c2b565b9091508190611c1d565b631109151360e21b5f5260045ffd5b9150611c6c828d8c6121dd565b3515611c9457611c8a600191611c83848f8e6121dd565b35906121ed565b9101908791611645565b639494117d60e01b5f5260045ffd5b638a71996560e01b5f5260045ffd5b635dfece3f60e01b5f5260045ffd5b637616640160e01b5f5260045ffd5b506276a7008511611628565b639b60eb4d60e01b5f5260045ffd5b63d937d5df60e01b5f5260045ffd5b6352ddcdef60e11b5f5260045ffd5b3461022457611d17366120ed565b905f52600560205260405f20805482101561022457611d7891611d3991612103565b50611d438161201c565b90600181015490600281015490600381015460ff600560048401549301549360405197889761010089526101008901906120bc565b95602088015281811615156040880152818160081c161515606088015260101c161515608086015260a085015260c084015260e08301520390f35b3461022457602036600319011261022457600480355f90815260209182526040902080546001600160a01b031690611ded6001820161201c565b611df96002830161201c565b91600381015492611e726004830154600584015460ff60068601541691611e58600787015495611e4a60ff600960088b01549a015416996101406040519e8f9e8f90815201526101408d01906120bc565b908b820360408d01526120bc565b9760608a0152608089015260a088015260c08701906120e0565b60e085015261010084015215156101208301520390f35b3461022457611e9736611f61565b915f52600860205260405f20905f5260205260405f209060018060a01b03165f52602052602060ff60405f2054166040519015158152f35b3461022457602036600319011261022457611ee8611f35565b611ef0612430565b600380546001600160a01b0319166001600160a01b039290921691821790557f1f46f1440957d747afc9eb6e6b4c1173771b52512c4af918144117fb38e813bb5f80a2005b600435906001600160a01b038216820361022457565b602435906001600160a01b038216820361022457565b60609060031901126102245760043590602435906044356001600160a01b03811681036102245790565b90600182811c92168015611fb9575b6020831014611fa557565b634e487b7160e01b5f52602260045260245ffd5b91607f1691611f9a565b61014081019081106001600160401b0382111761069f57604052565b61010081019081106001600160401b0382111761069f57604052565b90601f801991011681019081106001600160401b0382111761069f57604052565b9060405191825f82549261202f84611f8b565b808452936001811690811561209a5750600114612056575b5061205492500383611ffb565b565b90505f9291925260205f20905f915b81831061207e575050906020612054928201015f612047565b6020919350806001915483858901015201910190918492612065565b90506020925061205494915060ff191682840152151560051b8201015f612047565b805180835260209291819084018484015e5f828201840152601f01601f1916010190565b9060048210156106f45752565b6040906003190112610224576004359060243590565b805482101561068b575f52600660205f20910201905f90565b9181601f84011215610224578235916001600160401b038311610224576020838186019501011161022457565b9181601f84011215610224578235916001600160401b038311610224576020808501948460051b01011161022457565b9060e080612192845161010085526101008501906120bc565b936020810151602085015260408101511515604085015260608101511515606085015260808101511515608085015260a081015160a085015260c081015160c0850152015191015290565b919081101561068b5760051b0190565b919082018092116106b357565b5f1981146106b35760010190565b6001600160401b03811161069f57601f01601f191660200190565b92919261222f82612208565b9161223d6040519384611ffb565b829481845281830111610224578281602093845f960137010152565b9060048110156106f45760ff80198354169116179055565b9060405161227e81611fdf565b60e06005829461228d8161201c565b84526001810154602085015260ff600282015481811615156040870152818160081c161515606087015260101c1615156080850152600381015460a0850152600481015460c08501520154910152565b3d15612307573d906122ee82612208565b916122fc6040519384611ffb565b82523d5f602084013e565b606090565b5f929181549161231b83611f8b565b8083529260018116908115612370575060011461233757505050565b5f9081526020812093945091925b838310612356575060209250010190565b600181602092949394548385870101520191019190612345565b915050602093945060ff929192191683830152151560051b010190565b805f52600460205260405f206006810160ff81541660048110156106f45761242b57600582015442111561241c5760ff60209183600360047f1289cf89aaaed53d6590c1b7996ba434edb31dcbd322d0b88ff0c02f64bbdeef96015491015411155f146124125761240060015b82612259565b541661240f60405180926120e0565ba2565b61240060026123fa565b6302eb354360e41b5f5260045ffd5b505050565b5f546001600160a01b0316330361244357565b63118cdaa760e01b5f523360045260245ffd5b60ff5f5460a01c1661246457565b63d93c066560e01b5f5260045ffd5b60025f5160206124ac5f395f51905f52541461249c5760025f5160206124ac5f395f51905f5255565b633ee5aeb560e01b5f5260045ffdfe9b779b17422d0df92223018b32b4d1fa46e071723d6817e2486d003becc55f00a2646970667358221220fb343ef6d1372378f919f707f0b2873101b285264529a754d1bb4f52aeb928af64736f6c634300081c0033","opcodes":"PUSH1 0xA0 CALLVALUE PUSH2 0xF9 JUMPI PUSH1 0x1F PUSH2 0x2613 CODESIZE DUP2 SWAP1 SUB SWAP2 DUP3 ADD PUSH1 0x1F NOT AND DUP4 ADD SWAP2 PUSH1 0x1 PUSH1 0x1 PUSH1 0x40 SHL SUB DUP4 GT DUP5 DUP5 LT OR PUSH2 0xFD JUMPI DUP1 DUP5 SWAP3 PUSH1 0x40 SWAP5 DUP6 MSTORE DUP4 CODECOPY DUP2 ADD SUB SLT PUSH2 0xF9 JUMPI DUP1 MLOAD PUSH1 0x1 PUSH1 0x1 PUSH1 0xA0 SHL SUB DUP2 AND SWAP2 SWAP1 DUP3 SWAP1 SUB PUSH2 0xF9 JUMPI PUSH1 0x20 ADD MLOAD PUSH1 0x1 PUSH32 0x9B779B17422D0DF92223018B32B4D1FA46E071723D6817E2486D003BECC55F00 SSTORE DUP2 ISZERO PUSH2 0xE6 JUMPI PUSH0 DUP1 SLOAD PUSH1 0x1 PUSH1 0x1 PUSH1 0xA0 SHL SUB NOT DUP2 AND DUP5 OR DUP3 SSTORE PUSH1 0x40 MLOAD SWAP4 SWAP2 PUSH1 0x1 PUSH1 0x1 PUSH1 0xA0 SHL SUB SWAP1 SWAP2 AND SWAP1 PUSH32 0x8BE0079C531659141344CD1FD0A4F28419497F9722A3DAAFE3B4186F6B6457E0 SWAP1 DUP1 LOG3 PUSH1 0x80 MSTORE PUSH2 0x2501 SWAP1 DUP2 PUSH2 0x112 DUP3 CODECOPY PUSH1 0x80 MLOAD DUP2 DUP2 DUP2 PUSH2 0x422 ADD MSTORE PUSH2 0xED0 ADD MSTORE RETURN JUMPDEST PUSH4 0x1E4FBDF7 PUSH1 0xE0 SHL PUSH0 MSTORE PUSH0 PUSH1 0x4 MSTORE PUSH1 0x24 PUSH0 REVERT JUMPDEST PUSH0 DUP1 REVERT JUMPDEST PUSH4 0x4E487B71 PUSH1 0xE0 SHL PUSH0 MSTORE PUSH1 0x41 PUSH1 0x4 MSTORE PUSH1 0x24 PUSH0 REVERT INVALID PUSH1 0x80 PUSH1 0x40 MSTORE PUSH1 0x4 CALLDATASIZE LT ISZERO PUSH2 0x1A JUMPI JUMPDEST CALLDATASIZE ISZERO PUSH2 0x18 JUMPI PUSH0 DUP1 REVERT JUMPDEST STOP JUMPDEST PUSH0 CALLDATALOAD PUSH1 0xE0 SHR DUP1 PUSH4 0x91E3385 EQ PUSH2 0x1ECF JUMPI DUP1 PUSH4 0xD39A1D3 EQ PUSH2 0x1E89 JUMPI DUP1 PUSH4 0x141961BC EQ PUSH2 0x1DB3 JUMPI DUP1 PUSH4 0x22C59958 EQ PUSH2 0x2C7 JUMPI DUP1 PUSH4 0x3178492A EQ PUSH2 0x1D09 JUMPI DUP1 PUSH4 0x37C6BCAF EQ PUSH2 0x1565 JUMPI DUP1 PUSH4 0x3C1AB00F EQ PUSH2 0x1495 JUMPI DUP1 PUSH4 0x3F4BA83A EQ PUSH2 0x1429 JUMPI DUP1 PUSH4 0x42C549C0 EQ PUSH2 0x1330 JUMPI DUP1 PUSH4 0x4C05ABEB EQ PUSH2 0x1315 JUMPI DUP1 PUSH4 0x5598F8CC EQ PUSH2 0x1163 JUMPI DUP1 PUSH4 0x59B272D0 EQ PUSH2 0x113B JUMPI DUP1 PUSH4 0x5B7BAF64 EQ PUSH2 0xFEB JUMPI DUP1 PUSH4 0x5C975ABB EQ PUSH2 0xFC7 JUMPI DUP1 PUSH4 0x715018A6 EQ PUSH2 0xF70 JUMPI DUP1 PUSH4 0x7274E30D EQ PUSH2 0xF53 JUMPI DUP1 PUSH4 0x8456CB59 EQ PUSH2 0xEF3 JUMPI DUP1 PUSH4 0x8C639A85 EQ PUSH2 0xEB9 JUMPI DUP1 PUSH4 0x8DA5CB5B EQ PUSH2 0xE92 JUMPI DUP1 PUSH4 0x8ED9895C EQ PUSH2 0xDFA JUMPI DUP1 PUSH4 0xAFC1D289 EQ PUSH2 0xBD2 JUMPI DUP1 PUSH4 0xB1610D7E EQ PUSH2 0xBB5 JUMPI DUP1 PUSH4 0xB1724B46 EQ PUSH2 0xB98 JUMPI DUP1 PUSH4 0xB41D30F2 EQ PUSH2 0xB25 JUMPI DUP1 PUSH4 0xB6A6D177 EQ PUSH2 0xB08 JUMPI DUP1 PUSH4 0xB808A849 EQ PUSH2 0xA29 JUMPI DUP1 PUSH4 0xBAA93E03 EQ PUSH2 0x8E2 JUMPI DUP1 PUSH4 0xBBB2EAB9 EQ PUSH2 0x708 JUMPI DUP1 PUSH4 0xC1CBBCA7 EQ PUSH2 0x3B5 JUMPI DUP1 PUSH4 0xC713B04C EQ PUSH2 0x371 JUMPI DUP1 PUSH4 0xC9DE59EF EQ PUSH2 0x328 JUMPI DUP1 PUSH4 0xD3631FA5 EQ PUSH2 0x30B JUMPI DUP1 PUSH4 0xE081DBF9 EQ PUSH2 0x2C7 JUMPI DUP1 PUSH4 0xEC3889B5 EQ PUSH2 0x228 JUMPI PUSH4 0xF2FDE38B SUB PUSH2 0xE JUMPI CALLVALUE PUSH2 0x224 JUMPI PUSH1 0x20 CALLDATASIZE PUSH1 0x3 NOT ADD SLT PUSH2 0x224 JUMPI PUSH2 0x1B8 PUSH2 0x1F35 JUMP JUMPDEST PUSH2 0x1C0 PUSH2 0x2430 JUMP JUMPDEST PUSH1 0x1 PUSH1 0x1 PUSH1 0xA0 SHL SUB AND DUP1 ISZERO PUSH2 0x211 JUMPI PUSH0 DUP1 SLOAD PUSH1 0x1 PUSH1 0x1 PUSH1 0xA0 SHL SUB NOT DUP2 AND DUP4 OR DUP3 SSTORE PUSH1 0x1 PUSH1 0x1 PUSH1 0xA0 SHL SUB AND SWAP1 PUSH32 0x8BE0079C531659141344CD1FD0A4F28419497F9722A3DAAFE3B4186F6B6457E0 SWAP1 DUP1 LOG3 STOP JUMPDEST PUSH4 0x1E4FBDF7 PUSH1 0xE0 SHL PUSH0 MSTORE PUSH0 PUSH1 0x4 MSTORE PUSH1 0x24 PUSH0 REVERT JUMPDEST PUSH0 DUP1 REVERT JUMPDEST CALLVALUE PUSH2 0x224 JUMPI PUSH1 0x20 CALLDATASIZE PUSH1 0x3 NOT ADD SLT PUSH2 0x224 JUMPI PUSH2 0x241 PUSH2 0x1F35 JUMP JUMPDEST PUSH2 0x249 PUSH2 0x2430 JUMP JUMPDEST PUSH2 0x251 PUSH2 0x2473 JUMP JUMPDEST PUSH1 0x2 SLOAD SWAP1 PUSH0 PUSH1 0x2 SSTORE PUSH0 DUP1 DUP1 DUP1 DUP6 DUP6 GAS CALL PUSH2 0x269 PUSH2 0x22DD JUMP JUMPDEST POP ISZERO PUSH2 0x2B8 JUMPI PUSH1 0x40 MLOAD SWAP2 DUP3 MSTORE PUSH1 0x1 PUSH1 0x1 PUSH1 0xA0 SHL SUB AND SWAP1 PUSH32 0xFC7AD544FF6A06D6499925723D25B6FE70457A42939995B1D3D6F560FE336333 SWAP1 PUSH1 0x20 SWAP1 LOG2 PUSH1 0x1 PUSH0 MLOAD PUSH1 0x20 PUSH2 0x24AC PUSH0 CODECOPY PUSH0 MLOAD SWAP1 PUSH0 MSTORE SSTORE STOP JUMPDEST PUSH4 0x12171D83 PUSH1 0xE3 SHL PUSH0 MSTORE PUSH1 0x4 PUSH0 REVERT JUMPDEST CALLVALUE PUSH2 0x224 JUMPI PUSH1 0x40 CALLDATASIZE PUSH1 0x3 NOT ADD SLT PUSH2 0x224 JUMPI PUSH2 0x2E0 PUSH2 0x1F4B JUMP JUMPDEST PUSH1 0x4 CALLDATALOAD PUSH0 MSTORE PUSH1 0x6 PUSH1 0x20 MSTORE PUSH1 0x40 PUSH0 KECCAK256 SWAP1 PUSH1 0x1 DUP1 PUSH1 0xA0 SHL SUB AND PUSH0 MSTORE PUSH1 0x20 MSTORE PUSH1 0x20 PUSH1 0x40 PUSH0 KECCAK256 SLOAD PUSH1 0x40 MLOAD SWAP1 DUP2 MSTORE RETURN JUMPDEST CALLVALUE PUSH2 0x224 JUMPI PUSH0 CALLDATASIZE PUSH1 0x3 NOT ADD SLT PUSH2 0x224 JUMPI PUSH1 0x20 PUSH1 0x2 SLOAD PUSH1 0x40 MLOAD SWAP1 DUP2 MSTORE RETURN JUMPDEST CALLVALUE PUSH2 0x224 JUMPI PUSH1 0x40 CALLDATASIZE PUSH1 0x3 NOT ADD SLT PUSH2 0x224 JUMPI PUSH2 0x341 PUSH2 0x1F4B JUMP JUMPDEST PUSH1 0x4 CALLDATALOAD PUSH0 MSTORE PUSH1 0x7 PUSH1 0x20 MSTORE PUSH1 0x40 PUSH0 KECCAK256 SWAP1 PUSH1 0x1 DUP1 PUSH1 0xA0 SHL SUB AND PUSH0 MSTORE PUSH1 0x20 MSTORE PUSH1 0x20 PUSH1 0xFF PUSH1 0x40 PUSH0 KECCAK256 SLOAD AND PUSH1 0x40 MLOAD SWAP1 ISZERO ISZERO DUP2 MSTORE RETURN JUMPDEST CALLVALUE PUSH2 0x224 JUMPI PUSH1 0x20 CALLDATASIZE PUSH1 0x3 NOT ADD SLT PUSH2 0x224 JUMPI PUSH1 0x4 CALLDATALOAD DUP1 PUSH0 MSTORE PUSH1 0x4 PUSH1 0x20 MSTORE PUSH1 0xFF PUSH1 0x9 PUSH1 0x40 PUSH0 KECCAK256 ADD SLOAD AND ISZERO PUSH2 0x3A6 JUMPI PUSH2 0x18 SWAP1 PUSH2 0x238D JUMP JUMPDEST PUSH4 0x37F9B70B PUSH1 0xE1 SHL PUSH0 MSTORE PUSH1 0x4 PUSH0 REVERT JUMPDEST PUSH1 0x20 CALLDATASIZE PUSH1 0x3 NOT ADD SLT PUSH2 0x224 JUMPI PUSH1 0x4 CALLDATALOAD PUSH2 0x3CC PUSH2 0x2456 JUMP JUMPDEST PUSH2 0x3D4 PUSH2 0x2473 JUMP JUMPDEST DUP1 PUSH0 MSTORE PUSH1 0x4 PUSH1 0x20 MSTORE PUSH1 0xFF PUSH1 0x9 PUSH1 0x40 PUSH0 KECCAK256 ADD SLOAD AND ISZERO PUSH2 0x3A6 JUMPI DUP1 PUSH0 MSTORE PUSH1 0x4 PUSH1 0x20 MSTORE PUSH1 0x40 PUSH0 KECCAK256 SWAP1 PUSH1 0x6 DUP3 ADD PUSH1 0xFF DUP2 SLOAD AND PUSH1 0x4 DUP2 LT ISZERO PUSH2 0x6F4 JUMPI PUSH2 0x6E5 JUMPI PUSH1 0x5 DUP4 ADD SLOAD TIMESTAMP GT PUSH2 0x6D6 JUMPI CALLVALUE ISZERO PUSH2 0x6C7 JUMPI PUSH32 0x0 DUP1 CALLVALUE MUL SWAP1 CALLVALUE DUP3 DIV SUB PUSH2 0x6B3 JUMPI PUSH2 0x2710 SWAP1 DIV SWAP1 DUP2 CALLVALUE SUB SWAP2 CALLVALUE DUP4 GT PUSH2 0x6B3 JUMPI PUSH2 0x46A SWAP1 PUSH1 0x2 SLOAD PUSH2 0x21ED JUMP JUMPDEST PUSH1 0x2 SSTORE PUSH0 DUP4 DUP2 MSTORE PUSH1 0xA PUSH1 0x20 SWAP1 DUP2 MSTORE PUSH1 0x40 DUP1 DUP4 KECCAK256 CALLER DUP5 MSTORE SWAP1 SWAP2 MSTORE SWAP1 KECCAK256 SLOAD PUSH1 0xFF AND ISZERO PUSH2 0x60E JUMPI JUMPDEST DUP3 PUSH0 MSTORE PUSH1 0x6 PUSH1 0x20 MSTORE PUSH1 0x40 PUSH0 KECCAK256 PUSH1 0x1 DUP1 PUSH1 0xA0 SHL SUB CALLER AND PUSH0 MSTORE PUSH1 0x20 MSTORE PUSH1 0x40 PUSH0 KECCAK256 PUSH2 0x4B8 DUP4 DUP3 SLOAD PUSH2 0x21ED JUMP JUMPDEST SWAP1 SSTORE PUSH2 0x4C9 PUSH1 0x4 DUP6 ADD SWAP3 DUP4 SLOAD PUSH2 0x21ED JUMP JUMPDEST DUP1 DUP4 SSTORE PUSH1 0x3 DUP6 ADD SLOAD GT ISZERO PUSH2 0x5D1 JUMPI JUMPDEST POP PUSH1 0x3 SLOAD PUSH0 SWAP4 SWAP1 PUSH1 0x1 PUSH1 0x1 PUSH1 0xA0 SHL SUB AND DUP1 PUSH2 0x53C JUMPI JUMPDEST POP POP SLOAD SWAP2 PUSH1 0x40 MLOAD SWAP3 CALLVALUE DUP5 MSTORE PUSH1 0x20 DUP5 ADD MSTORE PUSH1 0x40 DUP4 ADD MSTORE PUSH32 0xF0D39BBA72B097AAC68D326A113C14384101F3CCF433A038C5D3AEAD41BEFED3 PUSH1 0x60 CALLER SWAP4 LOG3 PUSH1 0x1 PUSH0 MLOAD PUSH1 0x20 PUSH2 0x24AC PUSH0 CODECOPY PUSH0 MLOAD SWAP1 PUSH0 MSTORE SSTORE STOP JUMPDEST PUSH2 0x577 PUSH1 0x20 SWAP2 PUSH0 SWAP4 PUSH1 0x40 MLOAD SWAP5 DUP6 DUP1 SWAP5 DUP2 SWAP4 PUSH4 0x2328301B PUSH1 0xE2 SHL DUP4 MSTORE CALLER PUSH1 0x4 DUP5 ADD MSTORE DUP11 PUSH1 0x24 DUP5 ADD MSTORE PUSH1 0x80 PUSH1 0x44 DUP5 ADD MSTORE PUSH1 0x1 PUSH1 0x84 DUP5 ADD SWAP2 ADD PUSH2 0x230C JUMP JUMPDEST CALLVALUE PUSH1 0x64 DUP4 ADD MSTORE SUB SWAP3 GAS CALL PUSH0 SWAP2 DUP2 PUSH2 0x59D JUMPI JUMPDEST POP PUSH2 0x595 JUMPI JUMPDEST DUP1 PUSH2 0x4EE JUMP JUMPDEST SWAP3 POP DUP4 PUSH2 0x58F JUMP JUMPDEST SWAP1 SWAP2 POP PUSH1 0x20 DUP2 RETURNDATASIZE PUSH1 0x20 GT PUSH2 0x5C9 JUMPI JUMPDEST DUP2 PUSH2 0x5B9 PUSH1 0x20 SWAP4 DUP4 PUSH2 0x1FFB JUMP JUMPDEST DUP2 ADD SUB SLT PUSH2 0x224 JUMPI MLOAD SWAP1 DUP6 PUSH2 0x589 JUMP JUMPDEST RETURNDATASIZE SWAP2 POP PUSH2 0x5AC JUMP JUMPDEST PUSH1 0x1 PUSH1 0xFF NOT DUP3 SLOAD AND OR SWAP1 SSTORE DUP2 PUSH32 0x1289CF89AAAED53D6590C1B7996BA434EDB31DCBD322D0B88FF0C02F64BBDEEF PUSH1 0x20 PUSH1 0x40 MLOAD PUSH1 0x1 DUP2 MSTORE LOG2 DUP4 PUSH2 0x4D8 JUMP JUMPDEST PUSH0 DUP4 DUP2 MSTORE PUSH1 0xA PUSH1 0x20 SWAP1 DUP2 MSTORE PUSH1 0x40 DUP1 DUP4 KECCAK256 CALLER DUP5 MSTORE DUP3 MSTORE DUP1 DUP4 KECCAK256 DUP1 SLOAD PUSH1 0xFF NOT AND PUSH1 0x1 OR SWAP1 SSTORE DUP6 DUP4 MSTORE PUSH1 0x9 SWAP1 SWAP2 MSTORE SWAP1 KECCAK256 DUP1 SLOAD SWAP1 PUSH1 0x1 PUSH1 0x40 SHL DUP3 LT ISZERO PUSH2 0x69F JUMPI PUSH1 0x1 DUP3 ADD DUP1 DUP3 SSTORE DUP3 LT ISZERO PUSH2 0x68B JUMPI PUSH0 MSTORE PUSH1 0x20 PUSH0 KECCAK256 ADD CALLER PUSH12 0xFFFFFFFFFFFFFFFFFFFFFFFF PUSH1 0xA0 SHL DUP3 SLOAD AND OR SWAP1 SSTORE PUSH1 0x7 DUP5 ADD PUSH2 0x684 DUP2 SLOAD PUSH2 0x21FA JUMP JUMPDEST SWAP1 SSTORE PUSH2 0x48F JUMP JUMPDEST PUSH4 0x4E487B71 PUSH1 0xE0 SHL PUSH0 MSTORE PUSH1 0x32 PUSH1 0x4 MSTORE PUSH1 0x24 PUSH0 REVERT JUMPDEST PUSH4 0x4E487B71 PUSH1 0xE0 SHL PUSH0 MSTORE PUSH1 0x41 PUSH1 0x4 MSTORE PUSH1 0x24 PUSH0 REVERT JUMPDEST PUSH4 0x4E487B71 PUSH1 0xE0 SHL PUSH0 MSTORE PUSH1 0x11 PUSH1 0x4 MSTORE PUSH1 0x24 PUSH0 REVERT JUMPDEST PUSH4 0x15705449 PUSH1 0xE3 SHL PUSH0 MSTORE PUSH1 0x4 PUSH0 REVERT JUMPDEST PUSH4 0x387B2E55 PUSH1 0xE1 SHL PUSH0 MSTORE PUSH1 0x4 PUSH0 REVERT JUMPDEST PUSH4 0x219A945B PUSH1 0xE1 SHL PUSH0 MSTORE PUSH1 0x4 PUSH0 REVERT JUMPDEST PUSH4 0x4E487B71 PUSH1 0xE0 SHL PUSH0 MSTORE PUSH1 0x21 PUSH1 0x4 MSTORE PUSH1 0x24 PUSH0 REVERT JUMPDEST CALLVALUE PUSH2 0x224 JUMPI PUSH1 0x60 CALLDATASIZE PUSH1 0x3 NOT ADD SLT PUSH2 0x224 JUMPI PUSH1 0x44 CALLDATALOAD PUSH1 0x24 CALLDATALOAD PUSH1 0x4 CALLDATALOAD PUSH1 0x2 DUP4 LT ISZERO PUSH2 0x224 JUMPI PUSH2 0x733 PUSH2 0x2456 JUMP JUMPDEST DUP1 PUSH0 MSTORE PUSH1 0x4 PUSH1 0x20 MSTORE PUSH1 0xFF PUSH1 0x9 PUSH1 0x40 PUSH0 KECCAK256 ADD SLOAD AND ISZERO PUSH2 0x3A6 JUMPI PUSH0 DUP2 DUP2 MSTORE PUSH1 0xA PUSH1 0x20 SWAP1 DUP2 MSTORE PUSH1 0x40 DUP1 DUP4 KECCAK256 CALLER DUP5 MSTORE SWAP1 SWAP2 MSTORE SWAP1 KECCAK256 SLOAD PUSH1 0xFF AND ISZERO PUSH2 0x8D3 JUMPI DUP1 PUSH0 MSTORE PUSH1 0x4 PUSH1 0x20 MSTORE PUSH1 0xFF PUSH1 0x6 PUSH1 0x40 PUSH0 KECCAK256 ADD SLOAD AND PUSH1 0x4 DUP2 LT ISZERO PUSH2 0x6F4 JUMPI PUSH1 0x1 SUB PUSH2 0x8C4 JUMPI DUP1 PUSH0 MSTORE PUSH1 0x5 PUSH1 0x20 MSTORE PUSH2 0x7A4 DUP3 PUSH1 0x40 PUSH0 KECCAK256 PUSH2 0x2103 JUMP JUMPDEST POP PUSH1 0x2 DUP2 ADD SLOAD PUSH1 0xFF DUP2 PUSH1 0x10 SHR AND ISZERO PUSH2 0x8B6 JUMPI PUSH1 0xFF AND PUSH2 0x8A7 JUMPI PUSH1 0x3 DUP2 ADD SLOAD TIMESTAMP GT PUSH2 0x898 JUMPI PUSH0 DUP3 DUP2 MSTORE PUSH1 0x8 PUSH1 0x20 SWAP1 DUP2 MSTORE PUSH1 0x40 DUP1 DUP4 KECCAK256 DUP7 DUP5 MSTORE DUP3 MSTORE DUP1 DUP4 KECCAK256 CALLER DUP5 MSTORE SWAP1 SWAP2 MSTORE SWAP1 KECCAK256 SLOAD PUSH1 0xFF AND PUSH2 0x889 JUMPI PUSH0 DUP3 DUP2 MSTORE PUSH1 0x8 PUSH1 0x20 SWAP1 DUP2 MSTORE PUSH1 0x40 DUP1 DUP4 KECCAK256 DUP7 DUP5 MSTORE DUP3 MSTORE DUP1 DUP4 KECCAK256 CALLER DUP5 MSTORE SWAP1 SWAP2 MSTORE SWAP1 KECCAK256 DUP1 SLOAD PUSH1 0xFF NOT AND PUSH1 0x1 OR SWAP1 SSTORE DUP4 PUSH2 0x874 JUMPI PUSH1 0x4 DUP2 ADD PUSH2 0x82E DUP2 SLOAD PUSH2 0x21FA JUMP JUMPDEST SWAP1 SSTORE JUMPDEST PUSH1 0x5 PUSH1 0x4 DUP3 ADD SLOAD SWAP2 ADD SLOAD SWAP1 PUSH1 0x40 MLOAD SWAP5 DUP6 MSTORE PUSH1 0x20 DUP6 ADD MSTORE PUSH1 0x40 DUP5 ADD MSTORE PUSH32 0x1E5C23060A7E1DB9C7F7FAC56330926C23B3568A45A2CCD2702B989AFA0F8DD2 PUSH1 0x60 CALLER SWAP5 LOG4 STOP JUMPDEST PUSH1 0x5 DUP2 ADD PUSH2 0x882 DUP2 SLOAD PUSH2 0x21FA JUMP JUMPDEST SWAP1 SSTORE PUSH2 0x831 JUMP JUMPDEST PUSH4 0x7C9A1CF9 PUSH1 0xE0 SHL PUSH0 MSTORE PUSH1 0x4 PUSH0 REVERT JUMPDEST PUSH4 0x370EC371 PUSH1 0xE2 SHL PUSH0 MSTORE PUSH1 0x4 PUSH0 REVERT JUMPDEST PUSH4 0x4CF723ED PUSH1 0xE0 SHL PUSH0 MSTORE PUSH1 0x4 PUSH0 REVERT JUMPDEST PUSH3 0xEC00A5 PUSH1 0xE0 SHL PUSH0 MSTORE PUSH1 0x4 PUSH0 REVERT JUMPDEST PUSH4 0xF7FE271 PUSH1 0xE0 SHL PUSH0 MSTORE PUSH1 0x4 PUSH0 REVERT JUMPDEST PUSH4 0xD764187D PUSH1 0xE0 SHL PUSH0 MSTORE PUSH1 0x4 PUSH0 REVERT JUMPDEST CALLVALUE PUSH2 0x224 JUMPI PUSH2 0x8F0 CALLDATASIZE PUSH2 0x20ED JUMP JUMPDEST SWAP1 PUSH2 0x8F9 PUSH2 0x2456 JUMP JUMPDEST DUP1 PUSH0 MSTORE PUSH1 0x4 PUSH1 0x20 MSTORE PUSH1 0xFF PUSH1 0x9 PUSH1 0x40 PUSH0 KECCAK256 ADD SLOAD AND ISZERO PUSH2 0x3A6 JUMPI PUSH0 DUP2 DUP2 MSTORE PUSH1 0x4 PUSH1 0x20 MSTORE PUSH1 0x40 SWAP1 KECCAK256 SLOAD PUSH1 0x1 PUSH1 0x1 PUSH1 0xA0 SHL SUB AND CALLER SUB PUSH2 0xA1A JUMPI DUP1 PUSH0 MSTORE PUSH1 0x4 PUSH1 0x20 MSTORE PUSH1 0x40 PUSH0 KECCAK256 PUSH1 0xFF PUSH1 0x6 DUP3 ADD SLOAD AND PUSH1 0x4 DUP2 LT ISZERO PUSH2 0x6F4 JUMPI PUSH1 0x1 SUB PUSH2 0x8C4 JUMPI PUSH1 0x8 ADD SLOAD DUP3 SUB PUSH2 0xA0B JUMPI DUP1 PUSH0 MSTORE PUSH1 0x5 PUSH1 0x20 MSTORE PUSH2 0x971 DUP3 PUSH1 0x40 PUSH0 KECCAK256 PUSH2 0x2103 JUMP JUMPDEST POP PUSH1 0x2 DUP2 ADD DUP1 SLOAD PUSH1 0xFF DUP2 PUSH1 0x10 SHR AND PUSH2 0x9FC JUMPI PUSH1 0xFF DUP2 AND PUSH2 0x8A7 JUMPI PUSH3 0x10000 SWAP1 PUSH3 0xFF0000 NOT AND OR SWAP1 SSTORE PUSH3 0x3F480 TIMESTAMP ADD DUP1 TIMESTAMP GT PUSH2 0x6B3 JUMPI DUP2 DUP2 PUSH2 0x9EC SWAP3 PUSH1 0x3 PUSH32 0xDB43CB42B160B2883EA1FD6C0E09292AE202BBB914108E4A6C1351926AF60A71 SWAP6 ADD SSTORE PUSH1 0x1 DUP3 ADD SLOAD SWAP1 PUSH1 0x40 MLOAD SWAP4 DUP5 SWAP4 PUSH1 0x60 DUP6 MSTORE PUSH1 0x60 DUP6 ADD SWAP1 PUSH2 0x230C JUMP JUMPDEST SWAP2 PUSH1 0x20 DUP5 ADD MSTORE PUSH1 0x40 DUP4 ADD MSTORE SUB SWAP1 LOG3 STOP JUMPDEST PUSH4 0x4C03C443 PUSH1 0xE1 SHL PUSH0 MSTORE PUSH1 0x4 PUSH0 REVERT JUMPDEST PUSH4 0xF101723 PUSH1 0xE1 SHL PUSH0 MSTORE PUSH1 0x4 PUSH0 REVERT JUMPDEST PUSH4 0x93687C0B PUSH1 0xE0 SHL PUSH0 MSTORE PUSH1 0x4 PUSH0 REVERT JUMPDEST CALLVALUE PUSH2 0x224 JUMPI PUSH1 0x40 CALLDATASIZE PUSH1 0x3 NOT ADD SLT PUSH2 0x224 JUMPI PUSH1 0x4 CALLDATALOAD PUSH2 0xA45 PUSH2 0x1F4B JUMP JUMPDEST SWAP1 DUP1 PUSH0 MSTORE PUSH1 0x4 PUSH1 0x20 MSTORE PUSH1 0xFF PUSH1 0x6 PUSH1 0x40 PUSH0 KECCAK256 ADD SLOAD AND PUSH1 0x4 DUP2 LT ISZERO PUSH2 0x6F4 JUMPI PUSH1 0x2 EQ SWAP1 DUP2 PUSH2 0xADC JUMPI JUMPDEST DUP2 PUSH2 0xAAF JUMPI JUMPDEST DUP2 PUSH2 0xA85 JUMPI JUMPDEST PUSH1 0x20 DUP3 PUSH1 0x40 MLOAD SWAP1 ISZERO ISZERO DUP2 MSTORE RETURN JUMPDEST SWAP1 POP PUSH0 MSTORE PUSH1 0x6 PUSH1 0x20 MSTORE PUSH1 0x40 PUSH0 KECCAK256 SWAP1 PUSH1 0x1 DUP1 PUSH1 0xA0 SHL SUB AND PUSH0 MSTORE PUSH1 0x20 MSTORE PUSH1 0x20 PUSH1 0x40 PUSH0 KECCAK256 SLOAD ISZERO ISZERO DUP3 PUSH2 0xA78 JUMP JUMPDEST PUSH0 DUP2 DUP2 MSTORE PUSH1 0x7 PUSH1 0x20 SWAP1 DUP2 MSTORE PUSH1 0x40 DUP1 DUP4 KECCAK256 PUSH1 0x1 PUSH1 0x1 PUSH1 0xA0 SHL SUB DUP8 AND DUP5 MSTORE SWAP1 SWAP2 MSTORE SWAP1 KECCAK256 SLOAD PUSH1 0xFF AND ISZERO SWAP2 POP PUSH2 0xA72 JUMP JUMPDEST PUSH0 DUP2 DUP2 MSTORE PUSH1 0xA PUSH1 0x20 SWAP1 DUP2 MSTORE PUSH1 0x40 DUP1 DUP4 KECCAK256 PUSH1 0x1 PUSH1 0x1 PUSH1 0xA0 SHL SUB DUP8 AND DUP5 MSTORE SWAP1 SWAP2 MSTORE SWAP1 KECCAK256 SLOAD PUSH1 0xFF AND SWAP2 POP PUSH2 0xA6C JUMP JUMPDEST CALLVALUE PUSH2 0x224 JUMPI PUSH0 CALLDATASIZE PUSH1 0x3 NOT ADD SLT PUSH2 0x224 JUMPI PUSH1 0x20 PUSH1 0x40 MLOAD PUSH3 0x15180 DUP2 MSTORE RETURN JUMPDEST CALLVALUE PUSH2 0x224 JUMPI PUSH1 0x60 PUSH2 0xB35 CALLDATASIZE PUSH2 0x1F61 JUMP JUMPDEST SWAP1 DUP3 PUSH0 MSTORE PUSH1 0x5 PUSH1 0x20 MSTORE PUSH2 0xB4B DUP2 PUSH1 0x40 PUSH0 KECCAK256 PUSH2 0x2103 JUMP JUMPDEST POP SWAP3 PUSH0 MSTORE PUSH1 0x8 PUSH1 0x20 MSTORE PUSH1 0x40 PUSH0 KECCAK256 SWAP1 PUSH0 MSTORE PUSH1 0x20 MSTORE PUSH1 0x40 PUSH0 KECCAK256 SWAP1 PUSH1 0x1 DUP1 PUSH1 0xA0 SHL SUB AND PUSH0 MSTORE PUSH1 0x20 MSTORE PUSH1 0xFF PUSH1 0x40 PUSH0 KECCAK256 SLOAD AND SWAP1 PUSH1 0x5 PUSH1 0x4 DUP3 ADD SLOAD SWAP2 ADD SLOAD SWAP1 PUSH1 0x40 MLOAD SWAP3 ISZERO ISZERO DUP4 MSTORE PUSH1 0x20 DUP4 ADD MSTORE PUSH1 0x40 DUP3 ADD MSTORE RETURN JUMPDEST CALLVALUE PUSH2 0x224 JUMPI PUSH0 CALLDATASIZE PUSH1 0x3 NOT ADD SLT PUSH2 0x224 JUMPI PUSH1 0x20 PUSH1 0x40 MLOAD PUSH3 0x76A700 DUP2 MSTORE RETURN JUMPDEST CALLVALUE PUSH2 0x224 JUMPI PUSH0 CALLDATASIZE PUSH1 0x3 NOT ADD SLT PUSH2 0x224 JUMPI PUSH1 0x20 PUSH1 0x40 MLOAD PUSH3 0x3F480 DUP2 MSTORE RETURN JUMPDEST CALLVALUE PUSH2 0x224 JUMPI PUSH2 0xBE0 CALLDATASIZE PUSH2 0x20ED JUMP JUMPDEST SWAP1 PUSH2 0xBE9 PUSH2 0x2456 JUMP JUMPDEST PUSH2 0xBF1 PUSH2 0x2473 JUMP JUMPDEST DUP1 PUSH0 MSTORE PUSH1 0x4 PUSH1 0x20 MSTORE PUSH1 0xFF PUSH1 0x9 PUSH1 0x40 PUSH0 KECCAK256 ADD SLOAD AND ISZERO PUSH2 0x3A6 JUMPI DUP1 PUSH0 MSTORE PUSH1 0x4 PUSH1 0x20 MSTORE PUSH1 0x40 PUSH0 KECCAK256 PUSH1 0x6 DUP2 ADD SWAP3 PUSH1 0xFF DUP5 SLOAD AND PUSH1 0x4 DUP2 LT ISZERO PUSH2 0x6F4 JUMPI PUSH1 0x1 SUB PUSH2 0x8C4 JUMPI DUP3 PUSH0 MSTORE PUSH1 0x5 PUSH1 0x20 MSTORE PUSH2 0xC44 DUP2 PUSH1 0x40 PUSH0 KECCAK256 PUSH2 0x2103 JUMP JUMPDEST POP PUSH1 0x2 DUP2 ADD DUP1 SLOAD PUSH1 0xFF DUP2 PUSH1 0x10 SHR AND ISZERO PUSH2 0x8B6 JUMPI PUSH1 0xFF DUP2 AND PUSH2 0x8A7 JUMPI PUSH1 0x3 DUP4 ADD SLOAD TIMESTAMP GT ISZERO PUSH2 0xDEB JUMPI PUSH1 0x7 DUP6 ADD SLOAD PUSH1 0x1 SHR PUSH1 0x1 PUSH1 0xFF NOT DUP4 AND OR DUP4 SSTORE PUSH1 0x4 DUP5 ADD SLOAD GT PUSH0 EQ PUSH2 0xDA4 JUMPI DUP6 SWAP3 PUSH32 0xFFE56BF760F6D13072FCE783B476E75AA4FEC7F9319BD00FD896AD53BD325848 SWAP3 PUSH2 0x101 PUSH2 0xCFB SWAP4 PUSH2 0xFFFF NOT AND OR SWAP1 SSTORE PUSH1 0x1 DUP2 ADD SLOAD SWAP8 PUSH1 0x8 DUP8 ADD PUSH2 0xCD0 DUP2 SLOAD PUSH2 0x21FA JUMP JUMPDEST DUP1 SWAP2 SSTORE DUP6 PUSH0 MSTORE PUSH1 0x5 PUSH1 0x20 MSTORE PUSH1 0x40 PUSH0 KECCAK256 SLOAD EQ PUSH2 0xD6E JUMPI JUMPDEST POP PUSH1 0x40 MLOAD SWAP2 DUP3 SWAP2 PUSH1 0x40 DUP4 MSTORE PUSH1 0x40 DUP4 ADD SWAP1 PUSH2 0x230C JUMP JUMPDEST DUP9 PUSH1 0x20 DUP4 ADD MSTORE SUB SWAP1 LOG3 PUSH0 DUP1 DUP1 DUP1 DUP7 PUSH1 0x1 DUP1 PUSH1 0xA0 SHL SUB DUP7 SLOAD AND GAS CALL PUSH2 0xD1D PUSH2 0x22DD JUMP JUMPDEST POP ISZERO PUSH2 0x2B8 JUMPI SLOAD PUSH1 0x40 MLOAD SWAP3 DUP4 MSTORE PUSH1 0x1 PUSH1 0x1 PUSH1 0xA0 SHL SUB AND SWAP2 PUSH32 0x6E3C6096795C8298A218B2CFB8BDE42726FF7C9A3D27B4D3BA41AB7F74FEB5FB SWAP1 PUSH1 0x20 SWAP1 LOG3 JUMPDEST PUSH1 0x1 PUSH0 MLOAD PUSH1 0x20 PUSH2 0x24AC PUSH0 CODECOPY PUSH0 MLOAD SWAP1 PUSH0 MSTORE SSTORE STOP JUMPDEST DUP1 SLOAD PUSH1 0xFF NOT AND PUSH1 0x3 OR SWAP1 SSTORE DUP4 PUSH32 0xBDEF6A2E3AA892961A2DAB48272F72F2BC1C7121EB1C0ED7E4A58E081C1E4BE0 PUSH0 DUP1 LOG2 DUP9 PUSH2 0xCE6 JUMP JUMPDEST POP POP PUSH2 0xDE3 SWAP2 SWAP5 POP PUSH32 0x2632A738857D774F3179ABEE0FA205787AEA133C8F6D4CBFE4E605028D3E8230 SWAP3 POP PUSH1 0x40 MLOAD SWAP2 DUP3 SWAP2 PUSH1 0x20 DUP4 MSTORE PUSH1 0x20 DUP4 ADD SWAP1 PUSH2 0x230C JUMP JUMPDEST SUB SWAP1 LOG3 PUSH2 0xD5B JUMP JUMPDEST PUSH4 0x39B1D76F PUSH1 0xE0 SHL PUSH0 MSTORE PUSH1 0x4 PUSH0 REVERT JUMPDEST CALLVALUE PUSH2 0x224 JUMPI PUSH2 0xE08 CALLDATASIZE PUSH2 0x20ED JUMP JUMPDEST PUSH0 PUSH1 0xE0 PUSH1 0x40 MLOAD PUSH2 0xE17 DUP2 PUSH2 0x1FDF JUMP JUMPDEST PUSH1 0x60 DUP2 MSTORE DUP3 PUSH1 0x20 DUP3 ADD MSTORE DUP3 PUSH1 0x40 DUP3 ADD MSTORE DUP3 PUSH1 0x60 DUP3 ADD MSTORE DUP3 PUSH1 0x80 DUP3 ADD MSTORE DUP3 PUSH1 0xA0 DUP3 ADD MSTORE DUP3 PUSH1 0xC0 DUP3 ADD MSTORE ADD MSTORE DUP2 PUSH0 MSTORE PUSH1 0x4 PUSH1 0x20 MSTORE PUSH1 0xFF PUSH1 0x9 PUSH1 0x40 PUSH0 KECCAK256 ADD SLOAD AND ISZERO PUSH2 0x3A6 JUMPI PUSH2 0xE74 PUSH2 0xE7A SWAP2 PUSH2 0xE8E SWAP4 PUSH0 MSTORE PUSH1 0x5 PUSH1 0x20 MSTORE PUSH1 0x40 PUSH0 KECCAK256 PUSH2 0x2103 JUMP JUMPDEST POP PUSH2 0x2271 JUMP JUMPDEST PUSH1 0x40 MLOAD SWAP2 DUP3 SWAP2 PUSH1 0x20 DUP4 MSTORE PUSH1 0x20 DUP4 ADD SWAP1 PUSH2 0x2179 JUMP JUMPDEST SUB SWAP1 RETURN JUMPDEST CALLVALUE PUSH2 0x224 JUMPI PUSH0 CALLDATASIZE PUSH1 0x3 NOT ADD SLT PUSH2 0x224 JUMPI PUSH0 SLOAD PUSH1 0x40 MLOAD PUSH1 0x1 PUSH1 0x1 PUSH1 0xA0 SHL SUB SWAP1 SWAP2 AND DUP2 MSTORE PUSH1 0x20 SWAP1 RETURN JUMPDEST CALLVALUE PUSH2 0x224 JUMPI PUSH0 CALLDATASIZE PUSH1 0x3 NOT ADD SLT PUSH2 0x224 JUMPI PUSH1 0x20 PUSH1 0x40 MLOAD PUSH32 0x0 DUP2 MSTORE RETURN JUMPDEST CALLVALUE PUSH2 0x224 JUMPI PUSH0 CALLDATASIZE PUSH1 0x3 NOT ADD SLT PUSH2 0x224 JUMPI PUSH2 0xF0B PUSH2 0x2430 JUMP JUMPDEST PUSH2 0xF13 PUSH2 0x2456 JUMP JUMPDEST PUSH0 DUP1 SLOAD PUSH1 0xFF PUSH1 0xA0 SHL NOT AND PUSH1 0x1 PUSH1 0xA0 SHL OR SWAP1 SSTORE PUSH1 0x40 MLOAD CALLER DUP2 MSTORE PUSH32 0x62E78CEA01BEE320CD4E420270B5EA74000D11B0C9F74754EBDBFC544B05A258 SWAP1 PUSH1 0x20 SWAP1 LOG1 STOP JUMPDEST CALLVALUE PUSH2 0x224 JUMPI PUSH0 CALLDATASIZE PUSH1 0x3 NOT ADD SLT PUSH2 0x224 JUMPI PUSH1 0x20 PUSH1 0x1 SLOAD PUSH1 0x40 MLOAD SWAP1 DUP2 MSTORE RETURN JUMPDEST CALLVALUE PUSH2 0x224 JUMPI PUSH0 CALLDATASIZE PUSH1 0x3 NOT ADD SLT PUSH2 0x224 JUMPI PUSH2 0xF88 PUSH2 0x2430 JUMP JUMPDEST PUSH0 DUP1 SLOAD PUSH1 0x1 PUSH1 0x1 PUSH1 0xA0 SHL SUB NOT DUP2 AND DUP3 SSTORE PUSH1 0x1 PUSH1 0x1 PUSH1 0xA0 SHL SUB AND PUSH32 0x8BE0079C531659141344CD1FD0A4F28419497F9722A3DAAFE3B4186F6B6457E0 DUP3 DUP1 LOG3 STOP JUMPDEST CALLVALUE PUSH2 0x224 JUMPI PUSH0 CALLDATASIZE PUSH1 0x3 NOT ADD SLT PUSH2 0x224 JUMPI PUSH1 0x20 PUSH1 0xFF PUSH0 SLOAD PUSH1 0xA0 SHR AND PUSH1 0x40 MLOAD SWAP1 ISZERO ISZERO DUP2 MSTORE RETURN JUMPDEST CALLVALUE PUSH2 0x224 JUMPI PUSH1 0x20 CALLDATASIZE PUSH1 0x3 NOT ADD SLT PUSH2 0x224 JUMPI PUSH1 0x4 CALLDATALOAD PUSH2 0x1007 PUSH2 0x2473 JUMP JUMPDEST DUP1 PUSH0 MSTORE PUSH1 0x4 PUSH1 0x20 MSTORE PUSH1 0xFF PUSH1 0x9 PUSH1 0x40 PUSH0 KECCAK256 ADD SLOAD AND ISZERO PUSH2 0x3A6 JUMPI PUSH0 DUP2 DUP2 MSTORE PUSH1 0xA PUSH1 0x20 SWAP1 DUP2 MSTORE PUSH1 0x40 DUP1 DUP4 KECCAK256 CALLER DUP5 MSTORE SWAP1 SWAP2 MSTORE SWAP1 KECCAK256 SLOAD PUSH1 0xFF AND ISZERO PUSH2 0x8D3 JUMPI DUP1 PUSH0 MSTORE PUSH1 0x4 PUSH1 0x20 MSTORE PUSH1 0xFF PUSH1 0x6 PUSH1 0x40 PUSH0 KECCAK256 ADD SLOAD AND PUSH1 0x4 DUP2 LT ISZERO PUSH2 0x6F4 JUMPI PUSH1 0x2 SUB PUSH2 0x112C JUMPI PUSH0 DUP2 DUP2 MSTORE PUSH1 0x7 PUSH1 0x20 SWAP1 DUP2 MSTORE PUSH1 0x40 DUP1 DUP4 KECCAK256 CALLER DUP5 MSTORE SWAP1 SWAP2 MSTORE SWAP1 KECCAK256 SLOAD PUSH1 0xFF AND PUSH2 0x111D JUMPI PUSH0 DUP2 DUP2 MSTORE PUSH1 0x6 PUSH1 0x20 SWAP1 DUP2 MSTORE PUSH1 0x40 DUP1 DUP4 KECCAK256 CALLER DUP1 DUP6 MSTORE DUP2 DUP5 MSTORE DUP3 DUP6 KECCAK256 DUP1 SLOAD DUP8 DUP8 MSTORE PUSH1 0x7 DUP7 MSTORE DUP5 DUP8 KECCAK256 DUP4 DUP9 MSTORE DUP7 MSTORE SWAP4 DUP7 KECCAK256 DUP1 SLOAD PUSH1 0xFF NOT AND PUSH1 0x1 OR SWAP1 SSTORE SWAP2 SWAP1 SWAP4 MSTORE DUP4 SWAP1 SSTORE SWAP3 SWAP2 SWAP1 DUP2 SWAP1 DUP2 SWAP1 DUP2 SWAP1 DUP7 SWAP1 GAS CALL PUSH2 0x10D8 PUSH2 0x22DD JUMP JUMPDEST POP ISZERO PUSH2 0x2B8 JUMPI PUSH1 0x40 MLOAD SWAP2 DUP3 MSTORE PUSH32 0xF3F402280EF0A7905E124AA621B65EAEB2725C343E8B36D398ED78C29DAF285C PUSH1 0x20 CALLER SWAP4 LOG3 PUSH1 0x1 PUSH0 MLOAD PUSH1 0x20 PUSH2 0x24AC PUSH0 CODECOPY PUSH0 MLOAD SWAP1 PUSH0 MSTORE SSTORE STOP JUMPDEST PUSH4 0x542F378D PUSH1 0xE1 SHL PUSH0 MSTORE PUSH1 0x4 PUSH0 REVERT JUMPDEST PUSH4 0xEEB982F PUSH1 0xE0 SHL PUSH0 MSTORE PUSH1 0x4 PUSH0 REVERT JUMPDEST CALLVALUE PUSH2 0x224 JUMPI PUSH0 CALLDATASIZE PUSH1 0x3 NOT ADD SLT PUSH2 0x224 JUMPI PUSH1 0x3 SLOAD PUSH1 0x40 MLOAD PUSH1 0x1 PUSH1 0x1 PUSH1 0xA0 SHL SUB SWAP1 SWAP2 AND DUP2 MSTORE PUSH1 0x20 SWAP1 RETURN JUMPDEST CALLVALUE PUSH2 0x224 JUMPI PUSH1 0x20 CALLDATASIZE PUSH1 0x3 NOT ADD SLT PUSH2 0x224 JUMPI PUSH1 0x4 CALLDATALOAD PUSH0 PUSH2 0x120 PUSH1 0x40 MLOAD PUSH2 0x1187 DUP2 PUSH2 0x1FC3 JUMP JUMPDEST DUP3 DUP2 MSTORE PUSH1 0x60 PUSH1 0x20 DUP3 ADD MSTORE PUSH1 0x60 PUSH1 0x40 DUP3 ADD MSTORE DUP3 PUSH1 0x60 DUP3 ADD MSTORE DUP3 PUSH1 0x80 DUP3 ADD MSTORE DUP3 PUSH1 0xA0 DUP3 ADD MSTORE DUP3 PUSH1 0xC0 DUP3 ADD MSTORE DUP3 PUSH1 0xE0 DUP3 ADD MSTORE DUP3 PUSH2 0x100 DUP3 ADD MSTORE ADD MSTORE DUP1 PUSH0 MSTORE PUSH1 0x4 PUSH1 0x20 MSTORE PUSH1 0xFF PUSH1 0x9 PUSH1 0x40 PUSH0 KECCAK256 ADD SLOAD AND ISZERO PUSH2 0x3A6 JUMPI PUSH0 MSTORE PUSH1 0x4 PUSH1 0x20 MSTORE PUSH1 0x40 PUSH0 KECCAK256 PUSH1 0x40 MLOAD SWAP1 PUSH2 0x11EF DUP3 PUSH2 0x1FC3 JUMP JUMPDEST DUP1 SLOAD PUSH1 0x1 PUSH1 0x1 PUSH1 0xA0 SHL SUB AND DUP3 MSTORE PUSH2 0x1208 PUSH1 0x1 DUP3 ADD PUSH2 0x201C JUMP JUMPDEST SWAP1 PUSH1 0x20 DUP4 ADD SWAP2 DUP3 MSTORE PUSH2 0x121C PUSH1 0x2 DUP3 ADD PUSH2 0x201C JUMP JUMPDEST SWAP3 PUSH1 0x40 DUP2 ADD SWAP4 DUP5 MSTORE PUSH1 0x3 DUP3 ADD SLOAD SWAP2 PUSH1 0x60 DUP3 ADD SWAP3 DUP4 MSTORE PUSH1 0x4 DUP2 ADD SLOAD SWAP5 PUSH1 0x80 DUP4 ADD SWAP6 DUP7 MSTORE PUSH1 0x5 DUP3 ADD SLOAD PUSH1 0xA0 DUP5 ADD SWAP1 DUP2 MSTORE PUSH1 0xFF PUSH1 0x6 DUP5 ADD SLOAD AND SWAP1 PUSH1 0xC0 DUP6 ADD SWAP1 PUSH1 0x4 DUP4 LT ISZERO PUSH2 0x6F4 JUMPI PUSH1 0x40 SWAP9 PUSH2 0x12FA SWAP4 DUP4 MSTORE PUSH2 0x12DC PUSH1 0x7 DUP8 ADD SLOAD SWAP6 PUSH1 0xE0 DUP10 ADD SWAP7 DUP8 MSTORE PUSH2 0x12C9 PUSH1 0xFF PUSH1 0x9 PUSH1 0x8 DUP12 ADD SLOAD SWAP11 PUSH2 0x100 DUP14 ADD SWAP12 DUP13 MSTORE ADD SLOAD AND SWAP10 PUSH2 0x120 DUP2 ADD SWAP11 ISZERO ISZERO DUP12 MSTORE PUSH2 0x140 DUP15 MLOAD SWAP15 DUP16 SWAP15 DUP16 SWAP4 PUSH1 0x20 DUP6 MSTORE PUSH1 0x1 DUP1 PUSH1 0xA0 SHL SUB SWAP1 MLOAD AND PUSH1 0x20 DUP6 ADD MSTORE MLOAD SWAP3 ADD MSTORE PUSH2 0x160 DUP14 ADD SWAP1 PUSH2 0x20BC JUMP JUMPDEST SWAP1 MLOAD DUP12 DUP3 SUB PUSH1 0x1F NOT ADD PUSH1 0x60 DUP14 ADD MSTORE PUSH2 0x20BC JUMP JUMPDEST SWAP8 MLOAD PUSH1 0x80 DUP11 ADD MSTORE MLOAD PUSH1 0xA0 DUP10 ADD MSTORE MLOAD PUSH1 0xC0 DUP9 ADD MSTORE MLOAD PUSH1 0xE0 DUP8 ADD SWAP1 PUSH2 0x20E0 JUMP JUMPDEST MLOAD PUSH2 0x100 DUP6 ADD MSTORE MLOAD PUSH2 0x120 DUP5 ADD MSTORE MLOAD ISZERO ISZERO PUSH2 0x140 DUP4 ADD MSTORE SUB SWAP1 RETURN JUMPDEST CALLVALUE PUSH2 0x224 JUMPI PUSH0 CALLDATASIZE PUSH1 0x3 NOT ADD SLT PUSH2 0x224 JUMPI PUSH1 0x20 PUSH1 0x40 MLOAD PUSH1 0xA DUP2 MSTORE RETURN JUMPDEST CALLVALUE PUSH2 0x224 JUMPI PUSH1 0x20 CALLDATASIZE PUSH1 0x3 NOT ADD SLT PUSH2 0x224 JUMPI PUSH1 0x4 CALLDATALOAD DUP1 PUSH0 MSTORE PUSH1 0x4 PUSH1 0x20 MSTORE PUSH1 0xFF PUSH1 0x9 PUSH1 0x40 PUSH0 KECCAK256 ADD SLOAD AND ISZERO PUSH2 0x3A6 JUMPI PUSH0 MSTORE PUSH1 0x5 PUSH1 0x20 MSTORE PUSH1 0x40 PUSH0 KECCAK256 DUP1 SLOAD SWAP1 PUSH1 0x1 PUSH1 0x1 PUSH1 0x40 SHL SUB DUP3 GT PUSH2 0x69F JUMPI PUSH1 0x40 MLOAD SWAP2 PUSH2 0x138C PUSH1 0x20 DUP3 PUSH1 0x5 SHL ADD DUP5 PUSH2 0x1FFB JUMP JUMPDEST DUP1 DUP4 MSTORE PUSH1 0x20 DUP4 ADD DUP1 SWAP3 PUSH0 MSTORE PUSH1 0x20 PUSH0 KECCAK256 PUSH0 SWAP2 JUMPDEST DUP4 DUP4 LT PUSH2 0x140B JUMPI DUP5 DUP7 PUSH1 0x40 MLOAD SWAP2 DUP3 SWAP2 PUSH1 0x20 DUP4 ADD SWAP1 PUSH1 0x20 DUP5 MSTORE MLOAD DUP1 SWAP2 MSTORE PUSH1 0x40 DUP4 ADD SWAP1 PUSH1 0x40 DUP2 PUSH1 0x5 SHL DUP6 ADD ADD SWAP3 SWAP2 PUSH0 SWAP1 JUMPDEST DUP3 DUP3 LT PUSH2 0x13DC JUMPI POP POP POP POP SUB SWAP1 RETURN JUMPDEST SWAP2 SWAP4 PUSH1 0x1 SWAP2 SWAP4 SWAP6 POP PUSH1 0x20 PUSH2 0x13FB DUP2 SWAP3 PUSH1 0x3F NOT DUP11 DUP3 SUB ADD DUP7 MSTORE DUP9 MLOAD PUSH2 0x2179 JUMP JUMPDEST SWAP7 ADD SWAP3 ADD SWAP3 ADD DUP6 SWAP5 SWAP4 SWAP2 SWAP3 PUSH2 0x13CD JUMP JUMPDEST PUSH1 0x6 PUSH1 0x20 PUSH1 0x1 SWAP3 PUSH2 0x141B DUP6 PUSH2 0x2271 JUMP JUMPDEST DUP2 MSTORE ADD SWAP3 ADD SWAP3 ADD SWAP2 SWAP1 PUSH2 0x139E JUMP JUMPDEST CALLVALUE PUSH2 0x224 JUMPI PUSH0 CALLDATASIZE PUSH1 0x3 NOT ADD SLT PUSH2 0x224 JUMPI PUSH2 0x1441 PUSH2 0x2430 JUMP JUMPDEST PUSH0 SLOAD PUSH1 0xFF DUP2 PUSH1 0xA0 SHR AND ISZERO PUSH2 0x1486 JUMPI PUSH1 0xFF PUSH1 0xA0 SHL NOT AND PUSH0 SSTORE PUSH1 0x40 MLOAD CALLER DUP2 MSTORE PUSH32 0x5DB9EE0A495BF2E6FF9C91A7834C1BA4FDD244A5E8AA4E537BD38AEAE4B073AA SWAP1 PUSH1 0x20 SWAP1 LOG1 STOP JUMPDEST PUSH4 0x8DFC202B PUSH1 0xE0 SHL PUSH0 MSTORE PUSH1 0x4 PUSH0 REVERT JUMPDEST CALLVALUE PUSH2 0x224 JUMPI PUSH1 0x20 CALLDATASIZE PUSH1 0x3 NOT ADD SLT PUSH2 0x224 JUMPI PUSH1 0x4 CALLDATALOAD DUP1 PUSH0 MSTORE PUSH1 0x4 PUSH1 0x20 MSTORE PUSH1 0xFF PUSH1 0x9 PUSH1 0x40 PUSH0 KECCAK256 ADD SLOAD AND ISZERO PUSH2 0x3A6 JUMPI PUSH0 MSTORE PUSH1 0x9 PUSH1 0x20 MSTORE PUSH1 0x40 PUSH0 KECCAK256 PUSH1 0x40 MLOAD DUP1 PUSH1 0x20 DUP4 SLOAD SWAP2 DUP3 DUP2 MSTORE ADD SWAP1 DUP2 SWAP4 PUSH0 MSTORE PUSH1 0x20 PUSH0 KECCAK256 SWAP1 PUSH0 JUMPDEST DUP2 DUP2 LT PUSH2 0x1546 JUMPI POP POP POP DUP2 PUSH2 0x14FB SWAP2 SUB DUP3 PUSH2 0x1FFB JUMP JUMPDEST PUSH1 0x40 MLOAD SWAP2 DUP3 SWAP2 PUSH1 0x20 DUP4 ADD SWAP1 PUSH1 0x20 DUP5 MSTORE MLOAD DUP1 SWAP2 MSTORE PUSH1 0x40 DUP4 ADD SWAP2 SWAP1 PUSH0 JUMPDEST DUP2 DUP2 LT PUSH2 0x1524 JUMPI POP POP POP SUB SWAP1 RETURN JUMPDEST DUP3 MLOAD PUSH1 0x1 PUSH1 0x1 PUSH1 0xA0 SHL SUB AND DUP5 MSTORE DUP6 SWAP5 POP PUSH1 0x20 SWAP4 DUP5 ADD SWAP4 SWAP1 SWAP3 ADD SWAP2 PUSH1 0x1 ADD PUSH2 0x1516 JUMP JUMPDEST DUP3 SLOAD PUSH1 0x1 PUSH1 0x1 PUSH1 0xA0 SHL SUB AND DUP5 MSTORE PUSH1 0x20 SWAP1 SWAP4 ADD SWAP3 PUSH1 0x1 SWAP3 DUP4 ADD SWAP3 ADD PUSH2 0x14E5 JUMP JUMPDEST CALLVALUE PUSH2 0x224 JUMPI PUSH1 0xC0 CALLDATASIZE PUSH1 0x3 NOT ADD SLT PUSH2 0x224 JUMPI PUSH1 0x4 CALLDATALOAD PUSH1 0x1 PUSH1 0x1 PUSH1 0x40 SHL SUB DUP2 GT PUSH2 0x224 JUMPI PUSH2 0x1595 SWAP1 CALLDATASIZE SWAP1 PUSH1 0x4 ADD PUSH2 0x211C JUMP JUMPDEST SWAP1 PUSH1 0x24 CALLDATALOAD PUSH1 0x1 PUSH1 0x1 PUSH1 0x40 SHL SUB DUP2 GT PUSH2 0x224 JUMPI PUSH2 0x15B5 SWAP1 CALLDATASIZE SWAP1 PUSH1 0x4 ADD PUSH2 0x211C JUMP JUMPDEST SWAP1 SWAP2 PUSH1 0x44 CALLDATALOAD PUSH1 0x64 CALLDATALOAD PUSH1 0x84 CALLDATALOAD PUSH1 0x1 PUSH1 0x1 PUSH1 0x40 SHL SUB DUP2 GT PUSH2 0x224 JUMPI PUSH2 0x15DC SWAP1 CALLDATASIZE SWAP1 PUSH1 0x4 ADD PUSH2 0x2149 JUMP JUMPDEST SWAP7 SWAP1 SWAP4 PUSH1 0xA4 CALLDATALOAD PUSH1 0x1 PUSH1 0x1 PUSH1 0x40 SHL SUB DUP2 GT PUSH2 0x224 JUMPI PUSH2 0x15FE SWAP1 CALLDATASIZE SWAP1 PUSH1 0x4 ADD PUSH2 0x2149 JUMP JUMPDEST SWAP9 SWAP1 SWAP7 PUSH2 0x1609 PUSH2 0x2456 JUMP JUMPDEST DUP4 ISZERO PUSH2 0x1CFA JUMPI DUP1 ISZERO PUSH2 0x1CEB JUMPI DUP6 ISZERO PUSH2 0x1CDC JUMPI PUSH3 0x15180 DUP6 LT DUP1 ISZERO PUSH2 0x1CD0 JUMPI JUMPDEST PUSH2 0x1CC1 JUMPI DUP2 ISZERO PUSH2 0x1CB2 JUMPI PUSH1 0xA DUP3 GT PUSH2 0x1CA3 JUMPI DUP10 DUP3 SUB PUSH2 0x1C50 JUMPI DUP6 PUSH0 PUSH0 JUMPDEST DUP13 DUP2 LT PUSH2 0x1C5F JUMPI POP SUB PUSH2 0x1C50 JUMPI PUSH2 0x166B PUSH2 0x1660 PUSH1 0x1 SLOAD PUSH2 0x21FA JUMP JUMPDEST SWAP6 DUP7 PUSH1 0x1 SSTORE TIMESTAMP PUSH2 0x21ED JUMP JUMPDEST SWAP9 PUSH2 0x1699 PUSH1 0x40 MLOAD SWAP2 PUSH2 0x167C DUP4 PUSH2 0x1FC3 JUMP JUMPDEST CALLER DUP4 MSTORE PUSH2 0x168A CALLDATASIZE DUP9 DUP9 PUSH2 0x2223 JUMP JUMPDEST SWAP4 PUSH1 0x20 DUP5 ADD SWAP5 DUP6 MSTORE CALLDATASIZE SWAP2 PUSH2 0x2223 JUMP JUMPDEST PUSH1 0x40 DUP3 ADD SWAP1 DUP2 MSTORE PUSH1 0x60 DUP3 ADD SWAP3 DUP9 DUP5 MSTORE PUSH1 0x80 DUP4 ADD PUSH0 DUP2 MSTORE PUSH1 0xA0 DUP5 ADD DUP14 DUP2 MSTORE PUSH1 0xC0 DUP6 ADD SWAP2 PUSH0 DUP4 MSTORE PUSH1 0xE0 DUP7 ADD SWAP7 PUSH0 DUP9 MSTORE PUSH2 0x100 DUP8 ADD SWAP6 PUSH0 DUP8 MSTORE PUSH2 0x120 DUP9 ADD SWAP6 PUSH1 0x1 DUP8 MSTORE DUP14 PUSH0 MSTORE PUSH1 0x4 PUSH1 0x20 MSTORE PUSH1 0x40 PUSH0 KECCAK256 SWAP9 PUSH1 0x1 DUP1 PUSH1 0xA0 SHL SUB SWAP1 MLOAD AND PUSH12 0xFFFFFFFFFFFFFFFFFFFFFFFF PUSH1 0xA0 SHL DUP11 SLOAD AND OR DUP10 SSTORE PUSH1 0x1 DUP10 ADD SWAP1 MLOAD DUP1 MLOAD SWAP1 PUSH1 0x1 PUSH1 0x1 PUSH1 0x40 SHL SUB DUP3 GT PUSH2 0x69F JUMPI DUP2 SWAP1 PUSH2 0x1729 DUP5 SLOAD PUSH2 0x1F8B JUMP JUMPDEST PUSH1 0x1F DUP2 GT PUSH2 0x1C00 JUMPI JUMPDEST POP PUSH1 0x20 SWAP1 PUSH1 0x1F DUP4 GT PUSH1 0x1 EQ PUSH2 0x1B9D JUMPI PUSH0 SWAP3 PUSH2 0x1B92 JUMPI JUMPDEST POP POP DUP2 PUSH1 0x1 SHL SWAP2 PUSH0 NOT SWAP1 PUSH1 0x3 SHL SHR NOT AND OR SWAP1 SSTORE JUMPDEST MLOAD DUP1 MLOAD PUSH1 0x2 DUP10 ADD SWAP2 PUSH1 0x1 PUSH1 0x1 PUSH1 0x40 SHL SUB DUP3 GT PUSH2 0x69F JUMPI DUP2 SWAP1 PUSH2 0x177E DUP5 SLOAD PUSH2 0x1F8B JUMP JUMPDEST PUSH1 0x1F DUP2 GT PUSH2 0x1B42 JUMPI JUMPDEST POP PUSH1 0x20 SWAP1 PUSH1 0x1F DUP4 GT PUSH1 0x1 EQ PUSH2 0x1ADF JUMPI PUSH0 SWAP3 PUSH2 0x1AD4 JUMPI JUMPDEST POP POP DUP2 PUSH1 0x1 SHL SWAP2 PUSH0 NOT SWAP1 PUSH1 0x3 SHL SHR NOT AND OR SWAP1 SSTORE JUMPDEST MLOAD PUSH1 0x3 DUP8 ADD SSTORE MLOAD PUSH1 0x4 DUP7 ADD SSTORE MLOAD PUSH1 0x5 DUP6 ADD SSTORE MLOAD SWAP2 PUSH1 0x4 DUP4 LT ISZERO PUSH2 0x6F4 JUMPI PUSH2 0x1806 SWAP5 PUSH2 0x17E4 PUSH1 0x9 SWAP5 SWAP12 SWAP15 SWAP12 PUSH1 0x6 DUP8 ADD PUSH2 0x2259 JUMP JUMPDEST MLOAD PUSH1 0x7 DUP6 ADD SSTORE MLOAD PUSH1 0x8 DUP5 ADD SSTORE MLOAD ISZERO ISZERO SWAP2 ADD SWAP1 PUSH1 0xFF DUP1 NOT DUP4 SLOAD AND SWAP2 ISZERO ISZERO AND OR SWAP1 SSTORE JUMP JUMPDEST CALLDATASIZE DUP7 SWAP1 SUB PUSH1 0x1E NOT ADD SWAP5 PUSH0 JUMPDEST DUP3 DUP2 LT ISZERO PUSH2 0x1A65 JUMPI DUP6 PUSH0 MSTORE PUSH1 0x5 PUSH1 0x20 MSTORE PUSH1 0x40 PUSH0 KECCAK256 DUP2 PUSH1 0x5 SHL DUP10 ADD CALLDATALOAD DUP9 DUP2 SLT ISZERO PUSH2 0x224 JUMPI DUP10 ADD SWAP1 DUP2 CALLDATALOAD SWAP2 PUSH1 0x1 PUSH1 0x1 PUSH1 0x40 SHL SUB DUP4 GT PUSH2 0x224 JUMPI PUSH1 0x20 ADD DUP3 CALLDATASIZE SUB DUP2 SGT PUSH2 0x224 JUMPI PUSH2 0x1879 PUSH2 0x1863 DUP16 DUP7 SWAP1 DUP16 PUSH2 0x21DD JUMP JUMPDEST CALLDATALOAD SWAP2 PUSH1 0x40 MLOAD SWAP5 PUSH2 0x1872 DUP7 PUSH2 0x1FDF JUMP JUMPDEST CALLDATASIZE SWAP2 PUSH2 0x2223 JUMP JUMPDEST DUP4 MSTORE PUSH1 0x20 DUP4 ADD SWAP1 DUP2 MSTORE PUSH1 0x40 DUP4 ADD PUSH0 DUP2 MSTORE PUSH1 0x60 DUP5 ADD SWAP1 PUSH0 DUP3 MSTORE PUSH1 0x80 DUP6 ADD PUSH0 DUP2 MSTORE PUSH1 0xA0 DUP7 ADD SWAP3 PUSH0 DUP5 MSTORE PUSH1 0xC0 DUP8 ADD SWAP5 PUSH0 DUP7 MSTORE PUSH1 0xE0 DUP9 ADD SWAP7 PUSH0 DUP9 MSTORE DUP1 SLOAD PUSH1 0x1 PUSH1 0x40 SHL DUP2 LT ISZERO PUSH2 0x69F JUMPI PUSH2 0x18CD SWAP2 PUSH1 0x1 DUP3 ADD DUP2 SSTORE PUSH2 0x2103 JUMP JUMPDEST SWAP9 SWAP1 SWAP9 PUSH2 0x1A52 JUMPI MLOAD DUP1 MLOAD SWAP1 PUSH1 0x1 PUSH1 0x1 PUSH1 0x40 SHL SUB DUP3 GT PUSH2 0x69F JUMPI PUSH2 0x18F0 DUP11 SLOAD PUSH2 0x1F8B JUMP JUMPDEST PUSH1 0x1F DUP2 GT PUSH2 0x1A0D JUMPI JUMPDEST POP PUSH1 0x20 SWAP1 PUSH1 0x1F DUP4 GT PUSH1 0x1 EQ PUSH2 0x199C JUMPI SWAP2 DUP1 PUSH1 0x1 SWAP13 SWAP12 SWAP11 SWAP9 SWAP7 SWAP5 SWAP3 PUSH1 0x5 SWAP11 SWAP9 SWAP7 SWAP5 PUSH0 SWAP3 PUSH2 0x1991 JUMPI JUMPDEST POP POP PUSH0 NOT PUSH1 0x3 DUP4 SWAP1 SHL SHR NOT AND SWAP1 DUP13 SHL OR DUP10 SSTORE JUMPDEST MLOAD DUP11 DUP10 ADD SSTORE PUSH2 0x1955 PUSH1 0x2 DUP10 ADD SWAP4 MLOAD ISZERO ISZERO DUP5 SWAP1 PUSH1 0xFF DUP1 NOT DUP4 SLOAD AND SWAP2 ISZERO ISZERO AND OR SWAP1 SSTORE JUMP JUMPDEST MLOAD DUP3 SLOAD SWAP2 MLOAD PUSH3 0xFFFF00 NOT SWAP1 SWAP3 AND SWAP1 ISZERO ISZERO PUSH1 0x8 SHL PUSH2 0xFF00 AND OR SWAP1 ISZERO ISZERO PUSH1 0x10 SHL PUSH3 0xFF0000 AND OR SWAP1 SSTORE MLOAD PUSH1 0x3 DUP6 ADD SSTORE MLOAD PUSH1 0x4 DUP5 ADD SSTORE MLOAD SWAP2 ADD SSTORE ADD PUSH2 0x1811 JUMP JUMPDEST ADD MLOAD SWAP1 POP PUSH0 DUP1 PUSH2 0x1920 JUMP JUMPDEST SWAP1 PUSH1 0x1F NOT DUP4 AND SWAP2 DUP12 PUSH0 MSTORE DUP2 PUSH0 KECCAK256 SWAP3 PUSH0 JUMPDEST DUP2 DUP2 LT PUSH2 0x19F5 JUMPI POP SWAP3 PUSH1 0x1 SWAP14 SWAP13 SWAP12 SWAP10 SWAP8 SWAP6 SWAP4 SWAP3 DUP6 SWAP3 DUP16 SWAP5 SWAP7 PUSH1 0x5 SWAP14 SWAP12 SWAP10 SWAP8 LT PUSH2 0x19DD JUMPI JUMPDEST POP POP POP DUP2 SHL ADD DUP10 SSTORE PUSH2 0x1933 JUMP JUMPDEST ADD MLOAD PUSH0 NOT PUSH1 0xF8 DUP5 PUSH1 0x3 SHL AND SHR NOT AND SWAP1 SSTORE PUSH0 DUP1 DUP1 PUSH2 0x19D0 JUMP JUMPDEST SWAP3 SWAP4 PUSH1 0x20 PUSH1 0x1 DUP2 SWAP3 DUP8 DUP7 ADD MLOAD DUP2 SSTORE ADD SWAP6 ADD SWAP4 ADD PUSH2 0x19AC JUMP JUMPDEST DUP11 PUSH0 MSTORE PUSH1 0x20 PUSH0 KECCAK256 PUSH1 0x1F DUP5 ADD PUSH1 0x5 SHR DUP2 ADD SWAP2 PUSH1 0x20 DUP6 LT PUSH2 0x1A48 JUMPI JUMPDEST PUSH1 0x1F ADD PUSH1 0x5 SHR ADD SWAP1 JUMPDEST DUP2 DUP2 LT PUSH2 0x1A3D JUMPI POP PUSH2 0x18F9 JUMP JUMPDEST PUSH0 DUP2 SSTORE PUSH1 0x1 ADD PUSH2 0x1A30 JUMP JUMPDEST SWAP1 SWAP2 POP DUP2 SWAP1 PUSH2 0x1A27 JUMP JUMPDEST PUSH4 0x4E487B71 PUSH1 0xE0 SHL PUSH0 MSTORE PUSH0 PUSH1 0x4 MSTORE PUSH1 0x24 PUSH0 REVERT JUMPDEST POP PUSH1 0x20 SWAP6 POP SWAP2 PUSH32 0x9A6F279818B6C3ECAD22DD882C63460A80CEE0DF2841C888ADB08588AFF26C22 SWAP2 DUP6 SWAP4 DUP11 DUP7 PUSH1 0x40 MLOAD SWAP5 PUSH1 0x80 DUP7 MSTORE DUP2 PUSH1 0x80 DUP8 ADD MSTORE PUSH1 0xA0 DUP7 ADD CALLDATACOPY PUSH0 PUSH1 0xA0 DUP9 DUP7 ADD ADD MSTORE DUP9 DUP5 ADD MSTORE PUSH1 0x40 DUP4 ADD MSTORE PUSH1 0x60 DUP3 ADD MSTORE PUSH1 0xA0 DUP2 CALLER SWAP6 PUSH1 0x1F DUP1 NOT SWAP2 ADD AND DUP2 ADD SUB ADD SWAP1 LOG3 PUSH1 0x40 MLOAD SWAP1 DUP2 MSTORE RETURN JUMPDEST ADD MLOAD SWAP1 POP PUSH0 DUP1 PUSH2 0x179D JUMP JUMPDEST PUSH0 DUP6 DUP2 MSTORE DUP3 DUP2 KECCAK256 SWAP4 POP PUSH1 0x1F NOT DUP6 AND SWAP1 JUMPDEST DUP2 DUP2 LT PUSH2 0x1B2A JUMPI POP SWAP1 DUP5 PUSH1 0x1 SWAP6 SWAP5 SWAP4 SWAP3 LT PUSH2 0x1B12 JUMPI JUMPDEST POP POP POP DUP2 SHL ADD SWAP1 SSTORE PUSH2 0x17B1 JUMP JUMPDEST ADD MLOAD PUSH0 NOT PUSH1 0xF8 DUP5 PUSH1 0x3 SHL AND SHR NOT AND SWAP1 SSTORE PUSH0 DUP1 DUP1 PUSH2 0x1B05 JUMP JUMPDEST SWAP3 SWAP4 PUSH1 0x20 PUSH1 0x1 DUP2 SWAP3 DUP8 DUP7 ADD MLOAD DUP2 SSTORE ADD SWAP6 ADD SWAP4 ADD PUSH2 0x1AEF JUMP JUMPDEST SWAP1 SWAP2 POP DUP4 PUSH0 MSTORE PUSH1 0x20 PUSH0 KECCAK256 PUSH1 0x1F DUP5 ADD PUSH1 0x5 SHR DUP2 ADD SWAP2 PUSH1 0x20 DUP6 LT PUSH2 0x1B88 JUMPI JUMPDEST SWAP1 PUSH1 0x1F DUP6 SWAP5 SWAP4 SWAP3 ADD PUSH1 0x5 SHR ADD SWAP1 JUMPDEST DUP2 DUP2 LT PUSH2 0x1B7A JUMPI POP PUSH2 0x1787 JUMP JUMPDEST PUSH0 DUP2 SSTORE DUP5 SWAP4 POP PUSH1 0x1 ADD PUSH2 0x1B6D JUMP JUMPDEST SWAP1 SWAP2 POP DUP2 SWAP1 PUSH2 0x1B5F JUMP JUMPDEST ADD MLOAD SWAP1 POP PUSH0 DUP1 PUSH2 0x1748 JUMP JUMPDEST PUSH0 DUP6 DUP2 MSTORE DUP3 DUP2 KECCAK256 SWAP4 POP PUSH1 0x1F NOT DUP6 AND SWAP1 JUMPDEST DUP2 DUP2 LT PUSH2 0x1BE8 JUMPI POP SWAP1 DUP5 PUSH1 0x1 SWAP6 SWAP5 SWAP4 SWAP3 LT PUSH2 0x1BD0 JUMPI JUMPDEST POP POP POP DUP2 SHL ADD SWAP1 SSTORE PUSH2 0x175C JUMP JUMPDEST ADD MLOAD PUSH0 NOT PUSH1 0xF8 DUP5 PUSH1 0x3 SHL AND SHR NOT AND SWAP1 SSTORE PUSH0 DUP1 DUP1 PUSH2 0x1BC3 JUMP JUMPDEST SWAP3 SWAP4 PUSH1 0x20 PUSH1 0x1 DUP2 SWAP3 DUP8 DUP7 ADD MLOAD DUP2 SSTORE ADD SWAP6 ADD SWAP4 ADD PUSH2 0x1BAD JUMP JUMPDEST SWAP1 SWAP2 POP DUP4 PUSH0 MSTORE PUSH1 0x20 PUSH0 KECCAK256 PUSH1 0x1F DUP5 ADD PUSH1 0x5 SHR DUP2 ADD SWAP2 PUSH1 0x20 DUP6 LT PUSH2 0x1C46 JUMPI JUMPDEST SWAP1 PUSH1 0x1F DUP6 SWAP5 SWAP4 SWAP3 ADD PUSH1 0x5 SHR ADD SWAP1 JUMPDEST DUP2 DUP2 LT PUSH2 0x1C38 JUMPI POP PUSH2 0x1732 JUMP JUMPDEST PUSH0 DUP2 SSTORE DUP5 SWAP4 POP PUSH1 0x1 ADD PUSH2 0x1C2B JUMP JUMPDEST SWAP1 SWAP2 POP DUP2 SWAP1 PUSH2 0x1C1D JUMP JUMPDEST PUSH4 0x11091513 PUSH1 0xE2 SHL PUSH0 MSTORE PUSH1 0x4 PUSH0 REVERT JUMPDEST SWAP2 POP PUSH2 0x1C6C DUP3 DUP14 DUP13 PUSH2 0x21DD JUMP JUMPDEST CALLDATALOAD ISZERO PUSH2 0x1C94 JUMPI PUSH2 0x1C8A PUSH1 0x1 SWAP2 PUSH2 0x1C83 DUP5 DUP16 DUP15 PUSH2 0x21DD JUMP JUMPDEST CALLDATALOAD SWAP1 PUSH2 0x21ED JUMP JUMPDEST SWAP2 ADD SWAP1 DUP8 SWAP2 PUSH2 0x1645 JUMP JUMPDEST PUSH4 0x9494117D PUSH1 0xE0 SHL PUSH0 MSTORE PUSH1 0x4 PUSH0 REVERT JUMPDEST PUSH4 0x8A719965 PUSH1 0xE0 SHL PUSH0 MSTORE PUSH1 0x4 PUSH0 REVERT JUMPDEST PUSH4 0x5DFECE3F PUSH1 0xE0 SHL PUSH0 MSTORE PUSH1 0x4 PUSH0 REVERT JUMPDEST PUSH4 0x76166401 PUSH1 0xE0 SHL PUSH0 MSTORE PUSH1 0x4 PUSH0 REVERT JUMPDEST POP PUSH3 0x76A700 DUP6 GT PUSH2 0x1628 JUMP JUMPDEST PUSH4 0x9B60EB4D PUSH1 0xE0 SHL PUSH0 MSTORE PUSH1 0x4 PUSH0 REVERT JUMPDEST PUSH4 0xD937D5DF PUSH1 0xE0 SHL PUSH0 MSTORE PUSH1 0x4 PUSH0 REVERT JUMPDEST PUSH4 0x52DDCDEF PUSH1 0xE1 SHL PUSH0 MSTORE PUSH1 0x4 PUSH0 REVERT JUMPDEST CALLVALUE PUSH2 0x224 JUMPI PUSH2 0x1D17 CALLDATASIZE PUSH2 0x20ED JUMP JUMPDEST SWAP1 PUSH0 MSTORE PUSH1 0x5 PUSH1 0x20 MSTORE PUSH1 0x40 PUSH0 KECCAK256 DUP1 SLOAD DUP3 LT ISZERO PUSH2 0x224 JUMPI PUSH2 0x1D78 SWAP2 PUSH2 0x1D39 SWAP2 PUSH2 0x2103 JUMP JUMPDEST POP PUSH2 0x1D43 DUP2 PUSH2 0x201C JUMP JUMPDEST SWAP1 PUSH1 0x1 DUP2 ADD SLOAD SWAP1 PUSH1 0x2 DUP2 ADD SLOAD SWAP1 PUSH1 0x3 DUP2 ADD SLOAD PUSH1 0xFF PUSH1 0x5 PUSH1 0x4 DUP5 ADD SLOAD SWAP4 ADD SLOAD SWAP4 PUSH1 0x40 MLOAD SWAP8 DUP9 SWAP8 PUSH2 0x100 DUP10 MSTORE PUSH2 0x100 DUP10 ADD SWAP1 PUSH2 0x20BC JUMP JUMPDEST SWAP6 PUSH1 0x20 DUP9 ADD MSTORE DUP2 DUP2 AND ISZERO ISZERO PUSH1 0x40 DUP9 ADD MSTORE DUP2 DUP2 PUSH1 0x8 SHR AND ISZERO ISZERO PUSH1 0x60 DUP9 ADD MSTORE PUSH1 0x10 SHR AND ISZERO ISZERO PUSH1 0x80 DUP7 ADD MSTORE PUSH1 0xA0 DUP6 ADD MSTORE PUSH1 0xC0 DUP5 ADD MSTORE PUSH1 0xE0 DUP4 ADD MSTORE SUB SWAP1 RETURN JUMPDEST CALLVALUE PUSH2 0x224 JUMPI PUSH1 0x20 CALLDATASIZE PUSH1 0x3 NOT ADD SLT PUSH2 0x224 JUMPI PUSH1 0x4 DUP1 CALLDATALOAD PUSH0 SWAP1 DUP2 MSTORE PUSH1 0x20 SWAP2 DUP3 MSTORE PUSH1 0x40 SWAP1 KECCAK256 DUP1 SLOAD PUSH1 0x1 PUSH1 0x1 PUSH1 0xA0 SHL SUB AND SWAP1 PUSH2 0x1DED PUSH1 0x1 DUP3 ADD PUSH2 0x201C JUMP JUMPDEST PUSH2 0x1DF9 PUSH1 0x2 DUP4 ADD PUSH2 0x201C JUMP JUMPDEST SWAP2 PUSH1 0x3 DUP2 ADD SLOAD SWAP3 PUSH2 0x1E72 PUSH1 0x4 DUP4 ADD SLOAD PUSH1 0x5 DUP5 ADD SLOAD PUSH1 0xFF PUSH1 0x6 DUP7 ADD SLOAD AND SWAP2 PUSH2 0x1E58 PUSH1 0x7 DUP8 ADD SLOAD SWAP6 PUSH2 0x1E4A PUSH1 0xFF PUSH1 0x9 PUSH1 0x8 DUP12 ADD SLOAD SWAP11 ADD SLOAD AND SWAP10 PUSH2 0x140 PUSH1 0x40 MLOAD SWAP15 DUP16 SWAP15 DUP16 SWAP1 DUP2 MSTORE ADD MSTORE PUSH2 0x140 DUP14 ADD SWAP1 PUSH2 0x20BC JUMP JUMPDEST SWAP1 DUP12 DUP3 SUB PUSH1 0x40 DUP14 ADD MSTORE PUSH2 0x20BC JUMP JUMPDEST SWAP8 PUSH1 0x60 DUP11 ADD MSTORE PUSH1 0x80 DUP10 ADD MSTORE PUSH1 0xA0 DUP9 ADD MSTORE PUSH1 0xC0 DUP8 ADD SWAP1 PUSH2 0x20E0 JUMP JUMPDEST PUSH1 0xE0 DUP6 ADD MSTORE PUSH2 0x100 DUP5 ADD MSTORE ISZERO ISZERO PUSH2 0x120 DUP4 ADD MSTORE SUB SWAP1 RETURN JUMPDEST CALLVALUE PUSH2 0x224 JUMPI PUSH2 0x1E97 CALLDATASIZE PUSH2 0x1F61 JUMP JUMPDEST SWAP2 PUSH0 MSTORE PUSH1 0x8 PUSH1 0x20 MSTORE PUSH1 0x40 PUSH0 KECCAK256 SWAP1 PUSH0 MSTORE PUSH1 0x20 MSTORE PUSH1 0x40 PUSH0 KECCAK256 SWAP1 PUSH1 0x1 DUP1 PUSH1 0xA0 SHL SUB AND PUSH0 MSTORE PUSH1 0x20 MSTORE PUSH1 0x20 PUSH1 0xFF PUSH1 0x40 PUSH0 KECCAK256 SLOAD AND PUSH1 0x40 MLOAD SWAP1 ISZERO ISZERO DUP2 MSTORE RETURN JUMPDEST CALLVALUE PUSH2 0x224 JUMPI PUSH1 0x20 CALLDATASIZE PUSH1 0x3 NOT ADD SLT PUSH2 0x224 JUMPI PUSH2 0x1EE8 PUSH2 0x1F35 JUMP JUMPDEST PUSH2 0x1EF0 PUSH2 0x2430 JUMP JUMPDEST PUSH1 0x3 DUP1 SLOAD PUSH1 0x1 PUSH1 0x1 PUSH1 0xA0 SHL SUB NOT AND PUSH1 0x1 PUSH1 0x1 PUSH1 0xA0 SHL SUB SWAP3 SWAP1 SWAP3 AND SWAP2 DUP3 OR SWAP1 SSTORE PUSH32 0x1F46F1440957D747AFC9EB6E6B4C1173771B52512C4AF918144117FB38E813BB PUSH0 DUP1 LOG2 STOP JUMPDEST PUSH1 0x4 CALLDATALOAD SWAP1 PUSH1 0x1 PUSH1 0x1 PUSH1 0xA0 SHL SUB DUP3 AND DUP3 SUB PUSH2 0x224 JUMPI JUMP JUMPDEST PUSH1 0x24 CALLDATALOAD SWAP1 PUSH1 0x1 PUSH1 0x1 PUSH1 0xA0 SHL SUB DUP3 AND DUP3 SUB PUSH2 0x224 JUMPI JUMP JUMPDEST PUSH1 0x60 SWAP1 PUSH1 0x3 NOT ADD SLT PUSH2 0x224 JUMPI PUSH1 0x4 CALLDATALOAD SWAP1 PUSH1 0x24 CALLDATALOAD SWAP1 PUSH1 0x44 CALLDATALOAD PUSH1 0x1 PUSH1 0x1 PUSH1 0xA0 SHL SUB DUP2 AND DUP2 SUB PUSH2 0x224 JUMPI SWAP1 JUMP JUMPDEST SWAP1 PUSH1 0x1 DUP3 DUP2 SHR SWAP3 AND DUP1 ISZERO PUSH2 0x1FB9 JUMPI JUMPDEST PUSH1 0x20 DUP4 LT EQ PUSH2 0x1FA5 JUMPI JUMP JUMPDEST PUSH4 0x4E487B71 PUSH1 0xE0 SHL PUSH0 MSTORE PUSH1 0x22 PUSH1 0x4 MSTORE PUSH1 0x24 PUSH0 REVERT JUMPDEST SWAP2 PUSH1 0x7F AND SWAP2 PUSH2 0x1F9A JUMP JUMPDEST PUSH2 0x140 DUP2 ADD SWAP1 DUP2 LT PUSH1 0x1 PUSH1 0x1 PUSH1 0x40 SHL SUB DUP3 GT OR PUSH2 0x69F JUMPI PUSH1 0x40 MSTORE JUMP JUMPDEST PUSH2 0x100 DUP2 ADD SWAP1 DUP2 LT PUSH1 0x1 PUSH1 0x1 PUSH1 0x40 SHL SUB DUP3 GT OR PUSH2 0x69F JUMPI PUSH1 0x40 MSTORE JUMP JUMPDEST SWAP1 PUSH1 0x1F DUP1 NOT SWAP2 ADD AND DUP2 ADD SWAP1 DUP2 LT PUSH1 0x1 PUSH1 0x1 PUSH1 0x40 SHL SUB DUP3 GT OR PUSH2 0x69F JUMPI PUSH1 0x40 MSTORE JUMP JUMPDEST SWAP1 PUSH1 0x40 MLOAD SWAP2 DUP3 PUSH0 DUP3 SLOAD SWAP3 PUSH2 0x202F DUP5 PUSH2 0x1F8B JUMP JUMPDEST DUP1 DUP5 MSTORE SWAP4 PUSH1 0x1 DUP2 AND SWAP1 DUP2 ISZERO PUSH2 0x209A JUMPI POP PUSH1 0x1 EQ PUSH2 0x2056 JUMPI JUMPDEST POP PUSH2 0x2054 SWAP3 POP SUB DUP4 PUSH2 0x1FFB JUMP JUMPDEST JUMP JUMPDEST SWAP1 POP PUSH0 SWAP3 SWAP2 SWAP3 MSTORE PUSH1 0x20 PUSH0 KECCAK256 SWAP1 PUSH0 SWAP2 JUMPDEST DUP2 DUP4 LT PUSH2 0x207E JUMPI POP POP SWAP1 PUSH1 0x20 PUSH2 0x2054 SWAP3 DUP3 ADD ADD PUSH0 PUSH2 0x2047 JUMP JUMPDEST PUSH1 0x20 SWAP2 SWAP4 POP DUP1 PUSH1 0x1 SWAP2 SLOAD DUP4 DUP6 DUP10 ADD ADD MSTORE ADD SWAP2 ADD SWAP1 SWAP2 DUP5 SWAP3 PUSH2 0x2065 JUMP JUMPDEST SWAP1 POP PUSH1 0x20 SWAP3 POP PUSH2 0x2054 SWAP5 SWAP2 POP PUSH1 0xFF NOT AND DUP3 DUP5 ADD MSTORE ISZERO ISZERO PUSH1 0x5 SHL DUP3 ADD ADD PUSH0 PUSH2 0x2047 JUMP JUMPDEST DUP1 MLOAD DUP1 DUP4 MSTORE PUSH1 0x20 SWAP3 SWAP2 DUP2 SWAP1 DUP5 ADD DUP5 DUP5 ADD MCOPY PUSH0 DUP3 DUP3 ADD DUP5 ADD MSTORE PUSH1 0x1F ADD PUSH1 0x1F NOT AND ADD ADD SWAP1 JUMP JUMPDEST SWAP1 PUSH1 0x4 DUP3 LT ISZERO PUSH2 0x6F4 JUMPI MSTORE JUMP JUMPDEST PUSH1 0x40 SWAP1 PUSH1 0x3 NOT ADD SLT PUSH2 0x224 JUMPI PUSH1 0x4 CALLDATALOAD SWAP1 PUSH1 0x24 CALLDATALOAD SWAP1 JUMP JUMPDEST DUP1 SLOAD DUP3 LT ISZERO PUSH2 0x68B JUMPI PUSH0 MSTORE PUSH1 0x6 PUSH1 0x20 PUSH0 KECCAK256 SWAP2 MUL ADD SWAP1 PUSH0 SWAP1 JUMP JUMPDEST SWAP2 DUP2 PUSH1 0x1F DUP5 ADD SLT ISZERO PUSH2 0x224 JUMPI DUP3 CALLDATALOAD SWAP2 PUSH1 0x1 PUSH1 0x1 PUSH1 0x40 SHL SUB DUP4 GT PUSH2 0x224 JUMPI PUSH1 0x20 DUP4 DUP2 DUP7 ADD SWAP6 ADD ADD GT PUSH2 0x224 JUMPI JUMP JUMPDEST SWAP2 DUP2 PUSH1 0x1F DUP5 ADD SLT ISZERO PUSH2 0x224 JUMPI DUP3 CALLDATALOAD SWAP2 PUSH1 0x1 PUSH1 0x1 PUSH1 0x40 SHL SUB DUP4 GT PUSH2 0x224 JUMPI PUSH1 0x20 DUP1 DUP6 ADD SWAP5 DUP5 PUSH1 0x5 SHL ADD ADD GT PUSH2 0x224 JUMPI JUMP JUMPDEST SWAP1 PUSH1 0xE0 DUP1 PUSH2 0x2192 DUP5 MLOAD PUSH2 0x100 DUP6 MSTORE PUSH2 0x100 DUP6 ADD SWAP1 PUSH2 0x20BC JUMP JUMPDEST SWAP4 PUSH1 0x20 DUP2 ADD MLOAD PUSH1 0x20 DUP6 ADD MSTORE PUSH1 0x40 DUP2 ADD MLOAD ISZERO ISZERO PUSH1 0x40 DUP6 ADD MSTORE PUSH1 0x60 DUP2 ADD MLOAD ISZERO ISZERO PUSH1 0x60 DUP6 ADD MSTORE PUSH1 0x80 DUP2 ADD MLOAD ISZERO ISZERO PUSH1 0x80 DUP6 ADD MSTORE PUSH1 0xA0 DUP2 ADD MLOAD PUSH1 0xA0 DUP6 ADD MSTORE PUSH1 0xC0 DUP2 ADD MLOAD PUSH1 0xC0 DUP6 ADD MSTORE ADD MLOAD SWAP2 ADD MSTORE SWAP1 JUMP JUMPDEST SWAP2 SWAP1 DUP2 LT ISZERO PUSH2 0x68B JUMPI PUSH1 0x5 SHL ADD SWAP1 JUMP JUMPDEST SWAP2 SWAP1 DUP3 ADD DUP1 SWAP3 GT PUSH2 0x6B3 JUMPI JUMP JUMPDEST PUSH0 NOT DUP2 EQ PUSH2 0x6B3 JUMPI PUSH1 0x1 ADD SWAP1 JUMP JUMPDEST PUSH1 0x1 PUSH1 0x1 PUSH1 0x40 SHL SUB DUP2 GT PUSH2 0x69F JUMPI PUSH1 0x1F ADD PUSH1 0x1F NOT AND PUSH1 0x20 ADD SWAP1 JUMP JUMPDEST SWAP3 SWAP2 SWAP3 PUSH2 0x222F DUP3 PUSH2 0x2208 JUMP JUMPDEST SWAP2 PUSH2 0x223D PUSH1 0x40 MLOAD SWAP4 DUP5 PUSH2 0x1FFB JUMP JUMPDEST DUP3 SWAP5 DUP2 DUP5 MSTORE DUP2 DUP4 ADD GT PUSH2 0x224 JUMPI DUP3 DUP2 PUSH1 0x20 SWAP4 DUP5 PUSH0 SWAP7 ADD CALLDATACOPY ADD ADD MSTORE JUMP JUMPDEST SWAP1 PUSH1 0x4 DUP2 LT ISZERO PUSH2 0x6F4 JUMPI PUSH1 0xFF DUP1 NOT DUP4 SLOAD AND SWAP2 AND OR SWAP1 SSTORE JUMP JUMPDEST SWAP1 PUSH1 0x40 MLOAD PUSH2 0x227E DUP2 PUSH2 0x1FDF JUMP JUMPDEST PUSH1 0xE0 PUSH1 0x5 DUP3 SWAP5 PUSH2 0x228D DUP2 PUSH2 0x201C JUMP JUMPDEST DUP5 MSTORE PUSH1 0x1 DUP2 ADD SLOAD PUSH1 0x20 DUP6 ADD MSTORE PUSH1 0xFF PUSH1 0x2 DUP3 ADD SLOAD DUP2 DUP2 AND ISZERO ISZERO PUSH1 0x40 DUP8 ADD MSTORE DUP2 DUP2 PUSH1 0x8 SHR AND ISZERO ISZERO PUSH1 0x60 DUP8 ADD MSTORE PUSH1 0x10 SHR AND ISZERO ISZERO PUSH1 0x80 DUP6 ADD MSTORE PUSH1 0x3 DUP2 ADD SLOAD PUSH1 0xA0 DUP6 ADD MSTORE PUSH1 0x4 DUP2 ADD SLOAD PUSH1 0xC0 DUP6 ADD MSTORE ADD SLOAD SWAP2 ADD MSTORE JUMP JUMPDEST RETURNDATASIZE ISZERO PUSH2 0x2307 JUMPI RETURNDATASIZE SWAP1 PUSH2 0x22EE DUP3 PUSH2 0x2208 JUMP JUMPDEST SWAP2 PUSH2 0x22FC PUSH1 0x40 MLOAD SWAP4 DUP5 PUSH2 0x1FFB JUMP JUMPDEST DUP3 MSTORE RETURNDATASIZE PUSH0 PUSH1 0x20 DUP5 ADD RETURNDATACOPY JUMP JUMPDEST PUSH1 0x60 SWAP1 JUMP JUMPDEST PUSH0 SWAP3 SWAP2 DUP2 SLOAD SWAP2 PUSH2 0x231B DUP4 PUSH2 0x1F8B JUMP JUMPDEST DUP1 DUP4 MSTORE SWAP3 PUSH1 0x1 DUP2 AND SWAP1 DUP2 ISZERO PUSH2 0x2370 JUMPI POP PUSH1 0x1 EQ PUSH2 0x2337 JUMPI POP POP POP JUMP JUMPDEST PUSH0 SWAP1 DUP2 MSTORE PUSH1 0x20 DUP2 KECCAK256 SWAP4 SWAP5 POP SWAP2 SWAP3 JUMPDEST DUP4 DUP4 LT PUSH2 0x2356 JUMPI POP PUSH1 0x20 SWAP3 POP ADD ADD SWAP1 JUMP JUMPDEST PUSH1 0x1 DUP2 PUSH1 0x20 SWAP3 SWAP5 SWAP4 SWAP5 SLOAD DUP4 DUP6 DUP8 ADD ADD MSTORE ADD SWAP2 ADD SWAP2 SWAP1 PUSH2 0x2345 JUMP JUMPDEST SWAP2 POP POP PUSH1 0x20 SWAP4 SWAP5 POP PUSH1 0xFF SWAP3 SWAP2 SWAP3 NOT AND DUP4 DUP4 ADD MSTORE ISZERO ISZERO PUSH1 0x5 SHL ADD ADD SWAP1 JUMP JUMPDEST DUP1 PUSH0 MSTORE PUSH1 0x4 PUSH1 0x20 MSTORE PUSH1 0x40 PUSH0 KECCAK256 PUSH1 0x6 DUP2 ADD PUSH1 0xFF DUP2 SLOAD AND PUSH1 0x4 DUP2 LT ISZERO PUSH2 0x6F4 JUMPI PUSH2 0x242B JUMPI PUSH1 0x5 DUP3 ADD SLOAD TIMESTAMP GT ISZERO PUSH2 0x241C JUMPI PUSH1 0xFF PUSH1 0x20 SWAP2 DUP4 PUSH1 0x3 PUSH1 0x4 PUSH32 0x1289CF89AAAED53D6590C1B7996BA434EDB31DCBD322D0B88FF0C02F64BBDEEF SWAP7 ADD SLOAD SWAP2 ADD SLOAD GT ISZERO PUSH0 EQ PUSH2 0x2412 JUMPI PUSH2 0x2400 PUSH1 0x1 JUMPDEST DUP3 PUSH2 0x2259 JUMP JUMPDEST SLOAD AND PUSH2 0x240F PUSH1 0x40 MLOAD DUP1 SWAP3 PUSH2 0x20E0 JUMP JUMPDEST LOG2 JUMP JUMPDEST PUSH2 0x2400 PUSH1 0x2 PUSH2 0x23FA JUMP JUMPDEST PUSH4 0x2EB3543 PUSH1 0xE4 SHL PUSH0 MSTORE PUSH1 0x4 PUSH0 REVERT JUMPDEST POP POP POP JUMP JUMPDEST PUSH0 SLOAD PUSH1 0x1 PUSH1 0x1 PUSH1 0xA0 SHL SUB AND CALLER SUB PUSH2 0x2443 JUMPI JUMP JUMPDEST PUSH4 0x118CDAA7 PUSH1 0xE0 SHL PUSH0 MSTORE CALLER PUSH1 0x4 MSTORE PUSH1 0x24 PUSH0 REVERT JUMPDEST PUSH1 0xFF PUSH0 SLOAD PUSH1 0xA0 SHR AND PUSH2 0x2464 JUMPI JUMP JUMPDEST PUSH4 0xD93C0665 PUSH1 0xE0 SHL PUSH0 MSTORE PUSH1 0x4 PUSH0 REVERT JUMPDEST PUSH1 0x2 PUSH0 MLOAD PUSH1 0x20 PUSH2 0x24AC PUSH0 CODECOPY PUSH0 MLOAD SWAP1 PUSH0 MSTORE SLOAD EQ PUSH2 0x249C JUMPI PUSH1 0x2 PUSH0 MLOAD PUSH1 0x20 PUSH2 0x24AC PUSH0 CODECOPY PUSH0 MLOAD SWAP1 PUSH0 MSTORE SSTORE JUMP JUMPDEST PUSH4 0x3EE5AEB5 PUSH1 0xE0 SHL PUSH0 MSTORE PUSH1 0x4 PUSH0 REVERT INVALID SWAP12 PUSH24 0x9B17422D0DF92223018B32B4D1FA46E071723D6817E2486D STOP EXTCODESIZE 0xEC 0xC5 PUSH0 STOP LOG2 PUSH5 0x6970667358 0x22 SLT KECCAK256 0xFB CALLVALUE RETURNDATACOPY 0xF6 0xD1 CALLDATACOPY 0x23 PUSH25 0xF919F707F0B2873101B285264529A754D1BB4F52AEB928AF64 PUSH20 0x6F6C634300081C00330000000000000000000000 "},"methodIdentifiers":{"MAX_DURATION()":"b1724b46","MAX_MILESTONES()":"4c05abeb","MIN_DURATION()":"b6a6d177","VOTING_PERIOD()":"b1610d7e","backerBadgeContract()":"59b272d0","campaignContributions(uint256,address)":"22c59958","campaignCount()":"7274e30d","campaignMilestones(uint256,uint256)":"3178492a","campaigns(uint256)":"141961bc","claimRefund(uint256)":"5b7baf64","contribute(uint256)":"c1cbbca7","createCampaign(string,string,uint256,uint256,string[],uint256[])":"37c6bcaf","finalizeMilestone(uint256,uint256)":"afc1d289","getCampaign(uint256)":"5598f8cc","getContribution(uint256,address)":"e081dbf9","getContributors(uint256)":"3c1ab00f","getMilestone(uint256,uint256)":"8ed9895c","getMilestones(uint256)":"42c549c0","getVoteStatus(uint256,uint256,address)":"b41d30f2","hasRefunded(uint256,address)":"c9de59ef","hasVoted(uint256,uint256,address)":"0d39a1d3","isEligibleForRefund(uint256,address)":"b808a849","owner()":"8da5cb5b","pause()":"8456cb59","paused()":"5c975abb","platformFeePercent()":"8c639a85","renounceOwnership()":"715018a6","requestMilestoneRelease(uint256,uint256)":"baa93e03","setBackerBadgeContract(address)":"091e3385","totalPlatformFees()":"d3631fa5","transferOwnership(address)":"f2fde38b","unpause()":"3f4ba83a","updateCampaignStatus(uint256)":"c713b04c","vote(uint256,uint256,uint8)":"bbb2eab9","withdrawPlatformFees(address)":"ec3889b5"}}}}}