{"contracts/BackerBadge.sol":{"BackerBadge":{"abi":[{"inputs":[{"internalType":"address","name":"initialOwner","type":"address"}],"stateMutability":"nonpayable","type":"constructor"},{"inputs":[{"internalType":"address","name":"sender","type":"address"},{"internalType":"uint256","name":"tokenId","type":"uint256"},{"internalType":"address","name":"owner","type":"address"}],"name":"ERC721IncorrectOwner","type":"error"},{"inputs":[{"internalType":"address","name":"operator","type":"address"},{"internalType":"uint256","name":"tokenId","type":"uint256"}],"name":"ERC721InsufficientApproval","type":"error"},{"inputs":[{"internalType":"address","name":"approver","type":"address"}],"name":"ERC721InvalidApprover","type":"error"},{"inputs":[{"internalType":"address","name":"operator","type":"address"}],"name":"ERC721InvalidOperator","type":"error"},{"inputs":[{"internalType":"address","name":"owner","type":"address"}],"name":"ERC721InvalidOwner","type":"error"},{"inputs":[{"internalType":"address","name":"receiver","type":"address"}],"name":"ERC721InvalidReceiver","type":"error"},{"inputs":[{"internalType":"address","name":"sender","type":"address"}],"name":"ERC721InvalidSender","type":"error"},{"inputs":[{"internalType":"uint256","name":"tokenId","type":"uint256"}],"name":"ERC721NonexistentToken","type":"error"},{"inputs":[],"name":"EscrowNotSet","type":"error"},{"inputs":[],"name":"NotEscrowContract","type":"error"},{"inputs":[{"internalType":"address","name":"owner","type":"address"}],"name":"OwnableInvalidOwner","type":"error"},{"inputs":[{"internalType":"address","name":"account","type":"address"}],"name":"OwnableUnauthorizedAccount","type":"error"},{"inputs":[],"name":"SoulboundToken","type":"error"},{"anonymous":false,"inputs":[{"indexed":true,"internalType":"address","name":"owner","type":"address"},{"indexed":true,"internalType":"address","name":"approved","type":"address"},{"indexed":true,"internalType":"uint256","name":"tokenId","type":"uint256"}],"name":"Approval","type":"event"},{"anonymous":false,"inputs":[{"indexed":true,"internalType":"address","name":"owner","type":"address"},{"indexed":true,"internalType":"address","name":"operator","type":"address"},{"indexed":false,"internalType":"bool","name":"approved","type":"bool"}],"name":"ApprovalForAll","type":"event"},{"anonymous":false,"inputs":[{"indexed":true,"internalType":"uint256","name":"tokenId","type":"uint256"},{"indexed":true,"internalType":"address","name":"to","type":"address"},{"indexed":true,"internalType":"uint256","name":"campaignId","type":"uint256"},{"indexed":false,"internalType":"uint256","name":"amount","type":"uint256"}],"name":"BadgeMinted","type":"event"},{"anonymous":false,"inputs":[{"indexed":true,"internalType":"address","name":"escrow","type":"address"}],"name":"EscrowSet","type":"event"},{"anonymous":false,"inputs":[{"indexed":true,"internalType":"address","name":"previousOwner","type":"address"},{"indexed":true,"internalType":"address","name":"newOwner","type":"address"}],"name":"OwnershipTransferred","type":"event"},{"anonymous":false,"inputs":[{"indexed":true,"internalType":"address","name":"from","type":"address"},{"indexed":true,"internalType":"address","name":"to","type":"address"},{"indexed":true,"internalType":"uint256","name":"tokenId","type":"uint256"}],"name":"Transfer","type":"event"},{"inputs":[{"internalType":"address","name":"to","type":"address"},{"internalType":"uint256","name":"tokenId","type":"uint256"}],"name":"approve","outputs":[],"stateMutability":"nonpayable","type":"function"},{"inputs":[{"internalType":"uint256","name":"","type":"uint256"}],"name":"badgeData","outputs":[{"internalType":"uint256","name":"campaignId","type":"uint256"},{"internalType":"string","name":"campaignTitle","type":"string"},{"internalType":"uint256","name":"amount","type":"uint256"},{"internalType":"uint256","name":"mintedAt","type":"uint256"}],"stateMutability":"view","type":"function"},{"inputs":[{"internalType":"address","name":"owner","type":"address"}],"name":"balanceOf","outputs":[{"internalType":"uint256","name":"","type":"uint256"}],"stateMutability":"view","type":"function"},{"inputs":[],"name":"escrowContract","outputs":[{"internalType":"address","name":"","type":"address"}],"stateMutability":"view","type":"function"},{"inputs":[{"internalType":"uint256","name":"tokenId","type":"uint256"}],"name":"getApproved","outputs":[{"internalType":"address","name":"","type":"address"}],"stateMutability":"view","type":"function"},{"inputs":[{"internalType":"address","name":"owner","type":"address"}],"name":"getBadgesByOwner","outputs":[{"internalType":"uint256[]","name":"","type":"uint256[]"}],"stateMutability":"view","type":"function"},{"inputs":[{"internalType":"address","name":"owner","type":"address"},{"internalType":"address","name":"operator","type":"address"}],"name":"isApprovedForAll","outputs":[{"internalType":"bool","name":"","type":"bool"}],"stateMutability":"view","type":"function"},{"inputs":[{"internalType":"address","name":"to","type":"address"},{"internalType":"uint256","name":"campaignId","type":"uint256"},{"internalType":"string","name":"campaignTitle","type":"string"},{"internalType":"uint256","name":"amount","type":"uint256"}],"name":"mintBadge","outputs":[{"internalType":"uint256","name":"tokenId","type":"uint256"}],"stateMutability":"nonpayable","type":"function"},{"inputs":[],"name":"name","outputs":[{"internalType":"string","name":"","type":"string"}],"stateMutability":"view","type":"function"},{"inputs":[],"name":"owner","outputs":[{"internalType":"address","name":"","type":"address"}],"stateMutability":"view","type":"function"},{"inputs":[{"internalType":"uint256","name":"tokenId","type":"uint256"}],"name":"ownerOf","outputs":[{"internalType":"address","name":"","type":"address"}],"stateMutability":"view","type":"function"},{"inputs":[],"name":"renounceOwnership","outputs":[],"stateMutability":"nonpayable","type":"function"},{"inputs":[{"internalType":"address","name":"from","type":"address"},{"internalType":"address","name":"to","type":"address"},{"internalType":"uint256","name":"tokenId","type":"uint256"}],"name":"safeTransferFrom","outputs":[],"stateMutability":"nonpayable","type":"function"},{"inputs":[{"internalType":"address","name":"from","type":"address"},{"internalType":"address","name":"to","type":"address"},{"internalType":"uint256","name":"tokenId","type":"uint256"},{"internalType":"bytes","name":"data","type":"bytes"}],"name":"safeTransferFrom","outputs":[],"stateMutability":"nonpayable","type":"function"},{"inputs":[{"internalType":"address","name":"operator","type":"address"},{"internalType":"bool","name":"approved","type":"bool"}],"name":"setApprovalForAll","outputs":[],"stateMutability":"nonpayable","type":"function"},{"inputs":[{"internalType":"address","name":"_escrow","type":"address"}],"name":"setEscrowContract","outputs":[],"stateMutability":"nonpayable","type":"function"},{"inputs":[{"internalType":"bytes4","name":"interfaceId","type":"bytes4"}],"name":"supportsInterface","outputs":[{"internalType":"bool","name":"","type":"bool"}],"stateMutability":"view","type":"function"},{"inputs":[],"name":"symbol","outputs":[{"internalType":"string","name":"","type":"string"}],"stateMutability":"view","type":"function"},{"inputs":[{"internalType":"uint256","name":"tokenId","type":"uint256"}],"name":"tokenURI","outputs":[{"internalType":"string","name":"","type":"string"}],"stateMutability":"view","type":"function"},{"inputs":[],"name":"totalSupply","outputs":[{"internalType":"uint256","name":"","type":"uint256"}],"stateMutability":"view","type":"function"},{"inputs":[{"internalType":"address","name":"","type":"address"},{"internalType":"address","name":"","type":"address"},{"internalType":"uint256","name":"","type":"uint256"}],"name":"transferFrom","outputs":[],"stateMutability":"pure","type":"function"},{"inputs":[{"internalType":"address","name":"newOwner","type":"address"}],"name":"transferOwnership","outputs":[],"stateMutability":"nonpayable","type":"function"}],"evm":{"bytecode":{"linkReferences":{},"object":"6080604052346103975761240a6020813803918261001c8161039b565b93849283398101031261039757516001600160a01b0381169081900361039757610046604061039b565b90601582527f46756e64466c6f77204261636b65722042616467650000000000000000000000602083015261007b604061039b565b60078152664646424144474560c81b602082015282519091906001600160401b0381116102ab575f54600181811c9116801561038d575b602082101461028d57601f811161032b575b506020601f82116001146102ca57819293945f926102bf575b50508160011b915f199060031b1c1916175f555b81516001600160401b0381116102ab57600154600181811c911680156102a1575b602082101461028d57601f811161022a575b50602092601f82116001146101c957928192935f926101be575b50508160011b915f199060031b1c1916176001555b80156101ab57600680546001600160a01b03198116831790915560405191906001600160a01b03167f8be0079c531659141344cd1fd0a4f28419497f9722a3daafe3b4186f6b6457e05f80a361204990816103c18239f35b631e4fbdf760e01b5f525f60045260245ffd5b015190505f8061013e565b601f1982169360015f52805f20915f5b86811061021257508360019596106101fa575b505050811b01600155610153565b01515f1960f88460031b161c191690555f80806101ec565b919260206001819286850151815501940192016101d9565b60015f527fb10e2d527612073b26eecdfd717e6a320cf44b4afac2b0732d9fcbe2b7fa0cf6601f830160051c81019160208410610283575b601f0160051c01905b8181106102785750610124565b5f815560010161026b565b9091508190610262565b634e487b7160e01b5f52602260045260245ffd5b90607f1690610112565b634e487b7160e01b5f52604160045260245ffd5b015190505f806100dd565b601f198216905f8052805f20915f5b818110610313575095836001959697106102fb575b505050811b015f556100f1565b01515f1960f88460031b161c191690555f80806102ee565b9192602060018192868b0151815501940192016102d9565b5f80527f290decd9548b62a8d60345a988386fc84ba6bc95484008f6362f93160ef3e563601f830160051c81019160208410610383575b601f0160051c01905b81811061037857506100c4565b5f815560010161036b565b9091508190610362565b90607f16906100b2565b5f80fd5b6040519190601f01601f191682016001600160401b038111838210176102ab5760405256fe6080806040526004361015610012575f80fd5b5f3560e01c90816301ffc9a7146118fa5750806306fdde0314611858578063081812fc1461181c578063095ea7b31461173257806318160ddd1461171557806323b872dd146116f557806342842e0e146116c55780636352211e1461169557806370a0823114611644578063715018a6146115e95780638ca0c06c146111015780638da5cb5b146110d957806395d89b4114610ffb5780639df8cbe514610f47578063a22cb46514610e93578063a683f32b14610e30578063b88d4fde14610dcc578063c87b56dd1461027d578063e42a96e714610255578063e985e9c5146101fe578063f2fde38b146101785763f42375b51461010e575f80fd5b3461017457602036600319011261017457610127611989565b61012f611b8b565b600880546001600160a01b0319166001600160a01b039290921691821790557fa585aec3a6cb0e1a084ed18c7638024e40cc3e3ea815166e2cb6fc17d7f1392b5f80a2005b5f80fd5b3461017457602036600319011261017457610191611989565b610199611b8b565b6001600160a01b031680156101eb57600680546001600160a01b0319811683179091556001600160a01b03167f8be0079c531659141344cd1fd0a4f28419497f9722a3daafe3b4186f6b6457e05f80a3005b631e4fbdf760e01b5f525f60045260245ffd5b3461017457604036600319011261017457610217611989565b61021f61199f565b9060018060a01b03165f52600560205260405f209060018060a01b03165f52602052602060ff60405f2054166040519015158152f35b34610174575f366003190112610174576008546040516001600160a01b039091168152602090f35b346101745760203660031901126101745760043561029a81611b57565b50805f52600960205260405f206040516102b381611a27565b815481526102c360018301611a65565b9160208201928352600281015490604083019182526003015490606083019182526102ed85611bb2565b9484516102f990611d30565b958251670de0b6b3a7640000810461031090611bb2565b90670de0b6b3a76400009006655af3107a4000900461032e90611f0e565b906040518092602082019280516020819201855e820160208101601760f91b905281516020819301602183015e01602001600181015f905203600101601f198101835261037b9083611a43565b865161038690611bb2565b604080517f3c73766720786d6c6e733d22687474703a2f2f7777772e77332e6f72672f32306020808301919091527f30302f737667222076696577426f783d223020302034303020343030223e000092820192909252651e3232b3399f60d11b605e8201527f3c6c696e6561724772616469656e742069643d226267222078313d223025222060648201527f79313d223025222078323d2231303025222079323d2231303025223e0000000060848201527f3c73746f70206f66667365743d223025222020207374796c653d2273746f702d60a082018190526f31b7b637b91d1198311899991b11179f60811b60c08301527f3c73746f70206f66667365743d223130302522207374796c653d2273746f702d60d083018190526f31b7b637b91d1198b098b319b091179f60811b60f0840152701e17b634b732b0b923b930b234b2b73a1f60791b61010084018190527f3c6c696e6561724772616469656e742069643d22616363222078313d223025226101118501527f2079313d223025222078323d2231303025222079323d223025223e000000000061013185015261014c8401929092526f31b7b637b91d119a31b21bb31b11179f60811b61016c84015261017c8301526f31b7b637b91d119a32b232b09991179f60811b61019c8301526101ac820152661e17b232b3399f60c91b6101bd8201527f3c726563742077696474683d2234303022206865696768743d223430302220726101c48201527f783d223234222066696c6c3d2275726c2823626729222f3e00000000000000006101e48201527f3c726563742077696474683d2233393822206865696768743d223339382220786101fc8201527f3d22312220793d2231222072783d223233222066696c6c3d226e6f6e6522207361021c8201527f74726f6b653d2272676261283235352c3235352c3235352c302e30382922207361023c820152703a3937b5b296bbb4b23a341e911891179f60791b61025c8201527f3c7465787420783d223230302220793d2237322220746578742d616e63686f7261026d8201527f3d226d6964646c652220666f6e742d66616d696c793d22496e7465722c73616e61028d8201527f732d73657269662220666f6e742d73697a653d223131222066696c6c3d2223636102ad8201527f376334643722206c65747465722d73706163696e673d2234223e46554e44464c6102cd8201527527ab902120a1a5a2a9102120a223a29e17ba32bc3a1f60511b6102ed8201527f3c636972636c652063783d22323030222063793d223136352220723d223532226103038201527f2066696c6c3d226e6f6e6522207374726f6b653d2275726c28236163632922206103238201527339ba3937b5b296bbb4b23a341e9118971a91179f60611b6103438201527f3c7465787420783d223230302220793d223135382220746578742d616e63686f6103578201525f516020611ff45f395f51905f5261037782018190527f6e732d73657269662220666f6e742d73697a653d223330222066696c6c3d22236103978301527531983198b333111f13119c9b1b981d9e17ba32bc3a1f60511b6103b78301527f3c7465787420783d223230302220793d223138302220746578742d616e63686f6103cd8301526103ed8201527f6e732d73657269662220666f6e742d73697a653d223130222066696c6c3d222361040d82015268346564656133223e2360b81b61042d8201528551909b8c96939593909282910161043688015e661e17ba32bc3a1f60c91b610436918701918201527f3c7465787420783d223230302220793d223235342220746578742d616e63686f61043d8201525f516020611ff45f395f51905f5261045d8201527f6e732d73657269662220666f6e742d73697a653d223137222066696c6c3d222361047d8201527f6461653266642220666f6e742d7765696768743d22363030223e00000000000061049d82015281519182906020016104b783015e01610436019060818201661e17ba32bc3a1f60c91b9052608882017f3c7465787420783d223230302220793d223238342220746578742d616e63686f905260a882015f516020611ff45f395f51905f52905260c882017f6e732d73657269662220666f6e742d73697a653d223133222066696c6c3d22239052730319bb19a321b911f21b7b73a3934b13aba32b2160651b60e883015251809260fc83015e01608101607b81016a1022aa241e17ba32bc3a1f60a91b9052608681017f3c7465787420783d223230302220793d223334382220746578742d616e63686f905260a681015f516020611ff45f395f51905f52905260c681017f6e732d73657269662220666f6e742d73697a653d223130222066696c6c3d2223905271343634353534223e43616d706169676e202360701b60e68201528151602081930160f883015e01607b01607d8101661e17ba32bc3a1f60c91b905260848101651e17b9bb339f60d11b905203607d0160121981018752600d01610aac9087611a43565b610ab590611bb2565b93805195610ac290611dd9565b9351610acd90611bb2565b90519151610ada90611bb2565b9251610ae590611bb2565b93604051968796602088017f7b226e616d65223a2246756e64466c6f77204261636b6572204261646765202390528051602081920160408a015e61088b60f21b6040918901918201527f226465736372697074696f6e223a2250726f6f66206f6620636f6e747269627560428201526703a34b7b7103a37960c51b60628201528151918290602001606a83015e016040016e081bdb88119d5b99119b1bddcb888b608a1b602a820152603981017f22696d616765223a22646174613a696d6167652f7376672b786d6c3b62617365905260598101620d8d0b60ea1b905281516020819301605c83015e01602a0161088b60f21b60328201526d2261747472696275746573223a5b60901b6034820152604281017f7b2274726169745f74797065223a2243616d706169676e204944222c2276616c9052643ab2911d1160d91b606282015281516020819301606783015e0160320162089f4b60ea1b6035820152603881017f7b2274726169745f74797065223a2243616d706169676e222c2276616c7565229052611d1160f11b605882015281516020819301605a83015e0160350162089f4b60ea1b6025820152602881017f7b2274726169745f74797065223a22416d6f756e74202877656929222c227661905265363ab2911d1160d11b604882015281516020819301604e83015e0160250162089f4b60ea1b6029820152602c81017f7b2274726169745f74797065223a224d696e746564204174222c2276616c7565905262111d1160e91b604c82015281516020819301604f83015e61227d60f01b9101604f810191909152615d7d60f01b605182015203603381018252610d539060530182611a43565b610d5c90611dd9565b6040518091602082017f646174613a6170706c69636174696f6e2f6a736f6e3b6261736536342c000000905280516020819201603d84015e8101603d81015f905203603d01601f1981018252610db29082611a43565b60405180916020825260208201610dc891611965565b0390f35b3461017457608036600319011261017457610de5611989565b50610dee61199f565b5060643567ffffffffffffffff8111610174573660238201121561017457610e20903690602481600401359101611b21565b50636e10574960e01b5f5260045ffd5b34610174576020366003190112610174576004355f52600960205260405f208054610e5d60018301611a65565b9160036002820154910154610e846040519485948552608060208601526080850190611965565b91604084015260608301520390f35b3461017457604036600319011261017457610eac611989565b60243590811515809203610174573315610f34576001600160a01b0316908115610f2157335f52600560205260405f20825f5260205260405f2060ff1981541660ff83161790556040519081527f17307eab39ab6107e8899845ad3d59bd9653f200f220920489ca2b5937696c3160203392a3005b50630b61174360e31b5f5260045260245ffd5b63a9fbf51f60e01b5f525f60045260245ffd5b34610174576020366003190112610174576001600160a01b03610f68611989565b165f52600a60205260405f20604051806020835491828152019081935f5260205f20905f5b818110610fe55750505081610fa3910382611a43565b604051918291602083019060208452518091526040830191905f5b818110610fcc575050500390f35b8251845285945060209384019390920191600101610fbe565b8254845260209093019260019283019201610f8d565b34610174575f366003190112610174576040515f60015461101b816119ef565b80845290600181169081156110b55750600114611057575b610dc88361104381850382611a43565b604051918291602083526020830190611965565b60015f9081527fb10e2d527612073b26eecdfd717e6a320cf44b4afac2b0732d9fcbe2b7fa0cf6939250905b80821061109b57509091508101602001611043611033565b919260018160209254838588010152019101909291611083565b60ff191660208086019190915291151560051b840190910191506110439050611033565b34610174575f366003190112610174576006546040516001600160a01b039091168152602090f35b346101745760803660031901126101745761111a611989565b60443560243567ffffffffffffffff8211610174573660238301121561017457816004013567ffffffffffffffff81116101745736602482850101116101745760085460643591906001600160a01b031680156115da5733036115cb576007545f1981146115b75760016111a8910194856007556040519261119b84611a27565b8584526024369201611b21565b60208201908152604082018381526060830191428352865f52600960205260405f209351845560018401905180519067ffffffffffffffff82116114ec576111f083546119ef565b601f8111611572575b50602090601f831160011461150b57600395949392915f9183611500575b50508160011b915f1990871b1c19161790555b516002840155519101556001600160a01b0384165f818152600a602052604090208054919291680100000000000000008110156114ec57600181018083558110156114d85785915f5260205f2001556020946040516112898782611a43565b5f815283156114c5575f8681526002885260409020546001600160a01b03169182151580611495575b855f526003895260405f2060018154019055875f526002895260405f20866bffffffffffffffffffffffff60a01b8254161790558786604051957fddf252ad1be2c89b69c2b068fc378daa952ba7f163c4a11628f55a4df523b3ef5f80a4611482573b61134f575b50507fc8f58e46e4bd0bf357a5b1f9591640389d323babc122183940fa10f1a31cf10d858592604051908152a4604051908152f35b9581806113878398979699630a85bd0160e11b83523360048401525f6024840152886044840152608060648401526084830190611965565b03815f8a5af15f9181611442575b506113ea5785853d156113e2573d906113ad82611b05565b916113bb6040519384611a43565b82523d5f8284013e5b815191826113df5783633250574960e11b5f5260045260245ffd5b01fd5b6060906113c4565b939492939192916001600160e01b03191663757a42ff60e11b0161142f577fc8f58e46e4bd0bf357a5b1f9591640389d323babc122183940fa10f1a31cf10d8561131a565b50633250574960e11b5f5260045260245ffd5b9091508581813d831161147b575b61145a8183611a43565b8101031261017457516001600160e01b031981168103610174579087611395565b503d611450565b6339e3563760e11b5f525f60045260245ffd5b5f88815260048a52604080822080546001600160a01b031916905585825260038b52902080545f190190556112b2565b633250574960e11b5f525f60045260245ffd5b634e487b7160e01b5f52603260045260245ffd5b634e487b7160e01b5f52604160045260245ffd5b015190508b80611217565b90601f19831691845f52815f20925f5b81811061155a57509160019391856003999897969410611543575b505050811b01905561122a565b01515f1983891b60f8161c191690558b8080611536565b9293602060018192878601518155019501930161151b565b835f5260205f20601f840160051c810191602085106115ad575b601f0160051c01905b8181106115a257506111f9565b5f8155600101611595565b909150819061158c565b634e487b7160e01b5f52601160045260245ffd5b630a06cf7960e01b5f5260045ffd5b634eca2d6760e01b5f5260045ffd5b34610174575f36600319011261017457611601611b8b565b600680546001600160a01b031981169091555f906001600160a01b03167f8be0079c531659141344cd1fd0a4f28419497f9722a3daafe3b4186f6b6457e08280a3005b34610174576020366003190112610174576001600160a01b03611665611989565b168015611682575f526003602052602060405f2054604051908152f35b6322718ad960e21b5f525f60045260245ffd5b346101745760203660031901126101745760206116b3600435611b57565b6040516001600160a01b039091168152f35b34610174576116d3366119b5565b5050505f6040516116e5602082611a43565b52636e10574960e01b5f5260045ffd5b3461017457611703366119b5565b505050636e10574960e01b5f5260045ffd5b34610174575f366003190112610174576020600754604051908152f35b346101745760403660031901126101745761174b611989565b60243561175781611b57565b33151580611809575b806117dc575b6117c95781906001600160a01b0384811691167f8c5be1e5ebec7d5bd14f71427d1e84f3dd0314c0f7b2291e5b200ac8c7c3b9255f80a45f90815260046020526040902080546001600160a01b0319166001600160a01b03909216919091179055005b63a9fbf51f60e01b5f523360045260245ffd5b506001600160a01b0381165f90815260056020908152604080832033845290915290205460ff1615611766565b506001600160a01b038116331415611760565b346101745760203660031901126101745760043561183981611b57565b505f526004602052602060018060a01b0360405f205416604051908152f35b34610174575f366003190112610174576040515f5f54611877816119ef565b80845290600181169081156110b5575060011461189e57610dc88361104381850382611a43565b5f8080527f290decd9548b62a8d60345a988386fc84ba6bc95484008f6362f93160ef3e563939250905b8082106118e057509091508101602001611043611033565b9192600181602092548385880101520191019092916118c8565b34610174576020366003190112610174576004359063ffffffff60e01b8216809203610174576020916380ac58cd60e01b8114908115611954575b8115611943575b5015158152f35b6301ffc9a760e01b1490508361193c565b635b5e139f60e01b81149150611935565b805180835260209291819084018484015e5f828201840152601f01601f1916010190565b600435906001600160a01b038216820361017457565b602435906001600160a01b038216820361017457565b6060906003190112610174576004356001600160a01b038116810361017457906024356001600160a01b0381168103610174579060443590565b90600182811c92168015611a1d575b6020831014611a0957565b634e487b7160e01b5f52602260045260245ffd5b91607f16916119fe565b6080810190811067ffffffffffffffff8211176114ec57604052565b90601f8019910116810190811067ffffffffffffffff8211176114ec57604052565b9060405191825f825492611a78846119ef565b8084529360018116908115611ae35750600114611a9f575b50611a9d92500383611a43565b565b90505f9291925260205f20905f915b818310611ac7575050906020611a9d928201015f611a90565b6020919350806001915483858901015201910190918492611aae565b905060209250611a9d94915060ff191682840152151560051b8201015f611a90565b67ffffffffffffffff81116114ec57601f01601f191660200190565b929192611b2d82611b05565b91611b3b6040519384611a43565b829481845281830111610174578281602093845f960137010152565b5f818152600260205260409020546001600160a01b0316908115611b79575090565b637e27328960e01b5f5260045260245ffd5b6006546001600160a01b03163303611b9f57565b63118cdaa760e01b5f523360045260245ffd5b805f9172184f03e93ff9f4daa797ed6e38ed64bf6a1f0160401b821015611cfc575b806d04ee2d6d415b85acef8100000000600a921015611ce1575b662386f26fc10000811015611ccd575b6305f5e100811015611cbc575b612710811015611cad575b6064811015611c9f575b1015611c94575b600a60216001840193611c3985611b05565b94611c476040519687611a43565b808652611c56601f1991611b05565b013660208701378401015b5f1901916f181899199a1a9b1b9c1cb0b131b232b360811b8282061a8353048015611c8f57600a9091611c61565b505090565b600190910190611c27565b606460029104930192611c20565b61271060049104930192611c16565b6305f5e10060089104930192611c0b565b662386f26fc1000060109104930192611bfe565b6d04ee2d6d415b85acef810000000060209104930192611bee565b506040915072184f03e93ff9f4daa797ed6e38ed64bf6a1f0160401b8104611bd4565b9081518110156114d8570160200190565b90601a82511115611a9d57611d45601a611b05565b611d526040519182611a43565b601a8152601f19611d63601a611b05565b013660208301375f5b60178110611dae57509091508051601710156114d857602e60378201538051601810156114d857602e60388201538051601910156114d857602e603982015390565b6001906001600160f81b0319611dc48287611d1f565b51165f1a611dd28285611d1f565b5301611d6c565b90815115611ef8578151600281018091116115b75760039004600281901b91906001600160fe1b038116036115b757604051917f4142434445464748494a4b4c4d4e4f505152535455565758595a616263646566601f527f6768696a6b6c6d6e6f707172737475767778797a303132333435363738392b2f603f52602083018480518101602081018051915f82525b808910611ebc5750602095969750906003929152510680600114611ea757600214611e9a575b50808452830101604052565b603d905f1901535f611e8e565b50603d90815f1982015360011901535f611e8e565b939760036004910198603f8a51818160121c165183538181600c1c16516001840153818160061c16516002840153165160038201530193611e68565b9050604051611f08602082611a43565b5f815290565b600a8110611fb25760648110611f72576103e88110611f3357611f3090611bb2565b90565b611f306021611f43602093611bb2565b604051938491600360fc1b828401528051918291018484015e81015f838201520301601f198101835282611a43565b611f306022611f82602093611bb2565b60405193849161030360f41b828401528051918291018484015e81015f838201520301601f198101835282611a43565b611f306023611fc2602093611bb2565b6040519384916203030360ec1b828401528051918291018484015e81015f838201520301601f198101835282611a4356fe723d226d6964646c652220666f6e742d66616d696c793d22496e7465722c7361a2646970667358221220b99368bb9e453bd88f06d15b896b920ee7b63c7da950979cee7f168a3e04202264736f6c634300081c0033","opcodes":"PUSH1 0x80 PUSH1 0x40 MSTORE CALLVALUE PUSH2 0x397 JUMPI PUSH2 0x240A PUSH1 0x20 DUP2 CODESIZE SUB SWAP2 DUP3 PUSH2 0x1C DUP2 PUSH2 0x39B JUMP JUMPDEST SWAP4 DUP5 SWAP3 DUP4 CODECOPY DUP2 ADD SUB SLT PUSH2 0x397 JUMPI MLOAD PUSH1 0x1 PUSH1 0x1 PUSH1 0xA0 SHL SUB DUP2 AND SWAP1 DUP2 SWAP1 SUB PUSH2 0x397 JUMPI PUSH2 0x46 PUSH1 0x40 PUSH2 0x39B JUMP JUMPDEST SWAP1 PUSH1 0x15 DUP3 MSTORE PUSH32 0x46756E64466C6F77204261636B65722042616467650000000000000000000000 PUSH1 0x20 DUP4 ADD MSTORE PUSH2 0x7B PUSH1 0x40 PUSH2 0x39B JUMP JUMPDEST PUSH1 0x7 DUP2 MSTORE PUSH7 0x46464241444745 PUSH1 0xC8 SHL PUSH1 0x20 DUP3 ADD MSTORE DUP3 MLOAD SWAP1 SWAP2 SWAP1 PUSH1 0x1 PUSH1 0x1 PUSH1 0x40 SHL SUB DUP2 GT PUSH2 0x2AB JUMPI PUSH0 SLOAD PUSH1 0x1 DUP2 DUP2 SHR SWAP2 AND DUP1 ISZERO PUSH2 0x38D JUMPI JUMPDEST PUSH1 0x20 DUP3 LT EQ PUSH2 0x28D JUMPI PUSH1 0x1F DUP2 GT PUSH2 0x32B JUMPI JUMPDEST POP PUSH1 0x20 PUSH1 0x1F DUP3 GT PUSH1 0x1 EQ PUSH2 0x2CA JUMPI DUP2 SWAP3 SWAP4 SWAP5 PUSH0 SWAP3 PUSH2 0x2BF JUMPI JUMPDEST POP POP DUP2 PUSH1 0x1 SHL SWAP2 PUSH0 NOT SWAP1 PUSH1 0x3 SHL SHR NOT AND OR PUSH0 SSTORE JUMPDEST DUP2 MLOAD PUSH1 0x1 PUSH1 0x1 PUSH1 0x40 SHL SUB DUP2 GT PUSH2 0x2AB JUMPI PUSH1 0x1 SLOAD PUSH1 0x1 DUP2 DUP2 SHR SWAP2 AND DUP1 ISZERO PUSH2 0x2A1 JUMPI JUMPDEST PUSH1 0x20 DUP3 LT EQ PUSH2 0x28D JUMPI PUSH1 0x1F DUP2 GT PUSH2 0x22A JUMPI JUMPDEST POP PUSH1 0x20 SWAP3 PUSH1 0x1F DUP3 GT PUSH1 0x1 EQ PUSH2 0x1C9 JUMPI SWAP3 DUP2 SWAP3 SWAP4 PUSH0 SWAP3 PUSH2 0x1BE JUMPI JUMPDEST POP POP DUP2 PUSH1 0x1 SHL SWAP2 PUSH0 NOT SWAP1 PUSH1 0x3 SHL SHR NOT AND OR PUSH1 0x1 SSTORE JUMPDEST DUP1 ISZERO PUSH2 0x1AB JUMPI PUSH1 0x6 DUP1 SLOAD PUSH1 0x1 PUSH1 0x1 PUSH1 0xA0 SHL SUB NOT DUP2 AND DUP4 OR SWAP1 SWAP2 SSTORE PUSH1 0x40 MLOAD SWAP2 SWAP1 PUSH1 0x1 PUSH1 0x1 PUSH1 0xA0 SHL SUB AND PUSH32 0x8BE0079C531659141344CD1FD0A4F28419497F9722A3DAAFE3B4186F6B6457E0 PUSH0 DUP1 LOG3 PUSH2 0x2049 SWAP1 DUP2 PUSH2 0x3C1 DUP3 CODECOPY RETURN JUMPDEST PUSH4 0x1E4FBDF7 PUSH1 0xE0 SHL PUSH0 MSTORE PUSH0 PUSH1 0x4 MSTORE PUSH1 0x24 PUSH0 REVERT JUMPDEST ADD MLOAD SWAP1 POP PUSH0 DUP1 PUSH2 0x13E JUMP JUMPDEST PUSH1 0x1F NOT DUP3 AND SWAP4 PUSH1 0x1 PUSH0 MSTORE DUP1 PUSH0 KECCAK256 SWAP2 PUSH0 JUMPDEST DUP7 DUP2 LT PUSH2 0x212 JUMPI POP DUP4 PUSH1 0x1 SWAP6 SWAP7 LT PUSH2 0x1FA JUMPI JUMPDEST POP POP POP DUP2 SHL ADD PUSH1 0x1 SSTORE PUSH2 0x153 JUMP JUMPDEST ADD MLOAD PUSH0 NOT PUSH1 0xF8 DUP5 PUSH1 0x3 SHL AND SHR NOT AND SWAP1 SSTORE PUSH0 DUP1 DUP1 PUSH2 0x1EC JUMP JUMPDEST SWAP2 SWAP3 PUSH1 0x20 PUSH1 0x1 DUP2 SWAP3 DUP7 DUP6 ADD MLOAD DUP2 SSTORE ADD SWAP5 ADD SWAP3 ADD PUSH2 0x1D9 JUMP JUMPDEST PUSH1 0x1 PUSH0 MSTORE PUSH32 0xB10E2D527612073B26EECDFD717E6A320CF44B4AFAC2B0732D9FCBE2B7FA0CF6 PUSH1 0x1F DUP4 ADD PUSH1 0x5 SHR DUP2 ADD SWAP2 PUSH1 0x20 DUP5 LT PUSH2 0x283 JUMPI JUMPDEST PUSH1 0x1F ADD PUSH1 0x5 SHR ADD SWAP1 JUMPDEST DUP2 DUP2 LT PUSH2 0x278 JUMPI POP PUSH2 0x124 JUMP JUMPDEST PUSH0 DUP2 SSTORE PUSH1 0x1 ADD PUSH2 0x26B JUMP JUMPDEST SWAP1 SWAP2 POP DUP2 SWAP1 PUSH2 0x262 JUMP JUMPDEST PUSH4 0x4E487B71 PUSH1 0xE0 SHL PUSH0 MSTORE PUSH1 0x22 PUSH1 0x4 MSTORE PUSH1 0x24 PUSH0 REVERT JUMPDEST SWAP1 PUSH1 0x7F AND SWAP1 PUSH2 0x112 JUMP JUMPDEST PUSH4 0x4E487B71 PUSH1 0xE0 SHL PUSH0 MSTORE PUSH1 0x41 PUSH1 0x4 MSTORE PUSH1 0x24 PUSH0 REVERT JUMPDEST ADD MLOAD SWAP1 POP PUSH0 DUP1 PUSH2 0xDD JUMP JUMPDEST PUSH1 0x1F NOT DUP3 AND SWAP1 PUSH0 DUP1 MSTORE DUP1 PUSH0 KECCAK256 SWAP2 PUSH0 JUMPDEST DUP2 DUP2 LT PUSH2 0x313 JUMPI POP SWAP6 DUP4 PUSH1 0x1 SWAP6 SWAP7 SWAP8 LT PUSH2 0x2FB JUMPI JUMPDEST POP POP POP DUP2 SHL ADD PUSH0 SSTORE PUSH2 0xF1 JUMP JUMPDEST ADD MLOAD PUSH0 NOT PUSH1 0xF8 DUP5 PUSH1 0x3 SHL AND SHR NOT AND SWAP1 SSTORE PUSH0 DUP1 DUP1 PUSH2 0x2EE JUMP JUMPDEST SWAP2 SWAP3 PUSH1 0x20 PUSH1 0x1 DUP2 SWAP3 DUP7 DUP12 ADD MLOAD DUP2 SSTORE ADD SWAP5 ADD SWAP3 ADD PUSH2 0x2D9 JUMP JUMPDEST PUSH0 DUP1 MSTORE PUSH32 0x290DECD9548B62A8D60345A988386FC84BA6BC95484008F6362F93160EF3E563 PUSH1 0x1F DUP4 ADD PUSH1 0x5 SHR DUP2 ADD SWAP2 PUSH1 0x20 DUP5 LT PUSH2 0x383 JUMPI JUMPDEST PUSH1 0x1F ADD PUSH1 0x5 SHR ADD SWAP1 JUMPDEST DUP2 DUP2 LT PUSH2 0x378 JUMPI POP PUSH2 0xC4 JUMP JUMPDEST PUSH0 DUP2 SSTORE PUSH1 0x1 ADD PUSH2 0x36B JUMP JUMPDEST SWAP1 SWAP2 POP DUP2 SWAP1 PUSH2 0x362 JUMP JUMPDEST SWAP1 PUSH1 0x7F AND SWAP1 PUSH2 0xB2 JUMP JUMPDEST PUSH0 DUP1 REVERT JUMPDEST PUSH1 0x40 MLOAD SWAP2 SWAP1 PUSH1 0x1F ADD PUSH1 0x1F NOT AND DUP3 ADD PUSH1 0x1 PUSH1 0x1 PUSH1 0x40 SHL SUB DUP2 GT DUP4 DUP3 LT OR PUSH2 0x2AB JUMPI PUSH1 0x40 MSTORE JUMP INVALID PUSH1 0x80 DUP1 PUSH1 0x40 MSTORE PUSH1 0x4 CALLDATASIZE LT ISZERO PUSH2 0x12 JUMPI PUSH0 DUP1 REVERT JUMPDEST PUSH0 CALLDATALOAD PUSH1 0xE0 SHR SWAP1 DUP2 PUSH4 0x1FFC9A7 EQ PUSH2 0x18FA JUMPI POP DUP1 PUSH4 0x6FDDE03 EQ PUSH2 0x1858 JUMPI DUP1 PUSH4 0x81812FC EQ PUSH2 0x181C JUMPI DUP1 PUSH4 0x95EA7B3 EQ PUSH2 0x1732 JUMPI DUP1 PUSH4 0x18160DDD EQ PUSH2 0x1715 JUMPI DUP1 PUSH4 0x23B872DD EQ PUSH2 0x16F5 JUMPI DUP1 PUSH4 0x42842E0E EQ PUSH2 0x16C5 JUMPI DUP1 PUSH4 0x6352211E EQ PUSH2 0x1695 JUMPI DUP1 PUSH4 0x70A08231 EQ PUSH2 0x1644 JUMPI DUP1 PUSH4 0x715018A6 EQ PUSH2 0x15E9 JUMPI DUP1 PUSH4 0x8CA0C06C EQ PUSH2 0x1101 JUMPI DUP1 PUSH4 0x8DA5CB5B EQ PUSH2 0x10D9 JUMPI DUP1 PUSH4 0x95D89B41 EQ PUSH2 0xFFB JUMPI DUP1 PUSH4 0x9DF8CBE5 EQ PUSH2 0xF47 JUMPI DUP1 PUSH4 0xA22CB465 EQ PUSH2 0xE93 JUMPI DUP1 PUSH4 0xA683F32B EQ PUSH2 0xE30 JUMPI DUP1 PUSH4 0xB88D4FDE EQ PUSH2 0xDCC JUMPI DUP1 PUSH4 0xC87B56DD EQ PUSH2 0x27D JUMPI DUP1 PUSH4 0xE42A96E7 EQ PUSH2 0x255 JUMPI DUP1 PUSH4 0xE985E9C5 EQ PUSH2 0x1FE JUMPI DUP1 PUSH4 0xF2FDE38B EQ PUSH2 0x178 JUMPI PUSH4 0xF42375B5 EQ PUSH2 0x10E JUMPI PUSH0 DUP1 REVERT JUMPDEST CALLVALUE PUSH2 0x174 JUMPI PUSH1 0x20 CALLDATASIZE PUSH1 0x3 NOT ADD SLT PUSH2 0x174 JUMPI PUSH2 0x127 PUSH2 0x1989 JUMP JUMPDEST PUSH2 0x12F PUSH2 0x1B8B JUMP JUMPDEST PUSH1 0x8 DUP1 SLOAD PUSH1 0x1 PUSH1 0x1 PUSH1 0xA0 SHL SUB NOT AND PUSH1 0x1 PUSH1 0x1 PUSH1 0xA0 SHL SUB SWAP3 SWAP1 SWAP3 AND SWAP2 DUP3 OR SWAP1 SSTORE PUSH32 0xA585AEC3A6CB0E1A084ED18C7638024E40CC3E3EA815166E2CB6FC17D7F1392B PUSH0 DUP1 LOG2 STOP JUMPDEST PUSH0 DUP1 REVERT JUMPDEST CALLVALUE PUSH2 0x174 JUMPI PUSH1 0x20 CALLDATASIZE PUSH1 0x3 NOT ADD SLT PUSH2 0x174 JUMPI PUSH2 0x191 PUSH2 0x1989 JUMP JUMPDEST PUSH2 0x199 PUSH2 0x1B8B JUMP JUMPDEST PUSH1 0x1 PUSH1 0x1 PUSH1 0xA0 SHL SUB AND DUP1 ISZERO PUSH2 0x1EB JUMPI PUSH1 0x6 DUP1 SLOAD PUSH1 0x1 PUSH1 0x1 PUSH1 0xA0 SHL SUB NOT DUP2 AND DUP4 OR SWAP1 SWAP2 SSTORE PUSH1 0x1 PUSH1 0x1 PUSH1 0xA0 SHL SUB AND PUSH32 0x8BE0079C531659141344CD1FD0A4F28419497F9722A3DAAFE3B4186F6B6457E0 PUSH0 DUP1 LOG3 STOP JUMPDEST PUSH4 0x1E4FBDF7 PUSH1 0xE0 SHL PUSH0 MSTORE PUSH0 PUSH1 0x4 MSTORE PUSH1 0x24 PUSH0 REVERT JUMPDEST CALLVALUE PUSH2 0x174 JUMPI PUSH1 0x40 CALLDATASIZE PUSH1 0x3 NOT ADD SLT PUSH2 0x174 JUMPI PUSH2 0x217 PUSH2 0x1989 JUMP JUMPDEST PUSH2 0x21F PUSH2 0x199F JUMP JUMPDEST SWAP1 PUSH1 0x1 DUP1 PUSH1 0xA0 SHL SUB AND PUSH0 MSTORE PUSH1 0x5 PUSH1 0x20 MSTORE PUSH1 0x40 PUSH0 KECCAK256 SWAP1 PUSH1 0x1 DUP1 PUSH1 0xA0 SHL SUB AND PUSH0 MSTORE PUSH1 0x20 MSTORE PUSH1 0x20 PUSH1 0xFF PUSH1 0x40 PUSH0 KECCAK256 SLOAD AND PUSH1 0x40 MLOAD SWAP1 ISZERO ISZERO DUP2 MSTORE RETURN JUMPDEST CALLVALUE PUSH2 0x174 JUMPI PUSH0 CALLDATASIZE PUSH1 0x3 NOT ADD SLT PUSH2 0x174 JUMPI PUSH1 0x8 SLOAD PUSH1 0x40 MLOAD PUSH1 0x1 PUSH1 0x1 PUSH1 0xA0 SHL SUB SWAP1 SWAP2 AND DUP2 MSTORE PUSH1 0x20 SWAP1 RETURN JUMPDEST CALLVALUE PUSH2 0x174 JUMPI PUSH1 0x20 CALLDATASIZE PUSH1 0x3 NOT ADD SLT PUSH2 0x174 JUMPI PUSH1 0x4 CALLDATALOAD PUSH2 0x29A DUP2 PUSH2 0x1B57 JUMP JUMPDEST POP DUP1 PUSH0 MSTORE PUSH1 0x9 PUSH1 0x20 MSTORE PUSH1 0x40 PUSH0 KECCAK256 PUSH1 0x40 MLOAD PUSH2 0x2B3 DUP2 PUSH2 0x1A27 JUMP JUMPDEST DUP2 SLOAD DUP2 MSTORE PUSH2 0x2C3 PUSH1 0x1 DUP4 ADD PUSH2 0x1A65 JUMP JUMPDEST SWAP2 PUSH1 0x20 DUP3 ADD SWAP3 DUP4 MSTORE PUSH1 0x2 DUP2 ADD SLOAD SWAP1 PUSH1 0x40 DUP4 ADD SWAP2 DUP3 MSTORE PUSH1 0x3 ADD SLOAD SWAP1 PUSH1 0x60 DUP4 ADD SWAP2 DUP3 MSTORE PUSH2 0x2ED DUP6 PUSH2 0x1BB2 JUMP JUMPDEST SWAP5 DUP5 MLOAD PUSH2 0x2F9 SWAP1 PUSH2 0x1D30 JUMP JUMPDEST SWAP6 DUP3 MLOAD PUSH8 0xDE0B6B3A7640000 DUP2 DIV PUSH2 0x310 SWAP1 PUSH2 0x1BB2 JUMP JUMPDEST SWAP1 PUSH8 0xDE0B6B3A7640000 SWAP1 MOD PUSH6 0x5AF3107A4000 SWAP1 DIV PUSH2 0x32E SWAP1 PUSH2 0x1F0E JUMP JUMPDEST SWAP1 PUSH1 0x40 MLOAD DUP1 SWAP3 PUSH1 0x20 DUP3 ADD SWAP3 DUP1 MLOAD PUSH1 0x20 DUP2 SWAP3 ADD DUP6 MCOPY DUP3 ADD PUSH1 0x20 DUP2 ADD PUSH1 0x17 PUSH1 0xF9 SHL SWAP1 MSTORE DUP2 MLOAD PUSH1 0x20 DUP2 SWAP4 ADD PUSH1 0x21 DUP4 ADD MCOPY ADD PUSH1 0x20 ADD PUSH1 0x1 DUP2 ADD PUSH0 SWAP1 MSTORE SUB PUSH1 0x1 ADD PUSH1 0x1F NOT DUP2 ADD DUP4 MSTORE PUSH2 0x37B SWAP1 DUP4 PUSH2 0x1A43 JUMP JUMPDEST DUP7 MLOAD PUSH2 0x386 SWAP1 PUSH2 0x1BB2 JUMP JUMPDEST PUSH1 0x40 DUP1 MLOAD PUSH32 0x3C73766720786D6C6E733D22687474703A2F2F7777772E77332E6F72672F3230 PUSH1 0x20 DUP1 DUP4 ADD SWAP2 SWAP1 SWAP2 MSTORE PUSH32 0x30302F737667222076696577426F783D223020302034303020343030223E0000 SWAP3 DUP3 ADD SWAP3 SWAP1 SWAP3 MSTORE PUSH6 0x1E3232B3399F PUSH1 0xD1 SHL PUSH1 0x5E DUP3 ADD MSTORE PUSH32 0x3C6C696E6561724772616469656E742069643D226267222078313D2230252220 PUSH1 0x64 DUP3 ADD MSTORE PUSH32 0x79313D223025222078323D2231303025222079323D2231303025223E00000000 PUSH1 0x84 DUP3 ADD MSTORE PUSH32 0x3C73746F70206F66667365743D223025222020207374796C653D2273746F702D PUSH1 0xA0 DUP3 ADD DUP2 SWAP1 MSTORE PUSH16 0x31B7B637B91D1198311899991B11179F PUSH1 0x81 SHL PUSH1 0xC0 DUP4 ADD MSTORE PUSH32 0x3C73746F70206F66667365743D223130302522207374796C653D2273746F702D PUSH1 0xD0 DUP4 ADD DUP2 SWAP1 MSTORE PUSH16 0x31B7B637B91D1198B098B319B091179F PUSH1 0x81 SHL PUSH1 0xF0 DUP5 ADD MSTORE PUSH17 0x1E17B634B732B0B923B930B234B2B73A1F PUSH1 0x79 SHL PUSH2 0x100 DUP5 ADD DUP2 SWAP1 MSTORE PUSH32 0x3C6C696E6561724772616469656E742069643D22616363222078313D22302522 PUSH2 0x111 DUP6 ADD MSTORE PUSH32 0x2079313D223025222078323D2231303025222079323D223025223E0000000000 PUSH2 0x131 DUP6 ADD MSTORE PUSH2 0x14C DUP5 ADD SWAP3 SWAP1 SWAP3 MSTORE PUSH16 0x31B7B637B91D119A31B21BB31B11179F PUSH1 0x81 SHL PUSH2 0x16C DUP5 ADD MSTORE PUSH2 0x17C DUP4 ADD MSTORE PUSH16 0x31B7B637B91D119A32B232B09991179F PUSH1 0x81 SHL PUSH2 0x19C DUP4 ADD MSTORE PUSH2 0x1AC DUP3 ADD MSTORE PUSH7 0x1E17B232B3399F PUSH1 0xC9 SHL PUSH2 0x1BD DUP3 ADD MSTORE PUSH32 0x3C726563742077696474683D2234303022206865696768743D22343030222072 PUSH2 0x1C4 DUP3 ADD MSTORE PUSH32 0x783D223234222066696C6C3D2275726C2823626729222F3E0000000000000000 PUSH2 0x1E4 DUP3 ADD MSTORE PUSH32 0x3C726563742077696474683D2233393822206865696768743D22333938222078 PUSH2 0x1FC DUP3 ADD MSTORE PUSH32 0x3D22312220793D2231222072783D223233222066696C6C3D226E6F6E65222073 PUSH2 0x21C DUP3 ADD MSTORE PUSH32 0x74726F6B653D2272676261283235352C3235352C3235352C302E303829222073 PUSH2 0x23C DUP3 ADD MSTORE PUSH17 0x3A3937B5B296BBB4B23A341E911891179F PUSH1 0x79 SHL PUSH2 0x25C DUP3 ADD MSTORE PUSH32 0x3C7465787420783D223230302220793D2237322220746578742D616E63686F72 PUSH2 0x26D DUP3 ADD MSTORE PUSH32 0x3D226D6964646C652220666F6E742D66616D696C793D22496E7465722C73616E PUSH2 0x28D DUP3 ADD MSTORE PUSH32 0x732D73657269662220666F6E742D73697A653D223131222066696C6C3D222363 PUSH2 0x2AD DUP3 ADD MSTORE PUSH32 0x376334643722206C65747465722D73706163696E673D2234223E46554E44464C PUSH2 0x2CD DUP3 ADD MSTORE PUSH22 0x27AB902120A1A5A2A9102120A223A29E17BA32BC3A1F PUSH1 0x51 SHL PUSH2 0x2ED DUP3 ADD MSTORE PUSH32 0x3C636972636C652063783D22323030222063793D223136352220723D22353222 PUSH2 0x303 DUP3 ADD MSTORE PUSH32 0x2066696C6C3D226E6F6E6522207374726F6B653D2275726C2823616363292220 PUSH2 0x323 DUP3 ADD MSTORE PUSH20 0x39BA3937B5B296BBB4B23A341E9118971A91179F PUSH1 0x61 SHL PUSH2 0x343 DUP3 ADD MSTORE PUSH32 0x3C7465787420783D223230302220793D223135382220746578742D616E63686F PUSH2 0x357 DUP3 ADD MSTORE PUSH0 MLOAD PUSH1 0x20 PUSH2 0x1FF4 PUSH0 CODECOPY PUSH0 MLOAD SWAP1 PUSH0 MSTORE PUSH2 0x377 DUP3 ADD DUP2 SWAP1 MSTORE PUSH32 0x6E732D73657269662220666F6E742D73697A653D223330222066696C6C3D2223 PUSH2 0x397 DUP4 ADD MSTORE PUSH22 0x31983198B333111F13119C9B1B981D9E17BA32BC3A1F PUSH1 0x51 SHL PUSH2 0x3B7 DUP4 ADD MSTORE PUSH32 0x3C7465787420783D223230302220793D223138302220746578742D616E63686F PUSH2 0x3CD DUP4 ADD MSTORE PUSH2 0x3ED DUP3 ADD MSTORE PUSH32 0x6E732D73657269662220666F6E742D73697A653D223130222066696C6C3D2223 PUSH2 0x40D DUP3 ADD MSTORE PUSH9 0x346564656133223E23 PUSH1 0xB8 SHL PUSH2 0x42D DUP3 ADD MSTORE DUP6 MLOAD SWAP1 SWAP12 DUP13 SWAP7 SWAP4 SWAP6 SWAP4 SWAP1 SWAP3 DUP3 SWAP2 ADD PUSH2 0x436 DUP9 ADD MCOPY PUSH7 0x1E17BA32BC3A1F PUSH1 0xC9 SHL PUSH2 0x436 SWAP2 DUP8 ADD SWAP2 DUP3 ADD MSTORE PUSH32 0x3C7465787420783D223230302220793D223235342220746578742D616E63686F PUSH2 0x43D DUP3 ADD MSTORE PUSH0 MLOAD PUSH1 0x20 PUSH2 0x1FF4 PUSH0 CODECOPY PUSH0 MLOAD SWAP1 PUSH0 MSTORE PUSH2 0x45D DUP3 ADD MSTORE PUSH32 0x6E732D73657269662220666F6E742D73697A653D223137222066696C6C3D2223 PUSH2 0x47D DUP3 ADD MSTORE PUSH32 0x6461653266642220666F6E742D7765696768743D22363030223E000000000000 PUSH2 0x49D DUP3 ADD MSTORE DUP2 MLOAD SWAP2 DUP3 SWAP1 PUSH1 0x20 ADD PUSH2 0x4B7 DUP4 ADD MCOPY ADD PUSH2 0x436 ADD SWAP1 PUSH1 0x81 DUP3 ADD PUSH7 0x1E17BA32BC3A1F PUSH1 0xC9 SHL SWAP1 MSTORE PUSH1 0x88 DUP3 ADD PUSH32 0x3C7465787420783D223230302220793D223238342220746578742D616E63686F SWAP1 MSTORE PUSH1 0xA8 DUP3 ADD PUSH0 MLOAD PUSH1 0x20 PUSH2 0x1FF4 PUSH0 CODECOPY PUSH0 MLOAD SWAP1 PUSH0 MSTORE SWAP1 MSTORE PUSH1 0xC8 DUP3 ADD PUSH32 0x6E732D73657269662220666F6E742D73697A653D223133222066696C6C3D2223 SWAP1 MSTORE PUSH20 0x319BB19A321B911F21B7B73A3934B13ABA32B21 PUSH1 0x65 SHL PUSH1 0xE8 DUP4 ADD MSTORE MLOAD DUP1 SWAP3 PUSH1 0xFC DUP4 ADD MCOPY ADD PUSH1 0x81 ADD PUSH1 0x7B DUP2 ADD PUSH11 0x1022AA241E17BA32BC3A1F PUSH1 0xA9 SHL SWAP1 MSTORE PUSH1 0x86 DUP2 ADD PUSH32 0x3C7465787420783D223230302220793D223334382220746578742D616E63686F SWAP1 MSTORE PUSH1 0xA6 DUP2 ADD PUSH0 MLOAD PUSH1 0x20 PUSH2 0x1FF4 PUSH0 CODECOPY PUSH0 MLOAD SWAP1 PUSH0 MSTORE SWAP1 MSTORE PUSH1 0xC6 DUP2 ADD PUSH32 0x6E732D73657269662220666F6E742D73697A653D223130222066696C6C3D2223 SWAP1 MSTORE PUSH18 0x343634353534223E43616D706169676E2023 PUSH1 0x70 SHL PUSH1 0xE6 DUP3 ADD MSTORE DUP2 MLOAD PUSH1 0x20 DUP2 SWAP4 ADD PUSH1 0xF8 DUP4 ADD MCOPY ADD PUSH1 0x7B ADD PUSH1 0x7D DUP2 ADD PUSH7 0x1E17BA32BC3A1F PUSH1 0xC9 SHL SWAP1 MSTORE PUSH1 0x84 DUP2 ADD PUSH6 0x1E17B9BB339F PUSH1 0xD1 SHL SWAP1 MSTORE SUB PUSH1 0x7D ADD PUSH1 0x12 NOT DUP2 ADD DUP8 MSTORE PUSH1 0xD ADD PUSH2 0xAAC SWAP1 DUP8 PUSH2 0x1A43 JUMP JUMPDEST PUSH2 0xAB5 SWAP1 PUSH2 0x1BB2 JUMP JUMPDEST SWAP4 DUP1 MLOAD SWAP6 PUSH2 0xAC2 SWAP1 PUSH2 0x1DD9 JUMP JUMPDEST SWAP4 MLOAD PUSH2 0xACD SWAP1 PUSH2 0x1BB2 JUMP JUMPDEST SWAP1 MLOAD SWAP2 MLOAD PUSH2 0xADA SWAP1 PUSH2 0x1BB2 JUMP JUMPDEST SWAP3 MLOAD PUSH2 0xAE5 SWAP1 PUSH2 0x1BB2 JUMP JUMPDEST SWAP4 PUSH1 0x40 MLOAD SWAP7 DUP8 SWAP7 PUSH1 0x20 DUP9 ADD PUSH32 0x7B226E616D65223A2246756E64466C6F77204261636B65722042616467652023 SWAP1 MSTORE DUP1 MLOAD PUSH1 0x20 DUP2 SWAP3 ADD PUSH1 0x40 DUP11 ADD MCOPY PUSH2 0x88B PUSH1 0xF2 SHL PUSH1 0x40 SWAP2 DUP10 ADD SWAP2 DUP3 ADD MSTORE PUSH32 0x226465736372697074696F6E223A2250726F6F66206F6620636F6E7472696275 PUSH1 0x42 DUP3 ADD MSTORE PUSH8 0x3A34B7B7103A379 PUSH1 0xC5 SHL PUSH1 0x62 DUP3 ADD MSTORE DUP2 MLOAD SWAP2 DUP3 SWAP1 PUSH1 0x20 ADD PUSH1 0x6A DUP4 ADD MCOPY ADD PUSH1 0x40 ADD PUSH15 0x81BDB88119D5B99119B1BDDCB888B PUSH1 0x8A SHL PUSH1 0x2A DUP3 ADD MSTORE PUSH1 0x39 DUP2 ADD PUSH32 0x22696D616765223A22646174613A696D6167652F7376672B786D6C3B62617365 SWAP1 MSTORE PUSH1 0x59 DUP2 ADD PUSH3 0xD8D0B PUSH1 0xEA SHL SWAP1 MSTORE DUP2 MLOAD PUSH1 0x20 DUP2 SWAP4 ADD PUSH1 0x5C DUP4 ADD MCOPY ADD PUSH1 0x2A ADD PUSH2 0x88B PUSH1 0xF2 SHL PUSH1 0x32 DUP3 ADD MSTORE PUSH14 0x2261747472696275746573223A5B PUSH1 0x90 SHL PUSH1 0x34 DUP3 ADD MSTORE PUSH1 0x42 DUP2 ADD PUSH32 0x7B2274726169745F74797065223A2243616D706169676E204944222C2276616C SWAP1 MSTORE PUSH5 0x3AB2911D11 PUSH1 0xD9 SHL PUSH1 0x62 DUP3 ADD MSTORE DUP2 MLOAD PUSH1 0x20 DUP2 SWAP4 ADD PUSH1 0x67 DUP4 ADD MCOPY ADD PUSH1 0x32 ADD PUSH3 0x89F4B PUSH1 0xEA SHL PUSH1 0x35 DUP3 ADD MSTORE PUSH1 0x38 DUP2 ADD PUSH32 0x7B2274726169745F74797065223A2243616D706169676E222C2276616C756522 SWAP1 MSTORE PUSH2 0x1D11 PUSH1 0xF1 SHL PUSH1 0x58 DUP3 ADD MSTORE DUP2 MLOAD PUSH1 0x20 DUP2 SWAP4 ADD PUSH1 0x5A DUP4 ADD MCOPY ADD PUSH1 0x35 ADD PUSH3 0x89F4B PUSH1 0xEA SHL PUSH1 0x25 DUP3 ADD MSTORE PUSH1 0x28 DUP2 ADD PUSH32 0x7B2274726169745F74797065223A22416D6F756E74202877656929222C227661 SWAP1 MSTORE PUSH6 0x363AB2911D11 PUSH1 0xD1 SHL PUSH1 0x48 DUP3 ADD MSTORE DUP2 MLOAD PUSH1 0x20 DUP2 SWAP4 ADD PUSH1 0x4E DUP4 ADD MCOPY ADD PUSH1 0x25 ADD PUSH3 0x89F4B PUSH1 0xEA SHL PUSH1 0x29 DUP3 ADD MSTORE PUSH1 0x2C DUP2 ADD PUSH32 0x7B2274726169745F74797065223A224D696E746564204174222C2276616C7565 SWAP1 MSTORE PUSH3 0x111D11 PUSH1 0xE9 SHL PUSH1 0x4C DUP3 ADD MSTORE DUP2 MLOAD PUSH1 0x20 DUP2 SWAP4 ADD PUSH1 0x4F DUP4 ADD MCOPY PUSH2 0x227D PUSH1 0xF0 SHL SWAP2 ADD PUSH1 0x4F DUP2 ADD SWAP2 SWAP1 SWAP2 MSTORE PUSH2 0x5D7D PUSH1 0xF0 SHL PUSH1 0x51 DUP3 ADD MSTORE SUB PUSH1 0x33 DUP2 ADD DUP3 MSTORE PUSH2 0xD53 SWAP1 PUSH1 0x53 ADD DUP3 PUSH2 0x1A43 JUMP JUMPDEST PUSH2 0xD5C SWAP1 PUSH2 0x1DD9 JUMP JUMPDEST PUSH1 0x40 MLOAD DUP1 SWAP2 PUSH1 0x20 DUP3 ADD PUSH32 0x646174613A6170706C69636174696F6E2F6A736F6E3B6261736536342C000000 SWAP1 MSTORE DUP1 MLOAD PUSH1 0x20 DUP2 SWAP3 ADD PUSH1 0x3D DUP5 ADD MCOPY DUP2 ADD PUSH1 0x3D DUP2 ADD PUSH0 SWAP1 MSTORE SUB PUSH1 0x3D ADD PUSH1 0x1F NOT DUP2 ADD DUP3 MSTORE PUSH2 0xDB2 SWAP1 DUP3 PUSH2 0x1A43 JUMP JUMPDEST PUSH1 0x40 MLOAD DUP1 SWAP2 PUSH1 0x20 DUP3 MSTORE PUSH1 0x20 DUP3 ADD PUSH2 0xDC8 SWAP2 PUSH2 0x1965 JUMP JUMPDEST SUB SWAP1 RETURN JUMPDEST CALLVALUE PUSH2 0x174 JUMPI PUSH1 0x80 CALLDATASIZE PUSH1 0x3 NOT ADD SLT PUSH2 0x174 JUMPI PUSH2 0xDE5 PUSH2 0x1989 JUMP JUMPDEST POP PUSH2 0xDEE PUSH2 0x199F JUMP JUMPDEST POP PUSH1 0x64 CALLDATALOAD PUSH8 0xFFFFFFFFFFFFFFFF DUP2 GT PUSH2 0x174 JUMPI CALLDATASIZE PUSH1 0x23 DUP3 ADD SLT ISZERO PUSH2 0x174 JUMPI PUSH2 0xE20 SWAP1 CALLDATASIZE SWAP1 PUSH1 0x24 DUP2 PUSH1 0x4 ADD CALLDATALOAD SWAP2 ADD PUSH2 0x1B21 JUMP JUMPDEST POP PUSH4 0x6E105749 PUSH1 0xE0 SHL PUSH0 MSTORE PUSH1 0x4 PUSH0 REVERT JUMPDEST CALLVALUE PUSH2 0x174 JUMPI PUSH1 0x20 CALLDATASIZE PUSH1 0x3 NOT ADD SLT PUSH2 0x174 JUMPI PUSH1 0x4 CALLDATALOAD PUSH0 MSTORE PUSH1 0x9 PUSH1 0x20 MSTORE PUSH1 0x40 PUSH0 KECCAK256 DUP1 SLOAD PUSH2 0xE5D PUSH1 0x1 DUP4 ADD PUSH2 0x1A65 JUMP JUMPDEST SWAP2 PUSH1 0x3 PUSH1 0x2 DUP3 ADD SLOAD SWAP2 ADD SLOAD PUSH2 0xE84 PUSH1 0x40 MLOAD SWAP5 DUP6 SWAP5 DUP6 MSTORE PUSH1 0x80 PUSH1 0x20 DUP7 ADD MSTORE PUSH1 0x80 DUP6 ADD SWAP1 PUSH2 0x1965 JUMP JUMPDEST SWAP2 PUSH1 0x40 DUP5 ADD MSTORE PUSH1 0x60 DUP4 ADD MSTORE SUB SWAP1 RETURN JUMPDEST CALLVALUE PUSH2 0x174 JUMPI PUSH1 0x40 CALLDATASIZE PUSH1 0x3 NOT ADD SLT PUSH2 0x174 JUMPI PUSH2 0xEAC PUSH2 0x1989 JUMP JUMPDEST PUSH1 0x24 CALLDATALOAD SWAP1 DUP2 ISZERO ISZERO DUP1 SWAP3 SUB PUSH2 0x174 JUMPI CALLER ISZERO PUSH2 0xF34 JUMPI PUSH1 0x1 PUSH1 0x1 PUSH1 0xA0 SHL SUB AND SWAP1 DUP2 ISZERO PUSH2 0xF21 JUMPI CALLER PUSH0 MSTORE PUSH1 0x5 PUSH1 0x20 MSTORE PUSH1 0x40 PUSH0 KECCAK256 DUP3 PUSH0 MSTORE PUSH1 0x20 MSTORE PUSH1 0x40 PUSH0 KECCAK256 PUSH1 0xFF NOT DUP2 SLOAD AND PUSH1 0xFF DUP4 AND OR SWAP1 SSTORE PUSH1 0x40 MLOAD SWAP1 DUP2 MSTORE PUSH32 0x17307EAB39AB6107E8899845AD3D59BD9653F200F220920489CA2B5937696C31 PUSH1 0x20 CALLER SWAP3 LOG3 STOP JUMPDEST POP PUSH4 0xB611743 PUSH1 0xE3 SHL PUSH0 MSTORE PUSH1 0x4 MSTORE PUSH1 0x24 PUSH0 REVERT JUMPDEST PUSH4 0xA9FBF51F PUSH1 0xE0 SHL PUSH0 MSTORE PUSH0 PUSH1 0x4 MSTORE PUSH1 0x24 PUSH0 REVERT JUMPDEST CALLVALUE PUSH2 0x174 JUMPI PUSH1 0x20 CALLDATASIZE PUSH1 0x3 NOT ADD SLT PUSH2 0x174 JUMPI PUSH1 0x1 PUSH1 0x1 PUSH1 0xA0 SHL SUB PUSH2 0xF68 PUSH2 0x1989 JUMP JUMPDEST AND PUSH0 MSTORE PUSH1 0xA PUSH1 0x20 MSTORE PUSH1 0x40 PUSH0 KECCAK256 PUSH1 0x40 MLOAD DUP1 PUSH1 0x20 DUP4 SLOAD SWAP2 DUP3 DUP2 MSTORE ADD SWAP1 DUP2 SWAP4 PUSH0 MSTORE PUSH1 0x20 PUSH0 KECCAK256 SWAP1 PUSH0 JUMPDEST DUP2 DUP2 LT PUSH2 0xFE5 JUMPI POP POP POP DUP2 PUSH2 0xFA3 SWAP2 SUB DUP3 PUSH2 0x1A43 JUMP JUMPDEST PUSH1 0x40 MLOAD SWAP2 DUP3 SWAP2 PUSH1 0x20 DUP4 ADD SWAP1 PUSH1 0x20 DUP5 MSTORE MLOAD DUP1 SWAP2 MSTORE PUSH1 0x40 DUP4 ADD SWAP2 SWAP1 PUSH0 JUMPDEST DUP2 DUP2 LT PUSH2 0xFCC JUMPI POP POP POP SUB SWAP1 RETURN JUMPDEST DUP3 MLOAD DUP5 MSTORE DUP6 SWAP5 POP PUSH1 0x20 SWAP4 DUP5 ADD SWAP4 SWAP1 SWAP3 ADD SWAP2 PUSH1 0x1 ADD PUSH2 0xFBE JUMP JUMPDEST DUP3 SLOAD DUP5 MSTORE PUSH1 0x20 SWAP1 SWAP4 ADD SWAP3 PUSH1 0x1 SWAP3 DUP4 ADD SWAP3 ADD PUSH2 0xF8D JUMP JUMPDEST CALLVALUE PUSH2 0x174 JUMPI PUSH0 CALLDATASIZE PUSH1 0x3 NOT ADD SLT PUSH2 0x174 JUMPI PUSH1 0x40 MLOAD PUSH0 PUSH1 0x1 SLOAD PUSH2 0x101B DUP2 PUSH2 0x19EF JUMP JUMPDEST DUP1 DUP5 MSTORE SWAP1 PUSH1 0x1 DUP2 AND SWAP1 DUP2 ISZERO PUSH2 0x10B5 JUMPI POP PUSH1 0x1 EQ PUSH2 0x1057 JUMPI JUMPDEST PUSH2 0xDC8 DUP4 PUSH2 0x1043 DUP2 DUP6 SUB DUP3 PUSH2 0x1A43 JUMP JUMPDEST PUSH1 0x40 MLOAD SWAP2 DUP3 SWAP2 PUSH1 0x20 DUP4 MSTORE PUSH1 0x20 DUP4 ADD SWAP1 PUSH2 0x1965 JUMP JUMPDEST PUSH1 0x1 PUSH0 SWAP1 DUP2 MSTORE PUSH32 0xB10E2D527612073B26EECDFD717E6A320CF44B4AFAC2B0732D9FCBE2B7FA0CF6 SWAP4 SWAP3 POP SWAP1 JUMPDEST DUP1 DUP3 LT PUSH2 0x109B JUMPI POP SWAP1 SWAP2 POP DUP2 ADD PUSH1 0x20 ADD PUSH2 0x1043 PUSH2 0x1033 JUMP JUMPDEST SWAP2 SWAP3 PUSH1 0x1 DUP2 PUSH1 0x20 SWAP3 SLOAD DUP4 DUP6 DUP9 ADD ADD MSTORE ADD SWAP2 ADD SWAP1 SWAP3 SWAP2 PUSH2 0x1083 JUMP JUMPDEST PUSH1 0xFF NOT AND PUSH1 0x20 DUP1 DUP7 ADD SWAP2 SWAP1 SWAP2 MSTORE SWAP2 ISZERO ISZERO PUSH1 0x5 SHL DUP5 ADD SWAP1 SWAP2 ADD SWAP2 POP PUSH2 0x1043 SWAP1 POP PUSH2 0x1033 JUMP JUMPDEST CALLVALUE PUSH2 0x174 JUMPI PUSH0 CALLDATASIZE PUSH1 0x3 NOT ADD SLT PUSH2 0x174 JUMPI PUSH1 0x6 SLOAD PUSH1 0x40 MLOAD PUSH1 0x1 PUSH1 0x1 PUSH1 0xA0 SHL SUB SWAP1 SWAP2 AND DUP2 MSTORE PUSH1 0x20 SWAP1 RETURN JUMPDEST CALLVALUE PUSH2 0x174 JUMPI PUSH1 0x80 CALLDATASIZE PUSH1 0x3 NOT ADD SLT PUSH2 0x174 JUMPI PUSH2 0x111A PUSH2 0x1989 JUMP JUMPDEST PUSH1 0x44 CALLDATALOAD PUSH1 0x24 CALLDATALOAD PUSH8 0xFFFFFFFFFFFFFFFF DUP3 GT PUSH2 0x174 JUMPI CALLDATASIZE PUSH1 0x23 DUP4 ADD SLT ISZERO PUSH2 0x174 JUMPI DUP2 PUSH1 0x4 ADD CALLDATALOAD PUSH8 0xFFFFFFFFFFFFFFFF DUP2 GT PUSH2 0x174 JUMPI CALLDATASIZE PUSH1 0x24 DUP3 DUP6 ADD ADD GT PUSH2 0x174 JUMPI PUSH1 0x8 SLOAD PUSH1 0x64 CALLDATALOAD SWAP2 SWAP1 PUSH1 0x1 PUSH1 0x1 PUSH1 0xA0 SHL SUB AND DUP1 ISZERO PUSH2 0x15DA JUMPI CALLER SUB PUSH2 0x15CB JUMPI PUSH1 0x7 SLOAD PUSH0 NOT DUP2 EQ PUSH2 0x15B7 JUMPI PUSH1 0x1 PUSH2 0x11A8 SWAP2 ADD SWAP5 DUP6 PUSH1 0x7 SSTORE PUSH1 0x40 MLOAD SWAP3 PUSH2 0x119B DUP5 PUSH2 0x1A27 JUMP JUMPDEST DUP6 DUP5 MSTORE PUSH1 0x24 CALLDATASIZE SWAP3 ADD PUSH2 0x1B21 JUMP JUMPDEST PUSH1 0x20 DUP3 ADD SWAP1 DUP2 MSTORE PUSH1 0x40 DUP3 ADD DUP4 DUP2 MSTORE PUSH1 0x60 DUP4 ADD SWAP2 TIMESTAMP DUP4 MSTORE DUP7 PUSH0 MSTORE PUSH1 0x9 PUSH1 0x20 MSTORE PUSH1 0x40 PUSH0 KECCAK256 SWAP4 MLOAD DUP5 SSTORE PUSH1 0x1 DUP5 ADD SWAP1 MLOAD DUP1 MLOAD SWAP1 PUSH8 0xFFFFFFFFFFFFFFFF DUP3 GT PUSH2 0x14EC JUMPI PUSH2 0x11F0 DUP4 SLOAD PUSH2 0x19EF JUMP JUMPDEST PUSH1 0x1F DUP2 GT PUSH2 0x1572 JUMPI JUMPDEST POP PUSH1 0x20 SWAP1 PUSH1 0x1F DUP4 GT PUSH1 0x1 EQ PUSH2 0x150B JUMPI PUSH1 0x3 SWAP6 SWAP5 SWAP4 SWAP3 SWAP2 PUSH0 SWAP2 DUP4 PUSH2 0x1500 JUMPI JUMPDEST POP POP DUP2 PUSH1 0x1 SHL SWAP2 PUSH0 NOT SWAP1 DUP8 SHL SHR NOT AND OR SWAP1 SSTORE JUMPDEST MLOAD PUSH1 0x2 DUP5 ADD SSTORE MLOAD SWAP2 ADD SSTORE PUSH1 0x1 PUSH1 0x1 PUSH1 0xA0 SHL SUB DUP5 AND PUSH0 DUP2 DUP2 MSTORE PUSH1 0xA PUSH1 0x20 MSTORE PUSH1 0x40 SWAP1 KECCAK256 DUP1 SLOAD SWAP2 SWAP3 SWAP2 PUSH9 0x10000000000000000 DUP2 LT ISZERO PUSH2 0x14EC JUMPI PUSH1 0x1 DUP2 ADD DUP1 DUP4 SSTORE DUP2 LT ISZERO PUSH2 0x14D8 JUMPI DUP6 SWAP2 PUSH0 MSTORE PUSH1 0x20 PUSH0 KECCAK256 ADD SSTORE PUSH1 0x20 SWAP5 PUSH1 0x40 MLOAD PUSH2 0x1289 DUP8 DUP3 PUSH2 0x1A43 JUMP JUMPDEST PUSH0 DUP2 MSTORE DUP4 ISZERO PUSH2 0x14C5 JUMPI PUSH0 DUP7 DUP2 MSTORE PUSH1 0x2 DUP9 MSTORE PUSH1 0x40 SWAP1 KECCAK256 SLOAD PUSH1 0x1 PUSH1 0x1 PUSH1 0xA0 SHL SUB AND SWAP2 DUP3 ISZERO ISZERO DUP1 PUSH2 0x1495 JUMPI JUMPDEST DUP6 PUSH0 MSTORE PUSH1 0x3 DUP10 MSTORE PUSH1 0x40 PUSH0 KECCAK256 PUSH1 0x1 DUP2 SLOAD ADD SWAP1 SSTORE DUP8 PUSH0 MSTORE PUSH1 0x2 DUP10 MSTORE PUSH1 0x40 PUSH0 KECCAK256 DUP7 PUSH12 0xFFFFFFFFFFFFFFFFFFFFFFFF PUSH1 0xA0 SHL DUP3 SLOAD AND OR SWAP1 SSTORE DUP8 DUP7 PUSH1 0x40 MLOAD SWAP6 PUSH32 0xDDF252AD1BE2C89B69C2B068FC378DAA952BA7F163C4A11628F55A4DF523B3EF PUSH0 DUP1 LOG4 PUSH2 0x1482 JUMPI EXTCODESIZE PUSH2 0x134F JUMPI JUMPDEST POP POP PUSH32 0xC8F58E46E4BD0BF357A5B1F9591640389D323BABC122183940FA10F1A31CF10D DUP6 DUP6 SWAP3 PUSH1 0x40 MLOAD SWAP1 DUP2 MSTORE LOG4 PUSH1 0x40 MLOAD SWAP1 DUP2 MSTORE RETURN JUMPDEST SWAP6 DUP2 DUP1 PUSH2 0x1387 DUP4 SWAP9 SWAP8 SWAP7 SWAP10 PUSH4 0xA85BD01 PUSH1 0xE1 SHL DUP4 MSTORE CALLER PUSH1 0x4 DUP5 ADD MSTORE PUSH0 PUSH1 0x24 DUP5 ADD MSTORE DUP9 PUSH1 0x44 DUP5 ADD MSTORE PUSH1 0x80 PUSH1 0x64 DUP5 ADD MSTORE PUSH1 0x84 DUP4 ADD SWAP1 PUSH2 0x1965 JUMP JUMPDEST SUB DUP2 PUSH0 DUP11 GAS CALL PUSH0 SWAP2 DUP2 PUSH2 0x1442 JUMPI JUMPDEST POP PUSH2 0x13EA JUMPI DUP6 DUP6 RETURNDATASIZE ISZERO PUSH2 0x13E2 JUMPI RETURNDATASIZE SWAP1 PUSH2 0x13AD DUP3 PUSH2 0x1B05 JUMP JUMPDEST SWAP2 PUSH2 0x13BB PUSH1 0x40 MLOAD SWAP4 DUP5 PUSH2 0x1A43 JUMP JUMPDEST DUP3 MSTORE RETURNDATASIZE PUSH0 DUP3 DUP5 ADD RETURNDATACOPY JUMPDEST DUP2 MLOAD SWAP2 DUP3 PUSH2 0x13DF JUMPI DUP4 PUSH4 0x32505749 PUSH1 0xE1 SHL PUSH0 MSTORE PUSH1 0x4 MSTORE PUSH1 0x24 PUSH0 REVERT JUMPDEST ADD REVERT JUMPDEST PUSH1 0x60 SWAP1 PUSH2 0x13C4 JUMP JUMPDEST SWAP4 SWAP5 SWAP3 SWAP4 SWAP2 SWAP3 SWAP2 PUSH1 0x1 PUSH1 0x1 PUSH1 0xE0 SHL SUB NOT AND PUSH4 0x757A42FF PUSH1 0xE1 SHL ADD PUSH2 0x142F JUMPI PUSH32 0xC8F58E46E4BD0BF357A5B1F9591640389D323BABC122183940FA10F1A31CF10D DUP6 PUSH2 0x131A JUMP JUMPDEST POP PUSH4 0x32505749 PUSH1 0xE1 SHL PUSH0 MSTORE PUSH1 0x4 MSTORE PUSH1 0x24 PUSH0 REVERT JUMPDEST SWAP1 SWAP2 POP DUP6 DUP2 DUP2 RETURNDATASIZE DUP4 GT PUSH2 0x147B JUMPI JUMPDEST PUSH2 0x145A DUP2 DUP4 PUSH2 0x1A43 JUMP JUMPDEST DUP2 ADD SUB SLT PUSH2 0x174 JUMPI MLOAD PUSH1 0x1 PUSH1 0x1 PUSH1 0xE0 SHL SUB NOT DUP2 AND DUP2 SUB PUSH2 0x174 JUMPI SWAP1 DUP8 PUSH2 0x1395 JUMP JUMPDEST POP RETURNDATASIZE PUSH2 0x1450 JUMP JUMPDEST PUSH4 0x39E35637 PUSH1 0xE1 SHL PUSH0 MSTORE PUSH0 PUSH1 0x4 MSTORE PUSH1 0x24 PUSH0 REVERT JUMPDEST PUSH0 DUP9 DUP2 MSTORE PUSH1 0x4 DUP11 MSTORE PUSH1 0x40 DUP1 DUP3 KECCAK256 DUP1 SLOAD PUSH1 0x1 PUSH1 0x1 PUSH1 0xA0 SHL SUB NOT AND SWAP1 SSTORE DUP6 DUP3 MSTORE PUSH1 0x3 DUP12 MSTORE SWAP1 KECCAK256 DUP1 SLOAD PUSH0 NOT ADD SWAP1 SSTORE PUSH2 0x12B2 JUMP JUMPDEST PUSH4 0x32505749 PUSH1 0xE1 SHL PUSH0 MSTORE PUSH0 PUSH1 0x4 MSTORE PUSH1 0x24 PUSH0 REVERT JUMPDEST PUSH4 0x4E487B71 PUSH1 0xE0 SHL PUSH0 MSTORE PUSH1 0x32 PUSH1 0x4 MSTORE PUSH1 0x24 PUSH0 REVERT JUMPDEST PUSH4 0x4E487B71 PUSH1 0xE0 SHL PUSH0 MSTORE PUSH1 0x41 PUSH1 0x4 MSTORE PUSH1 0x24 PUSH0 REVERT JUMPDEST ADD MLOAD SWAP1 POP DUP12 DUP1 PUSH2 0x1217 JUMP JUMPDEST SWAP1 PUSH1 0x1F NOT DUP4 AND SWAP2 DUP5 PUSH0 MSTORE DUP2 PUSH0 KECCAK256 SWAP3 PUSH0 JUMPDEST DUP2 DUP2 LT PUSH2 0x155A JUMPI POP SWAP2 PUSH1 0x1 SWAP4 SWAP2 DUP6 PUSH1 0x3 SWAP10 SWAP9 SWAP8 SWAP7 SWAP5 LT PUSH2 0x1543 JUMPI JUMPDEST POP POP POP DUP2 SHL ADD SWAP1 SSTORE PUSH2 0x122A JUMP JUMPDEST ADD MLOAD PUSH0 NOT DUP4 DUP10 SHL PUSH1 0xF8 AND SHR NOT AND SWAP1 SSTORE DUP12 DUP1 DUP1 PUSH2 0x1536 JUMP JUMPDEST SWAP3 SWAP4 PUSH1 0x20 PUSH1 0x1 DUP2 SWAP3 DUP8 DUP7 ADD MLOAD DUP2 SSTORE ADD SWAP6 ADD SWAP4 ADD PUSH2 0x151B JUMP JUMPDEST DUP4 PUSH0 MSTORE PUSH1 0x20 PUSH0 KECCAK256 PUSH1 0x1F DUP5 ADD PUSH1 0x5 SHR DUP2 ADD SWAP2 PUSH1 0x20 DUP6 LT PUSH2 0x15AD JUMPI JUMPDEST PUSH1 0x1F ADD PUSH1 0x5 SHR ADD SWAP1 JUMPDEST DUP2 DUP2 LT PUSH2 0x15A2 JUMPI POP PUSH2 0x11F9 JUMP JUMPDEST PUSH0 DUP2 SSTORE PUSH1 0x1 ADD PUSH2 0x1595 JUMP JUMPDEST SWAP1 SWAP2 POP DUP2 SWAP1 PUSH2 0x158C JUMP JUMPDEST PUSH4 0x4E487B71 PUSH1 0xE0 SHL PUSH0 MSTORE PUSH1 0x11 PUSH1 0x4 MSTORE PUSH1 0x24 PUSH0 REVERT JUMPDEST PUSH4 0xA06CF79 PUSH1 0xE0 SHL PUSH0 MSTORE PUSH1 0x4 PUSH0 REVERT JUMPDEST PUSH4 0x4ECA2D67 PUSH1 0xE0 SHL PUSH0 MSTORE PUSH1 0x4 PUSH0 REVERT JUMPDEST CALLVALUE PUSH2 0x174 JUMPI PUSH0 CALLDATASIZE PUSH1 0x3 NOT ADD SLT PUSH2 0x174 JUMPI PUSH2 0x1601 PUSH2 0x1B8B JUMP JUMPDEST PUSH1 0x6 DUP1 SLOAD PUSH1 0x1 PUSH1 0x1 PUSH1 0xA0 SHL SUB NOT DUP2 AND SWAP1 SWAP2 SSTORE PUSH0 SWAP1 PUSH1 0x1 PUSH1 0x1 PUSH1 0xA0 SHL SUB AND PUSH32 0x8BE0079C531659141344CD1FD0A4F28419497F9722A3DAAFE3B4186F6B6457E0 DUP3 DUP1 LOG3 STOP JUMPDEST CALLVALUE PUSH2 0x174 JUMPI PUSH1 0x20 CALLDATASIZE PUSH1 0x3 NOT ADD SLT PUSH2 0x174 JUMPI PUSH1 0x1 PUSH1 0x1 PUSH1 0xA0 SHL SUB PUSH2 0x1665 PUSH2 0x1989 JUMP JUMPDEST AND DUP1 ISZERO PUSH2 0x1682 JUMPI PUSH0 MSTORE PUSH1 0x3 PUSH1 0x20 MSTORE PUSH1 0x20 PUSH1 0x40 PUSH0 KECCAK256 SLOAD PUSH1 0x40 MLOAD SWAP1 DUP2 MSTORE RETURN JUMPDEST PUSH4 0x22718AD9 PUSH1 0xE2 SHL PUSH0 MSTORE PUSH0 PUSH1 0x4 MSTORE PUSH1 0x24 PUSH0 REVERT JUMPDEST CALLVALUE PUSH2 0x174 JUMPI PUSH1 0x20 CALLDATASIZE PUSH1 0x3 NOT ADD SLT PUSH2 0x174 JUMPI PUSH1 0x20 PUSH2 0x16B3 PUSH1 0x4 CALLDATALOAD PUSH2 0x1B57 JUMP JUMPDEST PUSH1 0x40 MLOAD PUSH1 0x1 PUSH1 0x1 PUSH1 0xA0 SHL SUB SWAP1 SWAP2 AND DUP2 MSTORE RETURN JUMPDEST CALLVALUE PUSH2 0x174 JUMPI PUSH2 0x16D3 CALLDATASIZE PUSH2 0x19B5 JUMP JUMPDEST POP POP POP PUSH0 PUSH1 0x40 MLOAD PUSH2 0x16E5 PUSH1 0x20 DUP3 PUSH2 0x1A43 JUMP JUMPDEST MSTORE PUSH4 0x6E105749 PUSH1 0xE0 SHL PUSH0 MSTORE PUSH1 0x4 PUSH0 REVERT JUMPDEST CALLVALUE PUSH2 0x174 JUMPI PUSH2 0x1703 CALLDATASIZE PUSH2 0x19B5 JUMP JUMPDEST POP POP POP PUSH4 0x6E105749 PUSH1 0xE0 SHL PUSH0 MSTORE PUSH1 0x4 PUSH0 REVERT JUMPDEST CALLVALUE PUSH2 0x174 JUMPI PUSH0 CALLDATASIZE PUSH1 0x3 NOT ADD SLT PUSH2 0x174 JUMPI PUSH1 0x20 PUSH1 0x7 SLOAD PUSH1 0x40 MLOAD SWAP1 DUP2 MSTORE RETURN JUMPDEST CALLVALUE PUSH2 0x174 JUMPI PUSH1 0x40 CALLDATASIZE PUSH1 0x3 NOT ADD SLT PUSH2 0x174 JUMPI PUSH2 0x174B PUSH2 0x1989 JUMP JUMPDEST PUSH1 0x24 CALLDATALOAD PUSH2 0x1757 DUP2 PUSH2 0x1B57 JUMP JUMPDEST CALLER ISZERO ISZERO DUP1 PUSH2 0x1809 JUMPI JUMPDEST DUP1 PUSH2 0x17DC JUMPI JUMPDEST PUSH2 0x17C9 JUMPI DUP2 SWAP1 PUSH1 0x1 PUSH1 0x1 PUSH1 0xA0 SHL SUB DUP5 DUP2 AND SWAP2 AND PUSH32 0x8C5BE1E5EBEC7D5BD14F71427D1E84F3DD0314C0F7B2291E5B200AC8C7C3B925 PUSH0 DUP1 LOG4 PUSH0 SWAP1 DUP2 MSTORE PUSH1 0x4 PUSH1 0x20 MSTORE PUSH1 0x40 SWAP1 KECCAK256 DUP1 SLOAD PUSH1 0x1 PUSH1 0x1 PUSH1 0xA0 SHL SUB NOT AND PUSH1 0x1 PUSH1 0x1 PUSH1 0xA0 SHL SUB SWAP1 SWAP3 AND SWAP2 SWAP1 SWAP2 OR SWAP1 SSTORE STOP JUMPDEST PUSH4 0xA9FBF51F PUSH1 0xE0 SHL PUSH0 MSTORE CALLER PUSH1 0x4 MSTORE PUSH1 0x24 PUSH0 REVERT JUMPDEST POP PUSH1 0x1 PUSH1 0x1 PUSH1 0xA0 SHL SUB DUP2 AND PUSH0 SWAP1 DUP2 MSTORE PUSH1 0x5 PUSH1 0x20 SWAP1 DUP2 MSTORE PUSH1 0x40 DUP1 DUP4 KECCAK256 CALLER DUP5 MSTORE SWAP1 SWAP2 MSTORE SWAP1 KECCAK256 SLOAD PUSH1 0xFF AND ISZERO PUSH2 0x1766 JUMP JUMPDEST POP PUSH1 0x1 PUSH1 0x1 PUSH1 0xA0 SHL SUB DUP2 AND CALLER EQ ISZERO PUSH2 0x1760 JUMP JUMPDEST CALLVALUE PUSH2 0x174 JUMPI PUSH1 0x20 CALLDATASIZE PUSH1 0x3 NOT ADD SLT PUSH2 0x174 JUMPI PUSH1 0x4 CALLDATALOAD PUSH2 0x1839 DUP2 PUSH2 0x1B57 JUMP JUMPDEST POP PUSH0 MSTORE PUSH1 0x4 PUSH1 0x20 MSTORE PUSH1 0x20 PUSH1 0x1 DUP1 PUSH1 0xA0 SHL SUB PUSH1 0x40 PUSH0 KECCAK256 SLOAD AND PUSH1 0x40 MLOAD SWAP1 DUP2 MSTORE RETURN JUMPDEST CALLVALUE PUSH2 0x174 JUMPI PUSH0 CALLDATASIZE PUSH1 0x3 NOT ADD SLT PUSH2 0x174 JUMPI PUSH1 0x40 MLOAD PUSH0 PUSH0 SLOAD PUSH2 0x1877 DUP2 PUSH2 0x19EF JUMP JUMPDEST DUP1 DUP5 MSTORE SWAP1 PUSH1 0x1 DUP2 AND SWAP1 DUP2 ISZERO PUSH2 0x10B5 JUMPI POP PUSH1 0x1 EQ PUSH2 0x189E JUMPI PUSH2 0xDC8 DUP4 PUSH2 0x1043 DUP2 DUP6 SUB DUP3 PUSH2 0x1A43 JUMP JUMPDEST PUSH0 DUP1 DUP1 MSTORE PUSH32 0x290DECD9548B62A8D60345A988386FC84BA6BC95484008F6362F93160EF3E563 SWAP4 SWAP3 POP SWAP1 JUMPDEST DUP1 DUP3 LT PUSH2 0x18E0 JUMPI POP SWAP1 SWAP2 POP DUP2 ADD PUSH1 0x20 ADD PUSH2 0x1043 PUSH2 0x1033 JUMP JUMPDEST SWAP2 SWAP3 PUSH1 0x1 DUP2 PUSH1 0x20 SWAP3 SLOAD DUP4 DUP6 DUP9 ADD ADD MSTORE ADD SWAP2 ADD SWAP1 SWAP3 SWAP2 PUSH2 0x18C8 JUMP JUMPDEST CALLVALUE PUSH2 0x174 JUMPI PUSH1 0x20 CALLDATASIZE PUSH1 0x3 NOT ADD SLT PUSH2 0x174 JUMPI PUSH1 0x4 CALLDATALOAD SWAP1 PUSH4 0xFFFFFFFF PUSH1 0xE0 SHL DUP3 AND DUP1 SWAP3 SUB PUSH2 0x174 JUMPI PUSH1 0x20 SWAP2 PUSH4 0x80AC58CD PUSH1 0xE0 SHL DUP2 EQ SWAP1 DUP2 ISZERO PUSH2 0x1954 JUMPI JUMPDEST DUP2 ISZERO PUSH2 0x1943 JUMPI JUMPDEST POP ISZERO ISZERO DUP2 MSTORE RETURN JUMPDEST PUSH4 0x1FFC9A7 PUSH1 0xE0 SHL EQ SWAP1 POP DUP4 PUSH2 0x193C JUMP JUMPDEST PUSH4 0x5B5E139F PUSH1 0xE0 SHL DUP2 EQ SWAP2 POP PUSH2 0x1935 JUMP JUMPDEST DUP1 MLOAD DUP1 DUP4 MSTORE PUSH1 0x20 SWAP3 SWAP2 DUP2 SWAP1 DUP5 ADD DUP5 DUP5 ADD MCOPY PUSH0 DUP3 DUP3 ADD DUP5 ADD MSTORE PUSH1 0x1F ADD PUSH1 0x1F NOT AND ADD ADD SWAP1 JUMP JUMPDEST PUSH1 0x4 CALLDATALOAD SWAP1 PUSH1 0x1 PUSH1 0x1 PUSH1 0xA0 SHL SUB DUP3 AND DUP3 SUB PUSH2 0x174 JUMPI JUMP JUMPDEST PUSH1 0x24 CALLDATALOAD SWAP1 PUSH1 0x1 PUSH1 0x1 PUSH1 0xA0 SHL SUB DUP3 AND DUP3 SUB PUSH2 0x174 JUMPI JUMP JUMPDEST PUSH1 0x60 SWAP1 PUSH1 0x3 NOT ADD SLT PUSH2 0x174 JUMPI PUSH1 0x4 CALLDATALOAD PUSH1 0x1 PUSH1 0x1 PUSH1 0xA0 SHL SUB DUP2 AND DUP2 SUB PUSH2 0x174 JUMPI SWAP1 PUSH1 0x24 CALLDATALOAD PUSH1 0x1 PUSH1 0x1 PUSH1 0xA0 SHL SUB DUP2 AND DUP2 SUB PUSH2 0x174 JUMPI SWAP1 PUSH1 0x44 CALLDATALOAD SWAP1 JUMP JUMPDEST SWAP1 PUSH1 0x1 DUP3 DUP2 SHR SWAP3 AND DUP1 ISZERO PUSH2 0x1A1D JUMPI JUMPDEST PUSH1 0x20 DUP4 LT EQ PUSH2 0x1A09 JUMPI JUMP JUMPDEST PUSH4 0x4E487B71 PUSH1 0xE0 SHL PUSH0 MSTORE PUSH1 0x22 PUSH1 0x4 MSTORE PUSH1 0x24 PUSH0 REVERT JUMPDEST SWAP2 PUSH1 0x7F AND SWAP2 PUSH2 0x19FE JUMP JUMPDEST PUSH1 0x80 DUP2 ADD SWAP1 DUP2 LT PUSH8 0xFFFFFFFFFFFFFFFF DUP3 GT OR PUSH2 0x14EC JUMPI PUSH1 0x40 MSTORE JUMP JUMPDEST SWAP1 PUSH1 0x1F DUP1 NOT SWAP2 ADD AND DUP2 ADD SWAP1 DUP2 LT PUSH8 0xFFFFFFFFFFFFFFFF DUP3 GT OR PUSH2 0x14EC JUMPI PUSH1 0x40 MSTORE JUMP JUMPDEST SWAP1 PUSH1 0x40 MLOAD SWAP2 DUP3 PUSH0 DUP3 SLOAD SWAP3 PUSH2 0x1A78 DUP5 PUSH2 0x19EF JUMP JUMPDEST DUP1 DUP5 MSTORE SWAP4 PUSH1 0x1 DUP2 AND SWAP1 DUP2 ISZERO PUSH2 0x1AE3 JUMPI POP PUSH1 0x1 EQ PUSH2 0x1A9F JUMPI JUMPDEST POP PUSH2 0x1A9D SWAP3 POP SUB DUP4 PUSH2 0x1A43 JUMP JUMPDEST JUMP JUMPDEST SWAP1 POP PUSH0 SWAP3 SWAP2 SWAP3 MSTORE PUSH1 0x20 PUSH0 KECCAK256 SWAP1 PUSH0 SWAP2 JUMPDEST DUP2 DUP4 LT PUSH2 0x1AC7 JUMPI POP POP SWAP1 PUSH1 0x20 PUSH2 0x1A9D SWAP3 DUP3 ADD ADD PUSH0 PUSH2 0x1A90 JUMP JUMPDEST PUSH1 0x20 SWAP2 SWAP4 POP DUP1 PUSH1 0x1 SWAP2 SLOAD DUP4 DUP6 DUP10 ADD ADD MSTORE ADD SWAP2 ADD SWAP1 SWAP2 DUP5 SWAP3 PUSH2 0x1AAE JUMP JUMPDEST SWAP1 POP PUSH1 0x20 SWAP3 POP PUSH2 0x1A9D SWAP5 SWAP2 POP PUSH1 0xFF NOT AND DUP3 DUP5 ADD MSTORE ISZERO ISZERO PUSH1 0x5 SHL DUP3 ADD ADD PUSH0 PUSH2 0x1A90 JUMP JUMPDEST PUSH8 0xFFFFFFFFFFFFFFFF DUP2 GT PUSH2 0x14EC JUMPI PUSH1 0x1F ADD PUSH1 0x1F NOT AND PUSH1 0x20 ADD SWAP1 JUMP JUMPDEST SWAP3 SWAP2 SWAP3 PUSH2 0x1B2D DUP3 PUSH2 0x1B05 JUMP JUMPDEST SWAP2 PUSH2 0x1B3B PUSH1 0x40 MLOAD SWAP4 DUP5 PUSH2 0x1A43 JUMP JUMPDEST DUP3 SWAP5 DUP2 DUP5 MSTORE DUP2 DUP4 ADD GT PUSH2 0x174 JUMPI DUP3 DUP2 PUSH1 0x20 SWAP4 DUP5 PUSH0 SWAP7 ADD CALLDATACOPY ADD ADD MSTORE JUMP JUMPDEST PUSH0 DUP2 DUP2 MSTORE PUSH1 0x2 PUSH1 0x20 MSTORE PUSH1 0x40 SWAP1 KECCAK256 SLOAD PUSH1 0x1 PUSH1 0x1 PUSH1 0xA0 SHL SUB AND SWAP1 DUP2 ISZERO PUSH2 0x1B79 JUMPI POP SWAP1 JUMP JUMPDEST PUSH4 0x7E273289 PUSH1 0xE0 SHL PUSH0 MSTORE PUSH1 0x4 MSTORE PUSH1 0x24 PUSH0 REVERT JUMPDEST PUSH1 0x6 SLOAD PUSH1 0x1 PUSH1 0x1 PUSH1 0xA0 SHL SUB AND CALLER SUB PUSH2 0x1B9F JUMPI JUMP JUMPDEST PUSH4 0x118CDAA7 PUSH1 0xE0 SHL PUSH0 MSTORE CALLER PUSH1 0x4 MSTORE PUSH1 0x24 PUSH0 REVERT JUMPDEST DUP1 PUSH0 SWAP2 PUSH19 0x184F03E93FF9F4DAA797ED6E38ED64BF6A1F01 PUSH1 0x40 SHL DUP3 LT ISZERO PUSH2 0x1CFC JUMPI JUMPDEST DUP1 PUSH14 0x4EE2D6D415B85ACEF8100000000 PUSH1 0xA SWAP3 LT ISZERO PUSH2 0x1CE1 JUMPI JUMPDEST PUSH7 0x2386F26FC10000 DUP2 LT ISZERO PUSH2 0x1CCD JUMPI JUMPDEST PUSH4 0x5F5E100 DUP2 LT ISZERO PUSH2 0x1CBC JUMPI JUMPDEST PUSH2 0x2710 DUP2 LT ISZERO PUSH2 0x1CAD JUMPI JUMPDEST PUSH1 0x64 DUP2 LT ISZERO PUSH2 0x1C9F JUMPI JUMPDEST LT ISZERO PUSH2 0x1C94 JUMPI JUMPDEST PUSH1 0xA PUSH1 0x21 PUSH1 0x1 DUP5 ADD SWAP4 PUSH2 0x1C39 DUP6 PUSH2 0x1B05 JUMP JUMPDEST SWAP5 PUSH2 0x1C47 PUSH1 0x40 MLOAD SWAP7 DUP8 PUSH2 0x1A43 JUMP JUMPDEST DUP1 DUP7 MSTORE PUSH2 0x1C56 PUSH1 0x1F NOT SWAP2 PUSH2 0x1B05 JUMP JUMPDEST ADD CALLDATASIZE PUSH1 0x20 DUP8 ADD CALLDATACOPY DUP5 ADD ADD JUMPDEST PUSH0 NOT ADD SWAP2 PUSH16 0x181899199A1A9B1B9C1CB0B131B232B3 PUSH1 0x81 SHL DUP3 DUP3 MOD BYTE DUP4 MSTORE8 DIV DUP1 ISZERO PUSH2 0x1C8F JUMPI PUSH1 0xA SWAP1 SWAP2 PUSH2 0x1C61 JUMP JUMPDEST POP POP SWAP1 JUMP JUMPDEST PUSH1 0x1 SWAP1 SWAP2 ADD SWAP1 PUSH2 0x1C27 JUMP JUMPDEST PUSH1 0x64 PUSH1 0x2 SWAP2 DIV SWAP4 ADD SWAP3 PUSH2 0x1C20 JUMP JUMPDEST PUSH2 0x2710 PUSH1 0x4 SWAP2 DIV SWAP4 ADD SWAP3 PUSH2 0x1C16 JUMP JUMPDEST PUSH4 0x5F5E100 PUSH1 0x8 SWAP2 DIV SWAP4 ADD SWAP3 PUSH2 0x1C0B JUMP JUMPDEST PUSH7 0x2386F26FC10000 PUSH1 0x10 SWAP2 DIV SWAP4 ADD SWAP3 PUSH2 0x1BFE JUMP JUMPDEST PUSH14 0x4EE2D6D415B85ACEF8100000000 PUSH1 0x20 SWAP2 DIV SWAP4 ADD SWAP3 PUSH2 0x1BEE JUMP JUMPDEST POP PUSH1 0x40 SWAP2 POP PUSH19 0x184F03E93FF9F4DAA797ED6E38ED64BF6A1F01 PUSH1 0x40 SHL DUP2 DIV PUSH2 0x1BD4 JUMP JUMPDEST SWAP1 DUP2 MLOAD DUP2 LT ISZERO PUSH2 0x14D8 JUMPI ADD PUSH1 0x20 ADD SWAP1 JUMP JUMPDEST SWAP1 PUSH1 0x1A DUP3 MLOAD GT ISZERO PUSH2 0x1A9D JUMPI PUSH2 0x1D45 PUSH1 0x1A PUSH2 0x1B05 JUMP JUMPDEST PUSH2 0x1D52 PUSH1 0x40 MLOAD SWAP2 DUP3 PUSH2 0x1A43 JUMP JUMPDEST PUSH1 0x1A DUP2 MSTORE PUSH1 0x1F NOT PUSH2 0x1D63 PUSH1 0x1A PUSH2 0x1B05 JUMP JUMPDEST ADD CALLDATASIZE PUSH1 0x20 DUP4 ADD CALLDATACOPY PUSH0 JUMPDEST PUSH1 0x17 DUP2 LT PUSH2 0x1DAE JUMPI POP SWAP1 SWAP2 POP DUP1 MLOAD PUSH1 0x17 LT ISZERO PUSH2 0x14D8 JUMPI PUSH1 0x2E PUSH1 0x37 DUP3 ADD MSTORE8 DUP1 MLOAD PUSH1 0x18 LT ISZERO PUSH2 0x14D8 JUMPI PUSH1 0x2E PUSH1 0x38 DUP3 ADD MSTORE8 DUP1 MLOAD PUSH1 0x19 LT ISZERO PUSH2 0x14D8 JUMPI PUSH1 0x2E PUSH1 0x39 DUP3 ADD MSTORE8 SWAP1 JUMP JUMPDEST PUSH1 0x1 SWAP1 PUSH1 0x1 PUSH1 0x1 PUSH1 0xF8 SHL SUB NOT PUSH2 0x1DC4 DUP3 DUP8 PUSH2 0x1D1F JUMP JUMPDEST MLOAD AND PUSH0 BYTE PUSH2 0x1DD2 DUP3 DUP6 PUSH2 0x1D1F JUMP JUMPDEST MSTORE8 ADD PUSH2 0x1D6C JUMP JUMPDEST SWAP1 DUP2 MLOAD ISZERO PUSH2 0x1EF8 JUMPI DUP2 MLOAD PUSH1 0x2 DUP2 ADD DUP1 SWAP2 GT PUSH2 0x15B7 JUMPI PUSH1 0x3 SWAP1 DIV PUSH1 0x2 DUP2 SWAP1 SHL SWAP2 SWAP1 PUSH1 0x1 PUSH1 0x1 PUSH1 0xFE SHL SUB DUP2 AND SUB PUSH2 0x15B7 JUMPI PUSH1 0x40 MLOAD SWAP2 PUSH32 0x4142434445464748494A4B4C4D4E4F505152535455565758595A616263646566 PUSH1 0x1F MSTORE PUSH32 0x6768696A6B6C6D6E6F707172737475767778797A303132333435363738392B2F PUSH1 0x3F MSTORE PUSH1 0x20 DUP4 ADD DUP5 DUP1 MLOAD DUP2 ADD PUSH1 0x20 DUP2 ADD DUP1 MLOAD SWAP2 PUSH0 DUP3 MSTORE JUMPDEST DUP1 DUP10 LT PUSH2 0x1EBC JUMPI POP PUSH1 0x20 SWAP6 SWAP7 SWAP8 POP SWAP1 PUSH1 0x3 SWAP3 SWAP2 MSTORE MLOAD MOD DUP1 PUSH1 0x1 EQ PUSH2 0x1EA7 JUMPI PUSH1 0x2 EQ PUSH2 0x1E9A JUMPI JUMPDEST POP DUP1 DUP5 MSTORE DUP4 ADD ADD PUSH1 0x40 MSTORE JUMP JUMPDEST PUSH1 0x3D SWAP1 PUSH0 NOT ADD MSTORE8 PUSH0 PUSH2 0x1E8E JUMP JUMPDEST POP PUSH1 0x3D SWAP1 DUP2 PUSH0 NOT DUP3 ADD MSTORE8 PUSH1 0x1 NOT ADD MSTORE8 PUSH0 PUSH2 0x1E8E JUMP JUMPDEST SWAP4 SWAP8 PUSH1 0x3 PUSH1 0x4 SWAP2 ADD SWAP9 PUSH1 0x3F DUP11 MLOAD DUP2 DUP2 PUSH1 0x12 SHR AND MLOAD DUP4 MSTORE8 DUP2 DUP2 PUSH1 0xC SHR AND MLOAD PUSH1 0x1 DUP5 ADD MSTORE8 DUP2 DUP2 PUSH1 0x6 SHR AND MLOAD PUSH1 0x2 DUP5 ADD MSTORE8 AND MLOAD PUSH1 0x3 DUP3 ADD MSTORE8 ADD SWAP4 PUSH2 0x1E68 JUMP JUMPDEST SWAP1 POP PUSH1 0x40 MLOAD PUSH2 0x1F08 PUSH1 0x20 DUP3 PUSH2 0x1A43 JUMP JUMPDEST PUSH0 DUP2 MSTORE SWAP1 JUMP JUMPDEST PUSH1 0xA DUP2 LT PUSH2 0x1FB2 JUMPI PUSH1 0x64 DUP2 LT PUSH2 0x1F72 JUMPI PUSH2 0x3E8 DUP2 LT PUSH2 0x1F33 JUMPI PUSH2 0x1F30 SWAP1 PUSH2 0x1BB2 JUMP JUMPDEST SWAP1 JUMP JUMPDEST PUSH2 0x1F30 PUSH1 0x21 PUSH2 0x1F43 PUSH1 0x20 SWAP4 PUSH2 0x1BB2 JUMP JUMPDEST PUSH1 0x40 MLOAD SWAP4 DUP5 SWAP2 PUSH1 0x3 PUSH1 0xFC SHL DUP3 DUP5 ADD MSTORE DUP1 MLOAD SWAP2 DUP3 SWAP2 ADD DUP5 DUP5 ADD MCOPY DUP2 ADD PUSH0 DUP4 DUP3 ADD MSTORE SUB ADD PUSH1 0x1F NOT DUP2 ADD DUP4 MSTORE DUP3 PUSH2 0x1A43 JUMP JUMPDEST PUSH2 0x1F30 PUSH1 0x22 PUSH2 0x1F82 PUSH1 0x20 SWAP4 PUSH2 0x1BB2 JUMP JUMPDEST PUSH1 0x40 MLOAD SWAP4 DUP5 SWAP2 PUSH2 0x303 PUSH1 0xF4 SHL DUP3 DUP5 ADD MSTORE DUP1 MLOAD SWAP2 DUP3 SWAP2 ADD DUP5 DUP5 ADD MCOPY DUP2 ADD PUSH0 DUP4 DUP3 ADD MSTORE SUB ADD PUSH1 0x1F NOT DUP2 ADD DUP4 MSTORE DUP3 PUSH2 0x1A43 JUMP JUMPDEST PUSH2 0x1F30 PUSH1 0x23 PUSH2 0x1FC2 PUSH1 0x20 SWAP4 PUSH2 0x1BB2 JUMP JUMPDEST PUSH1 0x40 MLOAD SWAP4 DUP5 SWAP2 PUSH3 0x30303 PUSH1 0xEC SHL DUP3 DUP5 ADD MSTORE DUP1 MLOAD SWAP2 DUP3 SWAP2 ADD DUP5 DUP5 ADD MCOPY DUP2 ADD PUSH0 DUP4 DUP3 ADD MSTORE SUB ADD PUSH1 0x1F NOT DUP2 ADD DUP4 MSTORE DUP3 PUSH2 0x1A43 JUMP INVALID PUSH19 0x3D226D6964646C652220666F6E742D66616D69 PUSH13 0x793D22496E7465722C7361A264 PUSH10 0x70667358221220B99368 0xBB SWAP15 GASLIMIT EXTCODESIZE 0xD8 DUP16 MOD 0xD1 JUMPDEST DUP10 PUSH12 0x920EE7B63C7DA950979CEE7F AND DUP11 RETURNDATACOPY DIV KECCAK256 0x22 PUSH5 0x736F6C6343 STOP ADDMOD SHR STOP CALLER "},"methodIdentifiers":{"approve(address,uint256)":"095ea7b3","badgeData(uint256)":"a683f32b","balanceOf(address)":"70a08231","escrowContract()":"e42a96e7","getApproved(uint256)":"081812fc","getBadgesByOwner(address)":"9df8cbe5","isApprovedForAll(address,address)":"e985e9c5","mintBadge(address,uint256,string,uint256)":"8ca0c06c","name()":"06fdde03","owner()":"8da5cb5b","ownerOf(uint256)":"6352211e","renounceOwnership()":"715018a6","safeTransferFrom(address,address,uint256)":"42842e0e","safeTransferFrom(address,address,uint256,bytes)":"b88d4fde","setApprovalForAll(address,bool)":"a22cb465","setEscrowContract(address)":"f42375b5","supportsInterface(bytes4)":"01ffc9a7","symbol()":"95d89b41","tokenURI(uint256)":"c87b56dd","totalSupply()":"18160ddd","transferFrom(address,address,uint256)":"23b872dd","transferOwnership(address)":"f2fde38b"}}}}}