{
  "_format": "hh-sol-artifact-1",
  "contractName": "CrowdfundingEscrow",
  "sourceName": "contracts/FundFlow.sol",
  "abi": [
    {
      "inputs": [
        {
          "internalType": "address",
          "name": "initialOwner",
          "type": "address"
        },
        {
          "internalType": "uint256",
          "name": "_platformFeePercent",
          "type": "uint256"
        }
      ],
      "stateMutability": "nonpayable",
      "type": "constructor"
    },
    {
      "inputs": [],
      "name": "AlreadyRefunded",
      "type": "error"
    },
    {
      "inputs": [],
      "name": "AlreadyVoted",
      "type": "error"
    },
    {
      "inputs": [],
      "name": "CampaignNotActive",
      "type": "error"
    },
    {
      "inputs": [],
      "name": "CampaignNotFailed",
      "type": "error"
    },
    {
      "inputs": [],
      "name": "CampaignNotFound",
      "type": "error"
    },
    {
      "inputs": [],
      "name": "CampaignNotSuccessful",
      "type": "error"
    },
    {
      "inputs": [],
      "name": "DeadlineNotPassed",
      "type": "error"
    },
    {
      "inputs": [],
      "name": "DeadlinePassed",
      "type": "error"
    },
    {
      "inputs": [],
      "name": "EmptyDescription",
      "type": "error"
    },
    {
      "inputs": [],
      "name": "EmptyTitle",
      "type": "error"
    },
    {
      "inputs": [],
      "name": "EnforcedPause",
      "type": "error"
    },
    {
      "inputs": [],
      "name": "ExpectedPause",
      "type": "error"
    },
    {
      "inputs": [],
      "name": "InvalidDuration",
      "type": "error"
    },
    {
      "inputs": [],
      "name": "InvalidGoal",
      "type": "error"
    },
    {
      "inputs": [],
      "name": "InvalidMilestoneAmount",
      "type": "error"
    },
    {
      "inputs": [],
      "name": "MilestoneAlreadyCompleted",
      "type": "error"
    },
    {
      "inputs": [],
      "name": "MilestoneAlreadyRequested",
      "type": "error"
    },
    {
      "inputs": [],
      "name": "MilestoneAmountMismatch",
      "type": "error"
    },
    {
      "inputs": [],
      "name": "MilestoneNotFound",
      "type": "error"
    },
    {
      "inputs": [],
      "name": "MilestoneNotRequested",
      "type": "error"
    },
    {
      "inputs": [],
      "name": "NoMilestonesProvided",
      "type": "error"
    },
    {
      "inputs": [],
      "name": "NotContributor",
      "type": "error"
    },
    {
      "inputs": [],
      "name": "NotCreator",
      "type": "error"
    },
    {
      "inputs": [
        {
          "internalType": "address",
          "name": "owner",
          "type": "address"
        }
      ],
      "name": "OwnableInvalidOwner",
      "type": "error"
    },
    {
      "inputs": [
        {
          "internalType": "address",
          "name": "account",
          "type": "address"
        }
      ],
      "name": "OwnableUnauthorizedAccount",
      "type": "error"
    },
    {
      "inputs": [],
      "name": "ReentrancyGuardReentrantCall",
      "type": "error"
    },
    {
      "inputs": [],
      "name": "TooManyMilestones",
      "type": "error"
    },
    {
      "inputs": [],
      "name": "TransferFailed",
      "type": "error"
    },
    {
      "inputs": [],
      "name": "VotingPeriodActive",
      "type": "error"
    },
    {
      "inputs": [],
      "name": "VotingPeriodEnded",
      "type": "error"
    },
    {
      "inputs": [],
      "name": "ZeroContribution",
      "type": "error"
    },
    {
      "anonymous": false,
      "inputs": [
        {
          "indexed": true,
          "internalType": "address",
          "name": "badgeContract",
          "type": "address"
        }
      ],
      "name": "BackerBadgeContractSet",
      "type": "event"
    },
    {
      "anonymous": false,
      "inputs": [
        {
          "indexed": true,
          "internalType": "uint256",
          "name": "campaignId",
          "type": "uint256"
        }
      ],
      "name": "CampaignCompleted",
      "type": "event"
    },
    {
      "anonymous": false,
      "inputs": [
        {
          "indexed": true,
          "internalType": "uint256",
          "name": "campaignId",
          "type": "uint256"
        },
        {
          "indexed": true,
          "internalType": "address",
          "name": "creator",
          "type": "address"
        },
        {
          "indexed": false,
          "internalType": "string",
          "name": "title",
          "type": "string"
        },
        {
          "indexed": false,
          "internalType": "uint256",
          "name": "goal",
          "type": "uint256"
        },
        {
          "indexed": false,
          "internalType": "uint256",
          "name": "deadline",
          "type": "uint256"
        },
        {
          "indexed": false,
          "internalType": "uint256",
          "name": "milestoneCount",
          "type": "uint256"
        }
      ],
      "name": "CampaignCreated",
      "type": "event"
    },
    {
      "anonymous": false,
      "inputs": [
        {
          "indexed": true,
          "internalType": "uint256",
          "name": "campaignId",
          "type": "uint256"
        },
        {
          "indexed": false,
          "internalType": "enum CrowdfundingEscrow.CampaignStatus",
          "name": "status",
          "type": "uint8"
        }
      ],
      "name": "CampaignStatusUpdated",
      "type": "event"
    },
    {
      "anonymous": false,
      "inputs": [
        {
          "indexed": true,
          "internalType": "uint256",
          "name": "campaignId",
          "type": "uint256"
        },
        {
          "indexed": true,
          "internalType": "address",
          "name": "contributor",
          "type": "address"
        },
        {
          "indexed": false,
          "internalType": "uint256",
          "name": "amount",
          "type": "uint256"
        },
        {
          "indexed": false,
          "internalType": "uint256",
          "name": "totalRaised",
          "type": "uint256"
        },
        {
          "indexed": false,
          "internalType": "uint256",
          "name": "badgeTokenId",
          "type": "uint256"
        }
      ],
      "name": "ContributionReceived",
      "type": "event"
    },
    {
      "anonymous": false,
      "inputs": [
        {
          "indexed": true,
          "internalType": "uint256",
          "name": "campaignId",
          "type": "uint256"
        },
        {
          "indexed": true,
          "internalType": "address",
          "name": "creator",
          "type": "address"
        },
        {
          "indexed": false,
          "internalType": "uint256",
          "name": "amount",
          "type": "uint256"
        }
      ],
      "name": "FundsReleased",
      "type": "event"
    },
    {
      "anonymous": false,
      "inputs": [
        {
          "indexed": true,
          "internalType": "uint256",
          "name": "campaignId",
          "type": "uint256"
        },
        {
          "indexed": true,
          "internalType": "uint256",
          "name": "milestoneIndex",
          "type": "uint256"
        },
        {
          "indexed": false,
          "internalType": "string",
          "name": "title",
          "type": "string"
        },
        {
          "indexed": false,
          "internalType": "uint256",
          "name": "amount",
          "type": "uint256"
        }
      ],
      "name": "MilestoneApproved",
      "type": "event"
    },
    {
      "anonymous": false,
      "inputs": [
        {
          "indexed": true,
          "internalType": "uint256",
          "name": "campaignId",
          "type": "uint256"
        },
        {
          "indexed": true,
          "internalType": "uint256",
          "name": "milestoneIndex",
          "type": "uint256"
        },
        {
          "indexed": false,
          "internalType": "string",
          "name": "title",
          "type": "string"
        }
      ],
      "name": "MilestoneRejected",
      "type": "event"
    },
    {
      "anonymous": false,
      "inputs": [
        {
          "indexed": true,
          "internalType": "uint256",
          "name": "campaignId",
          "type": "uint256"
        },
        {
          "indexed": true,
          "internalType": "uint256",
          "name": "milestoneIndex",
          "type": "uint256"
        },
        {
          "indexed": false,
          "internalType": "string",
          "name": "title",
          "type": "string"
        },
        {
          "indexed": false,
          "internalType": "uint256",
          "name": "amount",
          "type": "uint256"
        },
        {
          "indexed": false,
          "internalType": "uint256",
          "name": "votingDeadline",
          "type": "uint256"
        }
      ],
      "name": "MilestoneRequested",
      "type": "event"
    },
    {
      "anonymous": false,
      "inputs": [
        {
          "indexed": true,
          "internalType": "address",
          "name": "previousOwner",
          "type": "address"
        },
        {
          "indexed": true,
          "internalType": "address",
          "name": "newOwner",
          "type": "address"
        }
      ],
      "name": "OwnershipTransferred",
      "type": "event"
    },
    {
      "anonymous": false,
      "inputs": [
        {
          "indexed": false,
          "internalType": "address",
          "name": "account",
          "type": "address"
        }
      ],
      "name": "Paused",
      "type": "event"
    },
    {
      "anonymous": false,
      "inputs": [
        {
          "indexed": true,
          "internalType": "address",
          "name": "to",
          "type": "address"
        },
        {
          "indexed": false,
          "internalType": "uint256",
          "name": "amount",
          "type": "uint256"
        }
      ],
      "name": "PlatformFeesWithdrawn",
      "type": "event"
    },
    {
      "anonymous": false,
      "inputs": [
        {
          "indexed": true,
          "internalType": "uint256",
          "name": "campaignId",
          "type": "uint256"
        },
        {
          "indexed": true,
          "internalType": "address",
          "name": "contributor",
          "type": "address"
        },
        {
          "indexed": false,
          "internalType": "uint256",
          "name": "amount",
          "type": "uint256"
        }
      ],
      "name": "RefundClaimed",
      "type": "event"
    },
    {
      "anonymous": false,
      "inputs": [
        {
          "indexed": false,
          "internalType": "address",
          "name": "account",
          "type": "address"
        }
      ],
      "name": "Unpaused",
      "type": "event"
    },
    {
      "anonymous": false,
      "inputs": [
        {
          "indexed": true,
          "internalType": "uint256",
          "name": "campaignId",
          "type": "uint256"
        },
        {
          "indexed": true,
          "internalType": "uint256",
          "name": "milestoneIndex",
          "type": "uint256"
        },
        {
          "indexed": true,
          "internalType": "address",
          "name": "voter",
          "type": "address"
        },
        {
          "indexed": false,
          "internalType": "enum CrowdfundingEscrow.VoteOption",
          "name": "vote",
          "type": "uint8"
        },
        {
          "indexed": false,
          "internalType": "uint256",
          "name": "approvalVotes",
          "type": "uint256"
        },
        {
          "indexed": false,
          "internalType": "uint256",
          "name": "rejectionVotes",
          "type": "uint256"
        }
      ],
      "name": "VoteCast",
      "type": "event"
    },
    {
      "inputs": [],
      "name": "MAX_DURATION",
      "outputs": [
        {
          "internalType": "uint256",
          "name": "",
          "type": "uint256"
        }
      ],
      "stateMutability": "view",
      "type": "function"
    },
    {
      "inputs": [],
      "name": "MAX_MILESTONES",
      "outputs": [
        {
          "internalType": "uint256",
          "name": "",
          "type": "uint256"
        }
      ],
      "stateMutability": "view",
      "type": "function"
    },
    {
      "inputs": [],
      "name": "MIN_DURATION",
      "outputs": [
        {
          "internalType": "uint256",
          "name": "",
          "type": "uint256"
        }
      ],
      "stateMutability": "view",
      "type": "function"
    },
    {
      "inputs": [],
      "name": "VOTING_PERIOD",
      "outputs": [
        {
          "internalType": "uint256",
          "name": "",
          "type": "uint256"
        }
      ],
      "stateMutability": "view",
      "type": "function"
    },
    {
      "inputs": [],
      "name": "backerBadgeContract",
      "outputs": [
        {
          "internalType": "address",
          "name": "",
          "type": "address"
        }
      ],
      "stateMutability": "view",
      "type": "function"
    },
    {
      "inputs": [
        {
          "internalType": "uint256",
          "name": "",
          "type": "uint256"
        },
        {
          "internalType": "address",
          "name": "",
          "type": "address"
        }
      ],
      "name": "campaignContributions",
      "outputs": [
        {
          "internalType": "uint256",
          "name": "",
          "type": "uint256"
        }
      ],
      "stateMutability": "view",
      "type": "function"
    },
    {
      "inputs": [],
      "name": "campaignCount",
      "outputs": [
        {
          "internalType": "uint256",
          "name": "",
          "type": "uint256"
        }
      ],
      "stateMutability": "view",
      "type": "function"
    },
    {
      "inputs": [
        {
          "internalType": "uint256",
          "name": "",
          "type": "uint256"
        },
        {
          "internalType": "uint256",
          "name": "",
          "type": "uint256"
        }
      ],
      "name": "campaignMilestones",
      "outputs": [
        {
          "internalType": "string",
          "name": "title",
          "type": "string"
        },
        {
          "internalType": "uint256",
          "name": "amount",
          "type": "uint256"
        },
        {
          "internalType": "bool",
          "name": "completed",
          "type": "bool"
        },
        {
          "internalType": "bool",
          "name": "approved",
          "type": "bool"
        },
        {
          "internalType": "bool",
          "name": "requested",
          "type": "bool"
        },
        {
          "internalType": "uint256",
          "name": "votingDeadline",
          "type": "uint256"
        },
        {
          "internalType": "uint256",
          "name": "approvalVotes",
          "type": "uint256"
        },
        {
          "internalType": "uint256",
          "name": "rejectionVotes",
          "type": "uint256"
        }
      ],
      "stateMutability": "view",
      "type": "function"
    },
    {
      "inputs": [
        {
          "internalType": "uint256",
          "name": "",
          "type": "uint256"
        }
      ],
      "name": "campaigns",
      "outputs": [
        {
          "internalType": "address",
          "name": "creator",
          "type": "address"
        },
        {
          "internalType": "string",
          "name": "title",
          "type": "string"
        },
        {
          "internalType": "string",
          "name": "description",
          "type": "string"
        },
        {
          "internalType": "uint256",
          "name": "goal",
          "type": "uint256"
        },
        {
          "internalType": "uint256",
          "name": "raisedAmount",
          "type": "uint256"
        },
        {
          "internalType": "uint256",
          "name": "deadline",
          "type": "uint256"
        },
        {
          "internalType": "enum CrowdfundingEscrow.CampaignStatus",
          "name": "status",
          "type": "uint8"
        },
        {
          "internalType": "uint256",
          "name": "contributorCount",
          "type": "uint256"
        },
        {
          "internalType": "uint256",
          "name": "currentMilestoneIndex",
          "type": "uint256"
        },
        {
          "internalType": "bool",
          "name": "exists",
          "type": "bool"
        }
      ],
      "stateMutability": "view",
      "type": "function"
    },
    {
      "inputs": [
        {
          "internalType": "uint256",
          "name": "campaignId",
          "type": "uint256"
        }
      ],
      "name": "claimRefund",
      "outputs": [],
      "stateMutability": "nonpayable",
      "type": "function"
    },
    {
      "inputs": [
        {
          "internalType": "uint256",
          "name": "campaignId",
          "type": "uint256"
        }
      ],
      "name": "contribute",
      "outputs": [],
      "stateMutability": "payable",
      "type": "function"
    },
    {
      "inputs": [
        {
          "internalType": "string",
          "name": "title",
          "type": "string"
        },
        {
          "internalType": "string",
          "name": "description",
          "type": "string"
        },
        {
          "internalType": "uint256",
          "name": "goal",
          "type": "uint256"
        },
        {
          "internalType": "uint256",
          "name": "duration",
          "type": "uint256"
        },
        {
          "internalType": "string[]",
          "name": "milestoneTitles",
          "type": "string[]"
        },
        {
          "internalType": "uint256[]",
          "name": "milestoneAmounts",
          "type": "uint256[]"
        }
      ],
      "name": "createCampaign",
      "outputs": [
        {
          "internalType": "uint256",
          "name": "campaignId",
          "type": "uint256"
        }
      ],
      "stateMutability": "nonpayable",
      "type": "function"
    },
    {
      "inputs": [
        {
          "internalType": "uint256",
          "name": "campaignId",
          "type": "uint256"
        },
        {
          "internalType": "uint256",
          "name": "milestoneIndex",
          "type": "uint256"
        }
      ],
      "name": "finalizeMilestone",
      "outputs": [],
      "stateMutability": "nonpayable",
      "type": "function"
    },
    {
      "inputs": [
        {
          "internalType": "uint256",
          "name": "campaignId",
          "type": "uint256"
        }
      ],
      "name": "getCampaign",
      "outputs": [
        {
          "components": [
            {
              "internalType": "address",
              "name": "creator",
              "type": "address"
            },
            {
              "internalType": "string",
              "name": "title",
              "type": "string"
            },
            {
              "internalType": "string",
              "name": "description",
              "type": "string"
            },
            {
              "internalType": "uint256",
              "name": "goal",
              "type": "uint256"
            },
            {
              "internalType": "uint256",
              "name": "raisedAmount",
              "type": "uint256"
            },
            {
              "internalType": "uint256",
              "name": "deadline",
              "type": "uint256"
            },
            {
              "internalType": "enum CrowdfundingEscrow.CampaignStatus",
              "name": "status",
              "type": "uint8"
            },
            {
              "internalType": "uint256",
              "name": "contributorCount",
              "type": "uint256"
            },
            {
              "internalType": "uint256",
              "name": "currentMilestoneIndex",
              "type": "uint256"
            },
            {
              "internalType": "bool",
              "name": "exists",
              "type": "bool"
            }
          ],
          "internalType": "struct CrowdfundingEscrow.Campaign",
          "name": "",
          "type": "tuple"
        }
      ],
      "stateMutability": "view",
      "type": "function"
    },
    {
      "inputs": [
        {
          "internalType": "uint256",
          "name": "campaignId",
          "type": "uint256"
        },
        {
          "internalType": "address",
          "name": "contributor",
          "type": "address"
        }
      ],
      "name": "getContribution",
      "outputs": [
        {
          "internalType": "uint256",
          "name": "",
          "type": "uint256"
        }
      ],
      "stateMutability": "view",
      "type": "function"
    },
    {
      "inputs": [
        {
          "internalType": "uint256",
          "name": "campaignId",
          "type": "uint256"
        }
      ],
      "name": "getContributors",
      "outputs": [
        {
          "internalType": "address[]",
          "name": "",
          "type": "address[]"
        }
      ],
      "stateMutability": "view",
      "type": "function"
    },
    {
      "inputs": [
        {
          "internalType": "uint256",
          "name": "campaignId",
          "type": "uint256"
        },
        {
          "internalType": "uint256",
          "name": "milestoneIndex",
          "type": "uint256"
        }
      ],
      "name": "getMilestone",
      "outputs": [
        {
          "components": [
            {
              "internalType": "string",
              "name": "title",
              "type": "string"
            },
            {
              "internalType": "uint256",
              "name": "amount",
              "type": "uint256"
            },
            {
              "internalType": "bool",
              "name": "completed",
              "type": "bool"
            },
            {
              "internalType": "bool",
              "name": "approved",
              "type": "bool"
            },
            {
              "internalType": "bool",
              "name": "requested",
              "type": "bool"
            },
            {
              "internalType": "uint256",
              "name": "votingDeadline",
              "type": "uint256"
            },
            {
              "internalType": "uint256",
              "name": "approvalVotes",
              "type": "uint256"
            },
            {
              "internalType": "uint256",
              "name": "rejectionVotes",
              "type": "uint256"
            }
          ],
          "internalType": "struct CrowdfundingEscrow.Milestone",
          "name": "",
          "type": "tuple"
        }
      ],
      "stateMutability": "view",
      "type": "function"
    },
    {
      "inputs": [
        {
          "internalType": "uint256",
          "name": "campaignId",
          "type": "uint256"
        }
      ],
      "name": "getMilestones",
      "outputs": [
        {
          "components": [
            {
              "internalType": "string",
              "name": "title",
              "type": "string"
            },
            {
              "internalType": "uint256",
              "name": "amount",
              "type": "uint256"
            },
            {
              "internalType": "bool",
              "name": "completed",
              "type": "bool"
            },
            {
              "internalType": "bool",
              "name": "approved",
              "type": "bool"
            },
            {
              "internalType": "bool",
              "name": "requested",
              "type": "bool"
            },
            {
              "internalType": "uint256",
              "name": "votingDeadline",
              "type": "uint256"
            },
            {
              "internalType": "uint256",
              "name": "approvalVotes",
              "type": "uint256"
            },
            {
              "internalType": "uint256",
              "name": "rejectionVotes",
              "type": "uint256"
            }
          ],
          "internalType": "struct CrowdfundingEscrow.Milestone[]",
          "name": "",
          "type": "tuple[]"
        }
      ],
      "stateMutability": "view",
      "type": "function"
    },
    {
      "inputs": [
        {
          "internalType": "uint256",
          "name": "campaignId",
          "type": "uint256"
        },
        {
          "internalType": "uint256",
          "name": "milestoneIndex",
          "type": "uint256"
        },
        {
          "internalType": "address",
          "name": "user",
          "type": "address"
        }
      ],
      "name": "getVoteStatus",
      "outputs": [
        {
          "internalType": "bool",
          "name": "voted",
          "type": "bool"
        },
        {
          "internalType": "uint256",
          "name": "approvals",
          "type": "uint256"
        },
        {
          "internalType": "uint256",
          "name": "rejections",
          "type": "uint256"
        }
      ],
      "stateMutability": "view",
      "type": "function"
    },
    {
      "inputs": [
        {
          "internalType": "uint256",
          "name": "",
          "type": "uint256"
        },
        {
          "internalType": "address",
          "name": "",
          "type": "address"
        }
      ],
      "name": "hasRefunded",
      "outputs": [
        {
          "internalType": "bool",
          "name": "",
          "type": "bool"
        }
      ],
      "stateMutability": "view",
      "type": "function"
    },
    {
      "inputs": [
        {
          "internalType": "uint256",
          "name": "",
          "type": "uint256"
        },
        {
          "internalType": "uint256",
          "name": "",
          "type": "uint256"
        },
        {
          "internalType": "address",
          "name": "",
          "type": "address"
        }
      ],
      "name": "hasVoted",
      "outputs": [
        {
          "internalType": "bool",
          "name": "",
          "type": "bool"
        }
      ],
      "stateMutability": "view",
      "type": "function"
    },
    {
      "inputs": [
        {
          "internalType": "uint256",
          "name": "campaignId",
          "type": "uint256"
        },
        {
          "internalType": "address",
          "name": "user",
          "type": "address"
        }
      ],
      "name": "isEligibleForRefund",
      "outputs": [
        {
          "internalType": "bool",
          "name": "",
          "type": "bool"
        }
      ],
      "stateMutability": "view",
      "type": "function"
    },
    {
      "inputs": [],
      "name": "owner",
      "outputs": [
        {
          "internalType": "address",
          "name": "",
          "type": "address"
        }
      ],
      "stateMutability": "view",
      "type": "function"
    },
    {
      "inputs": [],
      "name": "pause",
      "outputs": [],
      "stateMutability": "nonpayable",
      "type": "function"
    },
    {
      "inputs": [],
      "name": "paused",
      "outputs": [
        {
          "internalType": "bool",
          "name": "",
          "type": "bool"
        }
      ],
      "stateMutability": "view",
      "type": "function"
    },
    {
      "inputs": [],
      "name": "platformFeePercent",
      "outputs": [
        {
          "internalType": "uint256",
          "name": "",
          "type": "uint256"
        }
      ],
      "stateMutability": "view",
      "type": "function"
    },
    {
      "inputs": [],
      "name": "renounceOwnership",
      "outputs": [],
      "stateMutability": "nonpayable",
      "type": "function"
    },
    {
      "inputs": [
        {
          "internalType": "uint256",
          "name": "campaignId",
          "type": "uint256"
        },
        {
          "internalType": "uint256",
          "name": "milestoneIndex",
          "type": "uint256"
        }
      ],
      "name": "requestMilestoneRelease",
      "outputs": [],
      "stateMutability": "nonpayable",
      "type": "function"
    },
    {
      "inputs": [
        {
          "internalType": "address",
          "name": "_badge",
          "type": "address"
        }
      ],
      "name": "setBackerBadgeContract",
      "outputs": [],
      "stateMutability": "nonpayable",
      "type": "function"
    },
    {
      "inputs": [],
      "name": "totalPlatformFees",
      "outputs": [
        {
          "internalType": "uint256",
          "name": "",
          "type": "uint256"
        }
      ],
      "stateMutability": "view",
      "type": "function"
    },
    {
      "inputs": [
        {
          "internalType": "address",
          "name": "newOwner",
          "type": "address"
        }
      ],
      "name": "transferOwnership",
      "outputs": [],
      "stateMutability": "nonpayable",
      "type": "function"
    },
    {
      "inputs": [],
      "name": "unpause",
      "outputs": [],
      "stateMutability": "nonpayable",
      "type": "function"
    },
    {
      "inputs": [
        {
          "internalType": "uint256",
          "name": "campaignId",
          "type": "uint256"
        }
      ],
      "name": "updateCampaignStatus",
      "outputs": [],
      "stateMutability": "nonpayable",
      "type": "function"
    },
    {
      "inputs": [
        {
          "internalType": "uint256",
          "name": "campaignId",
          "type": "uint256"
        },
        {
          "internalType": "uint256",
          "name": "milestoneIndex",
          "type": "uint256"
        },
        {
          "internalType": "enum CrowdfundingEscrow.VoteOption",
          "name": "voteOption",
          "type": "uint8"
        }
      ],
      "name": "vote",
      "outputs": [],
      "stateMutability": "nonpayable",
      "type": "function"
    },
    {
      "inputs": [
        {
          "internalType": "address",
          "name": "to",
          "type": "address"
        }
      ],
      "name": "withdrawPlatformFees",
      "outputs": [],
      "stateMutability": "nonpayable",
      "type": "function"
    },
    {
      "stateMutability": "payable",
      "type": "receive"
    }
  ],
  "bytecode": "0x60a0346100f957601f61261338819003918201601f19168301916001600160401b038311848410176100fd5780849260409485528339810103126100f95780516001600160a01b03811691908290036100f9576020015160017f9b779b17422d0df92223018b32b4d1fa46e071723d6817e2486d003becc55f005581156100e6575f80546001600160a01b031981168417825560405193916001600160a01b03909116907f8be0079c531659141344cd1fd0a4f28419497f9722a3daafe3b4186f6b6457e09080a3608052612501908161011282396080518181816104220152610ed00152f35b631e4fbdf760e01b5f525f60045260245ffd5b5f80fd5b634e487b7160e01b5f52604160045260245ffdfe6080604052600436101561001a575b3615610018575f80fd5b005b5f3560e01c8063091e338514611ecf5780630d39a1d314611e89578063141961bc14611db357806322c59958146102c75780633178492a14611d0957806337c6bcaf146115655780633c1ab00f146114955780633f4ba83a1461142957806342c549c0146113305780634c05abeb146113155780635598f8cc1461116357806359b272d01461113b5780635b7baf6414610feb5780635c975abb14610fc7578063715018a614610f705780637274e30d14610f535780638456cb5914610ef35780638c639a8514610eb95780638da5cb5b14610e925780638ed9895c14610dfa578063afc1d28914610bd2578063b1610d7e14610bb5578063b1724b4614610b98578063b41d30f214610b25578063b6a6d17714610b08578063b808a84914610a29578063baa93e03146108e2578063bbb2eab914610708578063c1cbbca7146103b5578063c713b04c14610371578063c9de59ef14610328578063d3631fa51461030b578063e081dbf9146102c7578063ec3889b5146102285763f2fde38b0361000e5734610224576020366003190112610224576101b8611f35565b6101c0612430565b6001600160a01b03168015610211575f80546001600160a01b03198116831782556001600160a01b0316907f8be0079c531659141344cd1fd0a4f28419497f9722a3daafe3b4186f6b6457e09080a3005b631e4fbdf760e01b5f525f60045260245ffd5b5f80fd5b3461022457602036600319011261022457610241611f35565b610249612430565b610251612473565b600254905f6002555f80808085855af16102696122dd565b50156102b8576040519182526001600160a01b0316907ffc7ad544ff6a06d6499925723d25b6fe70457a42939995b1d3d6f560fe33633390602090a260015f5160206124ac5f395f51905f5255005b6312171d8360e31b5f5260045ffd5b34610224576040366003190112610224576102e0611f4b565b6004355f52600660205260405f209060018060a01b03165f52602052602060405f2054604051908152f35b34610224575f366003190112610224576020600254604051908152f35b3461022457604036600319011261022457610341611f4b565b6004355f52600760205260405f209060018060a01b03165f52602052602060ff60405f2054166040519015158152f35b3461022457602036600319011261022457600435805f52600460205260ff600960405f20015416156103a6576100189061238d565b6337f9b70b60e11b5f5260045ffd5b6020366003190112610224576004356103cc612456565b6103d4612473565b805f52600460205260ff600960405f20015416156103a657805f52600460205260405f20906006820160ff81541660048110156106f4576106e557600583015442116106d65734156106c7577f000000000000000000000000000000000000000000000000000000000000000080340290348204036106b357612710900490813403913483116106b35761046a906002546121ed565b6002555f838152600a6020908152604080832033845290915290205460ff161561060e575b825f52600660205260405f2060018060a01b0333165f5260205260405f206104b88382546121ed565b90556104c9600485019283546121ed565b808355600385015411156105d1575b506003545f93906001600160a01b03168061053c575b5050549160405192348452602084015260408301527ff0d39bba72b097aac68d326a113c14384101f3ccf433a038c5d3aead41befed360603393a360015f5160206124ac5f395f51905f5255005b6105776020915f93604051948580948193632328301b60e21b83523360048401528a602484015260806044840152600160848401910161230c565b34606483015203925af15f918161059d575b50610595575b806104ee565b92508361058f565b9091506020813d6020116105c9575b816105b960209383611ffb565b8101031261022457519085610589565b3d91506105ac565b600160ff19825416179055817f1289cf89aaaed53d6590c1b7996ba434edb31dcbd322d0b88ff0c02f64bbdeef602060405160018152a2836104d8565b5f838152600a602090815260408083203384528252808320805460ff1916600117905585835260099091529020805490600160401b82101561069f576001820180825582101561068b575f5260205f2001336bffffffffffffffffffffffff60a01b8254161790556007840161068481546121fa565b905561048f565b634e487b7160e01b5f52603260045260245ffd5b634e487b7160e01b5f52604160045260245ffd5b634e487b7160e01b5f52601160045260245ffd5b631570544960e31b5f5260045ffd5b63387b2e5560e11b5f5260045ffd5b63219a945b60e11b5f5260045ffd5b634e487b7160e01b5f52602160045260245ffd5b3461022457606036600319011261022457604435602435600435600283101561022457610733612456565b805f52600460205260ff600960405f20015416156103a6575f818152600a6020908152604080832033845290915290205460ff16156108d357805f52600460205260ff600660405f2001541660048110156106f4576001036108c457805f5260056020526107a48260405f20612103565b50600281015460ff8160101c16156108b65760ff166108a75760038101544211610898575f828152600860209081526040808320868452825280832033845290915290205460ff16610889575f82815260086020908152604080832086845282528083203384529091529020805460ff1916600117905583610874576004810161082e81546121fa565b90555b6005600482015491015490604051948552602085015260408401527f1e5c23060a7e1db9c7f7fac56330926c23b3568a45a2ccd2702b989afa0f8dd260603394a4005b6005810161088281546121fa565b9055610831565b637c9a1cf960e01b5f5260045ffd5b63370ec37160e21b5f5260045ffd5b634cf723ed60e01b5f5260045ffd5b62ec00a560e01b5f5260045ffd5b630f7fe27160e01b5f5260045ffd5b63d764187d60e01b5f5260045ffd5b34610224576108f0366120ed565b906108f9612456565b805f52600460205260ff600960405f20015416156103a6575f818152600460205260409020546001600160a01b03163303610a1a57805f52600460205260405f2060ff60068201541660048110156106f4576001036108c457600801548203610a0b57805f5260056020526109718260405f20612103565b5060028101805460ff8160101c166109fc5760ff81166108a757620100009062ff000019161790556203f48042018042116106b35781816109ec9260037fdb43cb42b160b2883ea1fd6c0e09292ae202bbb914108e4a6c1351926af60a7195015560018201549060405193849360608552606085019061230c565b91602084015260408301520390a3005b634c03c44360e11b5f5260045ffd5b630f10172360e11b5f5260045ffd5b6393687c0b60e01b5f5260045ffd5b3461022457604036600319011261022457600435610a45611f4b565b90805f52600460205260ff600660405f2001541660048110156106f4576002149081610adc575b81610aaf575b81610a85575b6020826040519015158152f35b90505f52600660205260405f209060018060a01b03165f52602052602060405f2054151582610a78565b5f8181526007602090815260408083206001600160a01b038716845290915290205460ff16159150610a72565b5f818152600a602090815260408083206001600160a01b038716845290915290205460ff169150610a6c565b34610224575f366003190112610224576020604051620151808152f35b34610224576060610b3536611f61565b90825f526005602052610b4b8160405f20612103565b50925f52600860205260405f20905f5260205260405f209060018060a01b03165f5260205260ff60405f205416906005600482015491015490604051921515835260208301526040820152f35b34610224575f3660031901126102245760206040516276a7008152f35b34610224575f3660031901126102245760206040516203f4808152f35b3461022457610be0366120ed565b90610be9612456565b610bf1612473565b805f52600460205260ff600960405f20015416156103a657805f52600460205260405f20600681019260ff84541660048110156106f4576001036108c457825f526005602052610c448160405f20612103565b5060028101805460ff8160101c16156108b65760ff81166108a7576003830154421115610deb57600785015460011c600160ff1983161783556004840154115f14610da45785927fffe56bf760f6d13072fce783b476e75aa4fec7f9319bd00fd896ad53bd32584892610101610cfb9361ffff191617905560018101549760088701610cd081546121fa565b809155855f52600560205260405f205414610d6e575b5060405191829160408352604083019061230c565b8860208301520390a35f8080808660018060a01b038654165af1610d1d6122dd565b50156102b857546040519283526001600160a01b0316917f6e3c6096795c8298a218b2cfb8bde42726ff7c9a3d27b4d3ba41ab7f74feb5fb90602090a35b60015f5160206124ac5f395f51905f5255005b805460ff19166003179055837fbdef6a2e3aa892961a2dab48272f72f2bc1c7121eb1c0ed7e4a58e081c1e4be05f80a288610ce6565b5050610de39194507f2632a738857d774f3179abee0fa205787aea133c8f6d4cbfe4e605028d3e8230925060405191829160208352602083019061230c565b0390a3610d5b565b6339b1d76f60e01b5f5260045ffd5b3461022457610e08366120ed565b5f60e0604051610e1781611fdf565b606081528260208201528260408201528260608201528260808201528260a08201528260c08201520152815f52600460205260ff600960405f20015416156103a657610e74610e7a91610e8e935f52600560205260405f20612103565b50612271565b604051918291602083526020830190612179565b0390f35b34610224575f366003190112610224575f546040516001600160a01b039091168152602090f35b34610224575f3660031901126102245760206040517f00000000000000000000000000000000000000000000000000000000000000008152f35b34610224575f36600319011261022457610f0b612430565b610f13612456565b5f805460ff60a01b1916600160a01b1790556040513381527f62e78cea01bee320cd4e420270b5ea74000d11b0c9f74754ebdbfc544b05a25890602090a1005b34610224575f366003190112610224576020600154604051908152f35b34610224575f36600319011261022457610f88612430565b5f80546001600160a01b0319811682556001600160a01b03167f8be0079c531659141344cd1fd0a4f28419497f9722a3daafe3b4186f6b6457e08280a3005b34610224575f36600319011261022457602060ff5f5460a01c166040519015158152f35b3461022457602036600319011261022457600435611007612473565b805f52600460205260ff600960405f20015416156103a6575f818152600a6020908152604080832033845290915290205460ff16156108d357805f52600460205260ff600660405f2001541660048110156106f45760020361112c575f81815260076020908152604080832033845290915290205460ff1661111d575f818152600660209081526040808320338085528184528285208054878752600786528487208388528652938620805460ff191660011790559190935283905592919081908190819086905af16110d86122dd565b50156102b8576040519182527ff3f402280ef0a7905e124aa621b65eaeb2725c343e8b36d398ed78c29daf285c60203393a360015f5160206124ac5f395f51905f5255005b63542f378d60e11b5f5260045ffd5b630eeb982f60e01b5f5260045ffd5b34610224575f366003190112610224576003546040516001600160a01b039091168152602090f35b34610224576020366003190112610224576004355f61012060405161118781611fc3565b82815260606020820152606060408201528260608201528260808201528260a08201528260c08201528260e0820152826101008201520152805f52600460205260ff600960405f20015416156103a6575f52600460205260405f20604051906111ef82611fc3565b80546001600160a01b031682526112086001820161201c565b906020830191825261121c6002820161201c565b92604081019384526003820154916060820192835260048101549460808301958652600582015460a0840190815260ff6006840154169060c085019060048310156106f4576040986112fa9383526112dc60078701549560e089019687526112c960ff600960088b01549a6101008d019b8c520154169961012081019a15158b526101408e519e8f9e8f936020855260018060a01b039051166020850152519201526101608d01906120bc565b90518b8203601f190160608d01526120bc565b975160808a01525160a08901525160c08801525160e08701906120e0565b51610100850152516101208401525115156101408301520390f35b34610224575f366003190112610224576020604051600a8152f35b3461022457602036600319011261022457600435805f52600460205260ff600960405f20015416156103a6575f52600560205260405f208054906001600160401b03821161069f576040519161138c60208260051b0184611ffb565b8083526020830180925f5260205f205f915b83831061140b57848660405191829160208301906020845251809152604083019060408160051b85010192915f905b8282106113dc57505050500390f35b919360019193955060206113fb8192603f198a82030186528851612179565b96019201920185949391926113cd565b6006602060019261141b85612271565b81520192019201919061139e565b34610224575f36600319011261022457611441612430565b5f5460ff8160a01c16156114865760ff60a01b19165f556040513381527f5db9ee0a495bf2e6ff9c91a7834c1ba4fdd244a5e8aa4e537bd38aeae4b073aa90602090a1005b638dfc202b60e01b5f5260045ffd5b3461022457602036600319011261022457600435805f52600460205260ff600960405f20015416156103a6575f52600960205260405f20604051806020835491828152019081935f5260205f20905f5b81811061154657505050816114fb910382611ffb565b604051918291602083019060208452518091526040830191905f5b818110611524575050500390f35b82516001600160a01b0316845285945060209384019390920191600101611516565b82546001600160a01b03168452602090930192600192830192016114e5565b346102245760c0366003190112610224576004356001600160401b0381116102245761159590369060040161211c565b906024356001600160401b038111610224576115b590369060040161211c565b90916044356064356084356001600160401b038111610224576115dc903690600401612149565b96909360a4356001600160401b038111610224576115fe903690600401612149565b989096611609612456565b8315611cfa578015611ceb578515611cdc576201518085108015611cd0575b611cc1578115611cb257600a8211611ca357898203611c5057855f5f5b8c8110611c5f575003611c505761166b6116606001546121fa565b9586600155426121ed565b986116996040519161167c83611fc3565b33835261168a368888612223565b93602084019485523691612223565b604082019081526060820192888452608083015f815260a084018d815260c08501915f835260e08601965f88526101008701955f8752610120880195600187528d5f52600460205260405f209860018060a01b039051166bffffffffffffffffffffffff60a01b8a54161789556001890190518051906001600160401b03821161069f5781906117298454611f8b565b601f8111611c00575b50602090601f8311600114611b9d575f92611b92575b50508160011b915f199060031b1c19161790555b51805160028901916001600160401b03821161069f57819061177e8454611f8b565b601f8111611b42575b50602090601f8311600114611adf575f92611ad4575b50508160011b915f199060031b1c19161790555b516003870155516004860155516005850155519160048310156106f457611806946117e46009949b9e9b60068701612259565b51600785015551600884015551151591019060ff801983541691151516179055565b36869003601e1901945f5b82811015611a6557855f52600560205260405f208160051b89013588811215610224578901908135916001600160401b038311610224576020018236038113610224576118796118638f86908f6121dd565b35916040519461187286611fdf565b3691612223565b835260208301908152604083015f815260608401905f8252608085015f815260a08601925f845260c08701945f865260e08801965f88528054600160401b81101561069f576118cd91600182018155612103565b989098611a5257518051906001600160401b03821161069f576118f08a54611f8b565b601f8111611a0d575b50602090601f831160011461199c57918060019c9b9a9896949260059a9896945f92611991575b50505f19600383901b1c1916908c1b1789555b518a8901556119556002890193511515849060ff801983541691151516179055565b518254915162ffff001990921690151560081b61ff00161790151560101b62ff0000161790555160038501555160048401555191015501611811565b015190505f80611920565b90601f198316918b5f52815f20925f5b8181106119f557509260019d9c9b999795939285928f949660059d9b9997106119dd575b505050811b018955611933565b01515f1960f88460031b161c191690555f80806119d0565b929360206001819287860151815501950193016119ac565b8a5f5260205f20601f840160051c81019160208510611a48575b601f0160051c01905b818110611a3d57506118f9565b5f8155600101611a30565b9091508190611a27565b634e487b7160e01b5f525f60045260245ffd5b5060209550917f9a6f279818b6c3ecad22dd882c63460a80cee0df2841c888adb08588aff26c229185938a86604051946080865281608087015260a08601375f60a08886010152888401526040830152606082015260a0813395601f80199101168101030190a3604051908152f35b015190505f8061179d565b5f8581528281209350601f198516905b818110611b2a5750908460019594939210611b12575b505050811b0190556117b1565b01515f1960f88460031b161c191690555f8080611b05565b92936020600181928786015181550195019301611aef565b909150835f5260205f20601f840160051c81019160208510611b88575b90601f859493920160051c01905b818110611b7a5750611787565b5f8155849350600101611b6d565b9091508190611b5f565b015190505f80611748565b5f8581528281209350601f198516905b818110611be85750908460019594939210611bd0575b505050811b01905561175c565b01515f1960f88460031b161c191690555f8080611bc3565b92936020600181928786015181550195019301611bad565b909150835f5260205f20601f840160051c81019160208510611c46575b90601f859493920160051c01905b818110611c385750611732565b5f8155849350600101611c2b565b9091508190611c1d565b631109151360e21b5f5260045ffd5b9150611c6c828d8c6121dd565b3515611c9457611c8a600191611c83848f8e6121dd565b35906121ed565b9101908791611645565b639494117d60e01b5f5260045ffd5b638a71996560e01b5f5260045ffd5b635dfece3f60e01b5f5260045ffd5b637616640160e01b5f5260045ffd5b506276a7008511611628565b639b60eb4d60e01b5f5260045ffd5b63d937d5df60e01b5f5260045ffd5b6352ddcdef60e11b5f5260045ffd5b3461022457611d17366120ed565b905f52600560205260405f20805482101561022457611d7891611d3991612103565b50611d438161201c565b90600181015490600281015490600381015460ff600560048401549301549360405197889761010089526101008901906120bc565b95602088015281811615156040880152818160081c161515606088015260101c161515608086015260a085015260c084015260e08301520390f35b3461022457602036600319011261022457600480355f90815260209182526040902080546001600160a01b031690611ded6001820161201c565b611df96002830161201c565b91600381015492611e726004830154600584015460ff60068601541691611e58600787015495611e4a60ff600960088b01549a015416996101406040519e8f9e8f90815201526101408d01906120bc565b908b820360408d01526120bc565b9760608a0152608089015260a088015260c08701906120e0565b60e085015261010084015215156101208301520390f35b3461022457611e9736611f61565b915f52600860205260405f20905f5260205260405f209060018060a01b03165f52602052602060ff60405f2054166040519015158152f35b3461022457602036600319011261022457611ee8611f35565b611ef0612430565b600380546001600160a01b0319166001600160a01b039290921691821790557f1f46f1440957d747afc9eb6e6b4c1173771b52512c4af918144117fb38e813bb5f80a2005b600435906001600160a01b038216820361022457565b602435906001600160a01b038216820361022457565b60609060031901126102245760043590602435906044356001600160a01b03811681036102245790565b90600182811c92168015611fb9575b6020831014611fa557565b634e487b7160e01b5f52602260045260245ffd5b91607f1691611f9a565b61014081019081106001600160401b0382111761069f57604052565b61010081019081106001600160401b0382111761069f57604052565b90601f801991011681019081106001600160401b0382111761069f57604052565b9060405191825f82549261202f84611f8b565b808452936001811690811561209a5750600114612056575b5061205492500383611ffb565b565b90505f9291925260205f20905f915b81831061207e575050906020612054928201015f612047565b6020919350806001915483858901015201910190918492612065565b90506020925061205494915060ff191682840152151560051b8201015f612047565b805180835260209291819084018484015e5f828201840152601f01601f1916010190565b9060048210156106f45752565b6040906003190112610224576004359060243590565b805482101561068b575f52600660205f20910201905f90565b9181601f84011215610224578235916001600160401b038311610224576020838186019501011161022457565b9181601f84011215610224578235916001600160401b038311610224576020808501948460051b01011161022457565b9060e080612192845161010085526101008501906120bc565b936020810151602085015260408101511515604085015260608101511515606085015260808101511515608085015260a081015160a085015260c081015160c0850152015191015290565b919081101561068b5760051b0190565b919082018092116106b357565b5f1981146106b35760010190565b6001600160401b03811161069f57601f01601f191660200190565b92919261222f82612208565b9161223d6040519384611ffb565b829481845281830111610224578281602093845f960137010152565b9060048110156106f45760ff80198354169116179055565b9060405161227e81611fdf565b60e06005829461228d8161201c565b84526001810154602085015260ff600282015481811615156040870152818160081c161515606087015260101c1615156080850152600381015460a0850152600481015460c08501520154910152565b3d15612307573d906122ee82612208565b916122fc6040519384611ffb565b82523d5f602084013e565b606090565b5f929181549161231b83611f8b565b8083529260018116908115612370575060011461233757505050565b5f9081526020812093945091925b838310612356575060209250010190565b600181602092949394548385870101520191019190612345565b915050602093945060ff929192191683830152151560051b010190565b805f52600460205260405f206006810160ff81541660048110156106f45761242b57600582015442111561241c5760ff60209183600360047f1289cf89aaaed53d6590c1b7996ba434edb31dcbd322d0b88ff0c02f64bbdeef96015491015411155f146124125761240060015b82612259565b541661240f60405180926120e0565ba2565b61240060026123fa565b6302eb354360e41b5f5260045ffd5b505050565b5f546001600160a01b0316330361244357565b63118cdaa760e01b5f523360045260245ffd5b60ff5f5460a01c1661246457565b63d93c066560e01b5f5260045ffd5b60025f5160206124ac5f395f51905f52541461249c5760025f5160206124ac5f395f51905f5255565b633ee5aeb560e01b5f5260045ffdfe9b779b17422d0df92223018b32b4d1fa46e071723d6817e2486d003becc55f00a26469706673582212202b3ce9c366e67bc687e7a05c7433bffb0656e24703642fe810c54cea39c4fb0964736f6c634300081c0033",
  "linkReferences": {},
  "deployedLinkReferences": {}
}